:020000040800F2
:1000000000000120C50B0008410B0008490B000847
:10001000510B0008590B0008610B0008000000009C
:10002000000000000000000000000000690B000854
:10003000770B000800000000850B0008930B0008F8
:10004000150C0008150C0008150C0008150C00080C
:10005000150C0008150C0008150C0008150C0008FC
:10006000150C0008150C0008150C0008150C0008EC
:10007000150C0008150C0008150C0008150C0008DC
:10008000150C0008150C0008150C0008150C0008CC
:10009000150C0008150C0008150C0008150C0008BC
:1000A000150C0008150C0008150C0008150C0008AC
:1000B000150C0008150C0008150C0008150C00089C
:1000C000150C0008150C0008150C0008150C00088C
:1000D000150C0008150C0008150C0008150C00087C
:1000E000150C0008150C0008150C00080000000095
:1000F0000000000000000000000000000000000000
:10010000150C00080000000000000000150C00089D
:10011000150C0008150C0008150C00080000000064
:10012000150C0008150C0008150C0008150C00082B
:10013000150C000800000000000000000000000096
:10014000150C0008150C000800000000000000005D
:10015000000000000000000000000000000000009F
:10016000150C0008150C0008150C0008150C0008EB
:10017000150C0008150C0008150C0008150C0008DB
:10018000150C0008150C000800000000000000001D
:04019000150C000842
:1001940010B5054C237833B9044B13B10448AFF3BD
:1001A40000800123237010BD100000200000000017
:1001B400643B000808B5034B1BB103490348AFF384
:1001C400008008BD0000000014000020643B00080B
:1001D40080B485B000AF78600B467B800023FB8140
:1001E40007E0FB897A68134400221A70FB89013303
:1001F400FB81FA897B889A42F3D300BF00BF14378E
:10020400BD465DF8047B704780B483B000AF78606E
:1002140002E07B68013B7B607B68002BF9D100BF67
:1002240000BF0C37BD465DF8047B704780B487B0CF
:1002340000AFF860B9601346FB800023FB820AE03C
:10024400FB8ABA681A44FB8AF9680B4412781A705C
:10025400FB8A0133FB82FA8AFB889A42F0D300BFFF
:1002640000BF1C37BD465DF8047B704780B500AF06
:1002740001220821184801F097FA01224FF40041A5
:100284004FF0904001F090FA01220421134801F04C
:100294008BFA6420FFF7B8FF00224FF400414FF0BF
:1002A400904001F081FA002204210C4801F07CFA0C
:1002B4006420FFF7A9FF01224FF400414FF0904062
:1002C40001F072FA01220421044801F06DFAC820F9
:1002D400FFF79AFF00BF80BD00040048000C0048EF
:1002E40080B584B000AF78609023FB60124802F0C0
:1002F400ADFC00220421114801F056FA07F10C016B
:10030400012304220C4802F074FD6423022279685C
:10031400094802F0E3FE01220421084801F044FAEE
:10032400054802F093FC4FF4FA70FFF76DFF00BF2D
:100334001037BD4680BD00BF40010020000C0048BE
:1003440080B582B000AF134B05221A700023FB71F5
:10035400114802F07BFC00220421104801F024FA29
:10036400642301220B490C4802F043FDF91D0123CB
:100374000122094802F0B2FE01220421074801F0DB
:1003840013FA054802F00DFDFB7918460837BD46FF
:1003940080BD00BF2C00002040010020000C00485C
:1003A40080B582B000AF0346FB710D4802F04EFCED
:1003B400002204210B4801F0F7F9F91D0123012261
:1003C400074802F016FD01220421064801F0ECF969
:1003D400034802F0E6FC00BF0837BD4680BD00BFFD
:1003E40040010020000C004880B586B000AFF860E2
:1003F400B9601346FB711C4B03221A700323FB756F
:100404000AE0FB7DFA68D1B2174AD154FB681B0A93
:10041400FB60FB7D013BFB75FB7D002BF1D1134899
:1004240002F014FC00220421114801F0BDF901235B
:1004340004220D490D4802F0DCFCFB799AB20A2330
:10044400B9680A4802F04AFE01220421084801F072
:10045400ABF9064802F0A5FC012000F041FC00BF06
:100464001837BD4680BD00BF2C000020400100208D
:10047400000C004880B586B000AFF860B960134640
:10048400FB800620FFF78CFF4FF482712248FFF7B0
:100494009FFE214B02221A700323FB750AE0FB7DA9
:1004A400FA68D1B21C4AD154FB681B0AFB60FB7D7D
:1004B400013BFB75FB7D002BF1D11848FB881A46E4
:1004C400B968FFF7B3FE164802F0C0FB002204210E
:1004D400144801F069F9FB8804339AB20A230E49DF
:1004E4000F4802F086FC012204210E4801F05CF959
:1004F4000B4802F056FC012000F0F2FBFFF720FF4E
:100504000346BB75BB7D03F00303002BF3D100BF8F
:1005140000BF1837BD4680BD2C00002030000020ED
:1005240040010020000C004880B584B000AF0346B1
:100534003960FB710620FFF733FF4FF482711F48C7
:10054400FFF746FE1D4AFB7913700323FB730AE091
:10055400FB7B3A68D1B2194AD1543B681B0A3B6011
:10056400FB7B013BFB73FB7B002BF1D1144802F0B6
:100574006DFB00220421134801F016F90123042223
:100584000E490F4802F035FC012204210D4801F008
:100594000BF90B4802F005FC012000F0A1FBFFF76A
:1005A400CFFE0346BB73BB7B03F00303002BF3D1E5
:1005B40000BF00BF1037BD4680BD00BF2C00002027
:1005C40040010020000C004880B582B000AF4FF419
:1005D40000312020FFF7A8FF084B1B88BB800023B5
:1005E400BB71AA233B713B1D032219464FF4003013
:1005F400FFF740FF00BF0837BD4680BD7C3B0008C5
:10060400B0B586B000AF78600B467B800023FB82D8
:10061400254B1B7803F580330A33DB023B6100F082
:10062400D9FC224B00221A60204A3B6953601F4BBD
:1006340001229A6007F10C0319461C4800F09AFD48
:100644000346002B1FD000F0FBFC034628E0FB8A86
:100654009B007A6813441B6800221C4615462246F8
:100664002B463969022000F045FC0346002B06D1D5
:100674003B6904333B61FB8A0133FB8203E000F0F6
:10068400DFFC03460CE0FA8A7B889A42DFD300F051
:10069400C7FC054B1B780133DAB2034B1A700023F5
:1006A40018461837BD46B0BD300100203401002083
:1006B40080B5ADF6180D00AF07F61803A3F60C03CA
:1006C40018464FF400631A46002103F01DFA002374
:1006D400C7F814380023A7F812380023A7F81038F5
:1006E4000023A7F80E3807F61803A3F501630022C8
:1006F4001A8007F61803A3F61403444A12881A80D2
:1007040000229A7000F086FA00F082F800F0FAF8FD
:1007140000F0BAF8FFF7AAFD6620FFF741FE992022
:10072400FFF73EFE9820FFF73BFE07F1080318464B
:10073400FFF7D6FD3B1D032219464FF40030FFF7A7
:1007440053FE07F61803A3F614031B78BB2B5AD1E8
:100754000023A7F8123807F61803A3F614035B78EE
:10076400A7F81238B7F812381B021AB207F61803A2
:10077400A3F614039B781BB213431BB2A7F81238D9
:10078400B7F81238B3F5007F04D34FF40073A7F819
:10079400103803E0B7F81238A7F810380023A7F888
:1007A4000E3815E0B7F80E3807F10C029B0013441D
:1007B40004221946D7F81408FFF716FED7F81438A0
:1007C4000433C7F81438B7F80E380133A7F80E38D5
:1007D400B7F80E28B7F810389A42E3D3B7F81228BE
:1007E400B7F81038D31AA7F81238B7F80E2807F15B
:1007F4000C0311461846FFF703FFB7F81238002B15
:10080400BED1FFF7E1FE00F0FFF8FCE7803B0008F3
:1008140080B590B000AF07F11803282200211846D4
:1008240003F072F93B1D00221A605A609A60DA6084
:100834001A610223BB6101237B621023BB62002384
:100844003B6307F11803184600F0C6FF0346002B6C
:1008540001D000F0E7F80F237B600023BB60002386
:10086400FB6000233B6100237B613B1D0021184694
:1008740002F006F80346002B01D000F0D3F800BFC5
:100884004037BD4680BD000080B500AF1B4B1C4AFD
:100894001A601A4B4FF482725A60184B00229A6005
:1008A400164B4FF4E062DA60144B00221A61134BCA
:1008B40000225A61114B4FF400729A610F4B1022BF
:1008C400DA610E4B00221A620C4B00225A620B4B67
:1008D40000229A62094B0722DA62084B00221A634B
:1008E400064B08225A63054802F0B0F90346002B70
:1008F40001D000F097F800BF80BD00BF4001002088
:10090400003C004080B58AB000AF07F11403002218
:100914001A605A609A60DA601A61384B5B69374A28
:1009240043F400335361354B5B6903F400333B619B
:100934003B69324B5B69314A43F4002353612F4BCB
:100944005B6903F40023FB60FB682C4B5B692B4A57
:1009540043F480135361294B5B6903F48013BB6038
:10096400BB68264B5B69254A43F480235361234BC0
:100974005B6903F480237B607B6800224FF40041B1
:100984004FF0904000F010FF002204211C4800F0BA
:100994000BFF002208211B4800F006FF4FF4004320
:1009A4007B610123BB610023FB6100233B6207F1F0
:1009B400140319464FF0904000F080FC04237B613F
:1009C4000123BB610023FB6100233B6207F1140395
:1009D40019460B4800F072FC08237B610123BB61BC
:1009E4000023FB6100233B6207F114031946054809
:1009F40000F064FC00BF2837BD4680BD00100240F3
:100A0400000C00480004004880B582B000AF044BDD
:100A14001B687B607B68984700BF0837BD4680BD74
:100A24000450000880B400AF72B600BF00BFFDE7F9
:100A340080B483B000AF0F4B9B690E4A43F00103AF
:100A440093610C4B9B6903F001037B607B68094B4A
:100A5400DB69084A43F08053D361064BDB6903F03A
:100A640080533B603B6800BF0C37BD465DF8047B98
:100A7400704700BF0010024080B58AB000AF7860B4
:100A840007F1140300221A605A609A60DA601A614E
:100A94007B681B68174A934228D1174BDB69164AB7
:100AA40043F40043D361144BDB6903F400433B611B
:100AB4003B69114B5B69104A43F4002353610E4BAD
:100AC4005B6903F40023FB60FB684FF4E0537B6134
:100AD4000223BB610023FB6103233B6206237B6289
:100AE40007F114031946054800F0E8FB00BF283756
:100AF400BD4680BD003C0040001002400008004894
:100B040080B582B000AF78607B681B68084A934266
:100B14000AD1084BDB69074A23F40043D3614FF43D
:100B2400E051054800F054FD00BF0837BD4680BDC4
:100B3400003C0040001002400008004880B400AFB0
:100B440000BFFDE780B400AF00BFFDE780B400AF95
:100B540000BFFDE780B400AF00BFFDE780B400AF85
:100B640000BFFDE780B400AF00BFBD465DF8047B65
:100B7400704780B400AF00BFBD465DF8047B70478A
:100B840080B400AF00BFBD465DF8047B704780B5FC
:100B940000AF00F085F800BF80BD000080B400AF56
:100BA400064BD3F88830054A43F47003C2F8883002
:100BB40000BFBD465DF8047B704700BF00ED00E058
:100BC400DFF834D0FFF7EAFF0C480D490D4A002343
:100BD40002E0D458C4500433C4188C42F9D30A4AEE
:100BE4000A4C002301E013600432A242FBD302F05A
:100BF40093FFFFF75DFDFEE70000012000000020E9
:100C04000C000020BC3B000810000020C80100209C
:100C1400FEE7000080B500AF084B1B68074A43F0AD
:100C240010031360032000F031F90F2000F008F8DE
:100C3400FFF7FEFE0023184680BD00BF00200240DF
:100C440080B582B000AF7860124B1A68124B1B78E3
:100C540019464FF47A73B3FBF1F3B2FBF3F318467E
:100C640000F03BF90346002B01D001230EE07B6822
:100C74000F2B0AD8002279684FF0FF3000F011F9E9
:100C8400064A7B681360002300E0012318460837F6
:100C9400BD4680BD000000200800002004000020A4
:100CA40080B400AF064B1B781A46064B1B681344EE
:100CB400044A136000BFBD465DF8047B704700BF63
:100CC40008000020A401002080B400AF034B1B687F
:100CD4001846BD465DF8047B704700BFA4010020A0
:100CE40080B584B000AF7860FFF7EEFFB8607B6832
:100CF400FB60FB68B3F1FF3F05D00A4B1B781A4633
:100D0400FB681344FB6000BFFFF7DEFF0246BB68CD
:100D1400D31AFA689A42F7D800BF00BF1037BD460D
:100D240080BD00BF0800002080B485B000AF7860AB
:100D34007B6803F00703FB600C4BDB68BB60BA689D
:100D44004FF6FF031340BB60FB681A02BB681343F2
:100D540043F0BF6343F40033BB60044ABB68D36011
:100D640000BF1437BD465DF8047B704700ED00E01A
:100D740080B400AF044BDB681B0A03F0070318467A
:100D8400BD465DF8047B704700ED00E080B483B09D
:100D940000AF03463960FB7197F90730002B0ADB7B
:100DA4003B68DAB20C4997F907301201D2B20B440E
:100DB40083F800230AE03B68DAB20849FB7903F0C0
:100DC4000F03043B1201D2B20B441A7600BF0C3756
:100DD400BD465DF8047B704700E100E000ED00E0F3
:100DE40080B489B000AFF860B9607A60FB6803F042
:100DF4000703FB61FB69C3F10703042B28BF04232A
:100E0400BB61FB690433062B02D9FB69033B00E099
:100E140000237B614FF0FF32BB6902FA03F3DA432C
:100E2400BB681A407B699A404FF0FF317B6901FA35
:100E340003F3D9437B680B40134318462437BD465C
:100E44005DF8047B7047000080B582B000AF786025
:100E54007B68013BB3F1807F01D301230FE00A4A91
:100E64007B68013B53600F214FF0FF30FFF78EFF8B
:100E7400054B00229A60044B07221A60002318468F
:100E84000837BD4680BD00BF10E000E080B582B0E9
:100E940000AF78607868FFF747FF00BF0837BD46AA
:100EA40080BD80B586B000AF0346B9607A60FB733D
:100EB40000237B61FFF75CFF78617A68B968786921
:100EC400FFF78EFF024697F90F3011461846FFF7D9
:100ED4005DFF00BF1837BD4680BD80B582B000AF4E
:100EE40078607868FFF7B0FF034618460837BD46B8
:100EF40080BD0000F0B587B000AFF860B960C7E905
:100F040000230123FB750023BB7500237B752F4B46
:100F14001B7E012B01D1022354E02C4B01221A76B3
:100F24004CF2503000F0B4F80346FB75FB7D002B07
:100F340044D1FB68012B02D101237B7507E0FB68D8
:100F4400022B02D102237B7501E004237B7500236D
:100F5400BB752DE0BB7D5A00BB6802EB030CBB7D67
:100F64001901D7E90023C1F12006A1F1200022FADA
:100F740001F403FA06F6344323FA00F0044323FA97
:100F840001F5A3B21946604600F066F84CF2503001
:100F940000F07EF80346FB750D4B1B690C4A23F0E9
:100FA40001031361FB7D002B07D1BB7D0133BB75AE
:100FB400BA7D7B7D9A42CDD300E000BF034B002273
:100FC4001A76FB7D18461C37BD46F0BDA8010020EB
:100FD4000020024080B483B000AF0023FB710D4BAE
:100FE4001B6903F08003002B0DD00A4B0A4A5A6098
:100FF400084B0A4A5A60074B1B6903F08003002B15
:1010040001D00123FB71FB7918460C37BD465DF80E
:10101400047B70470020024023016745AB89EFCD74
:1010240080B400AF054B1B69044A43F0800313618D
:1010340000231846BD465DF8047B7047002002403B
:1010440080B400AF034BDB691846BD465DF8047BF2
:10105400704700BFA801002080B483B000AF78605F
:101064000B467B80084B0022DA61084B1B69074A58
:1010740043F0010313617B687A881A8000BF0C3740
:10108400BD465DF8047B7047A801002000200240A3
:1010940080B584B000AF7860FFF716FEF86010E00A
:1010A4007B68B3F1FF3F0CD07B68002B07D0FFF7C0
:1010B4000BFE0246FB68D31A7A689A4201D20323D4
:1010C4001FE0124BDB6803F00103012BE8D00F4B48
:1010D400DB6803F02003202B02D10C4B2022DA60C2
:1010E4000A4BDB6803F01003102B05D0074BDB68B9
:1010F40003F00403042B03D100F00AF8012300E0F9
:10110400002318461037BD4680BD00BF00200240B2
:1011140080B483B000AF00237B60144BDB6803F022
:101124001003102B09D1124BDB6943F00203104A60
:10113400D3617B6843F010037B600C4BDB6803F0E6
:101144000403042B09D10A4BDB6943F00103084A69
:10115400D3617B6843F004037B60044A7B68D360FB
:1011640000BF0C37BD465DF8047B70470020024089
:10117400A801002080B584B000AF786039600123F5
:10118400FB730023BB602E4B1B7E012B01D102237A
:1011940052E02B4B01221A767B681B68012B15D178
:1011A4004CF25030FFF774FF0346002B40D100F09F
:1011B4004BF84CF25030FFF76BFF0346FB73214BA7
:1011C4001B69204A23F00403136131E04CF25030D0
:1011D400FFF75EFF0346002B2AD13B684FF0FF3236
:1011E4001A607B685B68BB6019E0B86800F046F879
:1011F4004CF25030FFF74CFF0346FB73114B1B6955
:10120400104A23F002031361FB7B002B03D03B68DD
:10121400BA681A600CE0BB6803F50063BB607B68C6
:101224009B68DA027B685B681344BA689A42DCD331
:10123400034B00221A76FB7B18461037BD4680BD4F
:10124400A80100200020024080B400AF094B002216
:10125400DA61094B1B69084A43F004031361064B26
:101264001B69054A43F04003136100BFBD465DF8A6
:10127400047B7047A80100200020024080B483B0A2
:1012840000AF78600B4B0022DA610B4B1B690A4AF2
:1012940043F002031361084A7B685361064B1B69E0
:1012A400054A43F04003136100BF0C37BD465DF8A7
:1012B400047B7047A80100200020024080B487B05E
:1012C40000AF7860396000237B6160E13B681A6895
:1012D40001217B6901FA03F31340FB60FB68002BD7
:1012E40000F052813B685B6803F00303012B05D0D7
:1012F4003B685B6803F00303022B30D17B689B6877
:101304003B617B695B00032202FA03F3DB433A6926
:1013140013403B613B68DA687B695B0002FA03F3C4
:101324003A6913433B617B683A699A607B685B68FE
:101334003B6101227B6902FA03F3DB433A69134000
:101344003B613B685B681B0903F001027B6902FA9D
:1013540003F33A6913433B617B683A695A603B681B
:101364005B6803F00303032B17D07B68DB683B61E6
:101374007B695B00032202FA03F3DB433A691340FF
:101384003B613B689A687B695B0002FA03F33A6944
:1013940013433B617B683A69DA603B685B6803F03E
:1013A4000303022B23D17B69DA087B68083253F8E4
:1013B40022303B617B6903F007039B000F2202FA92
:1013C40003F3DB433A6913403B613B681A697B6969
:1013D40003F007039B0002FA03F33A6913433B61EA
:1013E4007B69DA087B680832396943F822107B6824
:1013F4001B683B617B695B00032202FA03F3DB4356
:101404003A6913403B613B685B6803F003027B6904
:101414005B0002FA03F33A6913433B617B683A6960
:101424001A603B685B6803F44033002B00F0AC8027
:101434005E4B9B695D4A43F0010393615B4B9B697F
:1014440003F00103BB60BB68594A7B699B08023304
:1014540052F823303B617B6903F003039B000F22A6
:1014640002FA03F3DB433A6913403B617B68B3F14F
:10147400904F25D07B684F4A93421FD07B684E4AD9
:10148400934219D07B684D4A934213D07B684C4AEF
:1014940093420DD07B684B4A934207D07B684A4AFB
:1014A400934201D106230CE007230AE0052308E058
:1014B400042306E0032304E0022302E0012300E006
:1014C40000237A6902F00302920093403A691343BD
:1014D4003B6137497B699B0802333A6941F8232011
:1014E4003A4B9B683B61FB68DB433A6913403B61C1
:1014F4003B685B6803F48013002B03D03A69FB68F4
:1015040013433B61314A3B699360304BDB683B6179
:10151400FB68DB433A6913403B613B685B6803F457
:101524000013002B03D03A69FB6813433B61274A3D
:101534003B69D360254B5B683B61FB68DB433A69DD
:1015440013403B613B685B6803F40033002B03D01A
:101554003A69FB6813433B611C4A3B6953601B4B6C
:101564001B683B61FB68DB433A6913403B613B68A2
:101574005B6803F48033002B03D03A69FB681343A0
:101584003B61124A3B6913607B6901337B613B68B1
:101594001A687B6922FA03F3002B7FF497AE00BF2D
:1015A40000BF1C37BD465DF8047B70470010024045
:1015B400000001400004004800080048000C0048F6
:1015C40000100048001400480018004800040140BE
:1015D40080B487B000AF7860396000237B61C4E0D9
:1015E40001227B6902FA03F33A6813403B613B69C9
:1015F400002B00F0B780644A7B699B08023352F8E1
:101604002330FB607B6903F003039B000F2202FA83
:1016140003F3FA681340FB607B68B3F1904F25D065
:101624007B685A4A93421FD07B68594A934219D027
:101634007B68584A934213D07B68574A93420DD033
:101644007B68564A934207D07B68554A934201D13E
:1016540006230CE007230AE0052308E0042306E040
:10166400032304E0022302E0012300E000237A695B
:1016740002F0030292009340FA689A4232D1494B35
:101684001A683B69DB43474913400B60454B5A6872
:101694003B69DB43434913404B60424BDA683B6987
:1016A400DB4340491340CB603E4B9A683B69DB43C4
:1016B4003C4913408B607B6903F003039B000F22BA
:1016C40002FA03F3FB60304A7B699B08023352F849
:1016D4002310FB68DA432C487B699B080A400233D9
:1016E40040F823207B681A687B695B00032101FAB8
:1016F40003F3DB431A407B681A607B69DA087B6872
:10170400083253F822107B6903F007039B000F2271
:1017140002FA03F3DB437A69D20819407B68083282
:1017240043F822107B68DA687B695B00032101FAC5
:1017340003F3DB431A407B68DA607B685A68012153
:101744007B6901FA03F3DB431A407B685A607B68C8
:101754009A687B695B00032101FA03F3DB431A40B7
:101764007B689A607B6901337B613A687B6922FA02
:1017740003F3002B7FF434AF00BF00BF1C37BD461A
:101784005DF8047B704700BF00000140000400487E
:1017940000080048000C00480010004800140048ED
:1017A400001800480004014080B483B000AF7860A2
:1017B4000B467B8013467B707B78002B03D07A88A2
:1017C4007B689A6102E07A887B689A6200BF0C3772
:1017D400BD465DF8047B704780B5ADF5027D00AF72
:1017E40007F50273A3F50173186007F50273A3F5F7
:1017F40001731B68002B02D1012301F03AB807F5ED
:101804000273A3F501731B681B6803F00103002B2B
:1018140000F06F81B54B5B6803F00C03042B0CD014
:10182400B24B5B6803F00C03082B5CD1AF4B5B68D5
:1018340003F4C033B3F5803F55D14FF40033C7F8F8
:10184400F431D7F8F43193FAA3F3C7F8F031D7F8A9
:10185400F031B3FA83F3DBB25B09DBB243F001038B
:10186400DBB2012B02D1A14B1B6815E04FF400330E
:10187400C7F8EC31D7F8EC3193FAA3F3C7F8E831A1
:101884004FF40033C7F8E431D7F8E43193FAA3F303
:10189400C7F8E031954B5B6A4FF40032C7F8DC219E
:1018A400D7F8DC2192FAA2F2C7F8D821D7F8D821C8
:1018B400B2FA82F2D2B242F02002D2B202F01F0295
:1018C400012101FA02F21340002B00F0118107F507
:1018D4000273A3F501731B685B68002B40F0088159
:1018E400012300F0C6BF07F50273A3F501731B685B
:1018F4005B68B3F5803F06D17C4B1B687B4A43F49D
:101904008033136036E007F50273A3F501731B6897
:101914005B68002B0CD1754B1B68744A23F480332D
:101924001360724B1B68714A23F48023136021E017
:1019340007F50273A3F501731B685B68B3F5A02F69
:101944000CD16A4B1B68694A43F480231360674BCC
:101954001B68664A43F4803313600BE0634B1B68D7
:10196400624A23F480331360604B1B685F4A23F49C
:101974008023136007F50273A3F501731B685B688A
:10198400002B59D0FFF7A0F9C7F800020AE0FFF7CF
:101994009BF90246D7F80032D31A642B02D90323E9
:1019A40000F067BF4FF40033C7F8D431D7F8D4310F
:1019B40093FAA3F3C7F8D031D7F8D031B3FA83F34D
:1019C400DBB25B09DBB243F00103DBB2012B02D1D2
:1019D400464B1B6815E04FF40033C7F8CC31D7F8F9
:1019E400CC3193FAA3F3C7F8C8314FF40033C7F8E6
:1019F400C431D7F8C43193FAA3F3C7F8C0313B4BD1
:101A04005B6A4FF40032C7F8BC21D7F8BC2192FAC4
:101A1400A2F2C7F8B821D7F8B821B2FA82F2D2B24A
:101A240042F02002D2B202F01F02012101FA02F2B6
:101A34001340002BABD05CE0FFF746F9C7F8000277
:101A44000AE0FFF741F90246D7F80032D31A642BB3
:101A540002D9032300F00DBF4FF40033C7F8B431AB
:101A6400D7F8B43193FAA3F3C7F8B031D7F8B0314B
:101A7400B3FA83F3DBB25B09DBB243F00103DBB2FD
:101A8400012B02D1194B1B6815E04FF40033C7F842
:101A9400AC31D7F8AC3193FAA3F3C7F8A8314FF4BB
:101AA4000033C7F8A431D7F8A43193FAA3F3C7F8E5
:101AB400A0310E4B5B6A4FF40032C7F89C21D7F873
:101AC4009C2192FAA2F2C7F89821D7F89821B2FA89
:101AD40082F2D2B242F02002D2B202F01F020121FD
:101AE40001FA02F21340002BABD102E000100240D5
:101AF40000BF07F50273A3F501731B681B6803F0AD
:101B04000203002B00F07F81A74B5B6803F00C03FA
:101B1400002B0CD0A44B5B6803F00C03082B73D18F
:101B2400A14B5B6803F4C033B3F5004F6CD10223BF
:101B3400C7F89431D7F8943193FAA3F3C7F89031E6
:101B4400D7F89031B3FA83F3DBB25B09DBB243F02D
:101B54000103DBB2012B02D1934B1B6813E0022378
:101B6400C7F88C31D7F88C3193FAA3F3C7F88831CE
:101B74000223C7F88431D7F8843193FAA3F3C7F862
:101B84008031894B5B6A0222C7F87C21D7F87C211B
:101B940092FAA2F2C7F87821D7F87821B2FA82F241
:101BA400D2B242F02002D2B202F01F02012101FAA5
:101BB40002F21340002B0AD007F50273A3F5017358
:101BC4001B68DB68012B02D0012300F052BE764B68
:101BD4001B6823F0F80207F50273A3F501731B6871
:101BE4001B69F821C7F87411D7F8741191FAA1F19F
:101BF400C7F87011D7F87011B1FA81F1C9B28B40EE
:101C0400694913430B60FEE007F50273A3F5017302
:101C14001B68DB68002B00F088800123C7F86C3157
:101C2400D7F86C3193FAA3F3C7F86831D7F8683161
:101C3400B3FA83F3DBB203F1845303F584139B00FB
:101C44001A4601231360FFF73FF8C7F800020AE0C1
:101C5400FFF73AF80246D7F80032D31A022B02D91A
:101C6400032300F006BE0223C7F86431D7F86431B9
:101C740093FAA3F3C7F86031D7F86031B3FA83F36A
:101C8400DBB25B09DBB243F00103DBB2012B02D10F
:101C9400454B1B6813E00223C7F85C31D7F85C316D
:101CA40093FAA3F3C7F858310223C7F85431D7F88D
:101CB400543193FAA3F3C7F850313B4B5B6A0222C9
:101CC400C7F84C21D7F84C2192FAA2F2C7F8482160
:101CD400D7F84821B2FA82F2D2B242F02002D2B24C
:101CE40002F01F02012101FA02F21340002BAFD0CF
:101CF4002D4B1B6823F0F80207F50273A3F501735B
:101D04001B681B69F821C7F84411D7F8441191FAEC
:101D1400A1F1C7F84011D7F84011B1FA81F1C9B265
:101D24008B40214913430B606DE00123C7F83C311C
:101D3400D7F83C3193FAA3F3C7F83831D7F83831E0
:101D4400B3FA83F3DBB203F1845303F584139B00EA
:101D54001A4600231360FEF7B7FFC7F800020AE033
:101D6400FEF7B2FF0246D7F80032D31A022B02D98B
:101D7400032300F07EBD0223C7F83431D7F8343191
:101D840093FAA3F3C7F83031D7F83031B3FA83F3B9
:101D9400DBB25B09DBB243F00103DBB2012B05D1FB
:101DA400014B1B6816E000BF001002400223C7F875
:101DB4002C31D7F82C3193FAA3F3C7F82831022336
:101DC400C7F82431D7F8243193FAA3F3C7F82031A4
:101DD400BF4B5B6A0222C7F81C21D7F81C2192FA78
:101DE400A2F2C7F81821D7F81821B2FA82F2D2B2B7
:101DF40042F02002D2B202F01F02012101FA02F2E3
:101E04001340002BACD107F50273A3F501731B68D3
:101E14001B6803F00803002B00F0138107F502731D
:101E2400A3F501731B685B69002B7CD00123C7F801
:101E34001431D7F8143193FAA3F3C7F81031D7F853
:101E44001031B3FA83F3DBB21A46A24B13449B005E
:101E54001A4601231360FEF737FFC7F800020AE0B1
:101E6400FEF732FF0246D7F80032D31A022B02D90A
:101E7400032300F0FEBC0223C7F80C31D7F80C3161
:101E840093FAA3F207F50273A3F580731A6007F5BA
:101E94000273A3F5827302221A6007F50273A3F595
:101EA40082731B6893FAA3F207F50273A3F5847394
:101EB4001A6007F50273A3F5867302221A6007F508
:101EC4000273A3F586731B6893FAA3F207F50273F2
:101ED400A3F588731A607E4B5A6A07F50273A3F55B
:101EE4008A730221196007F50273A3F58A731B68CC
:101EF40093FAA3F107F50273A3F58C73196007F540
:101F04000273A3F58C731B68B3FA83F3DBB243F05B
:101F14006003DBB203F01F03012101FA03F3134052
:101F2400002B9DD08DE007F50273A3F58E7301227B
:101F34001A6007F50273A3F58E731B6893FAA3F274
:101F440007F50273A3F590731A6007F50273A3F5FE
:101F540090731B68B3FA83F3DBB21A465D4B1344E8
:101F64009B001A4600231360FEF7AEFEC7F800027A
:101F74000AE0FEF7A9FE0246D7F80032D31A022B74
:101F840002D9032300F075BC07F50273A3F592731D
:101F940002221A6007F50273A3F592731B6893FA81
:101FA400A3F207F50273A3F594731A6007F502739D
:101FB400A3F5967302221A6007F50273A3F59673CC
:101FC4001B6893FAA3F207F50273A3F598731A60DA
:101FD40007F50273A3F59A7302221A6007F50273D8
:101FE400A3F59A731B6893FAA3F207F50273A3F59A
:101FF4009C731A60364B5A6A07F50273A3F59E73F5
:102004000221196007F50273A3F59E731B6893FA06
:10201400A3F107F50273A3F5A073196007F5027322
:10202400A3F5A0731B68B3FA83F3DBB243F0600338
:10203400DBB203F01F03012101FA03F31340002B69
:1020440097D107F50273A3F501731B681B6803F0AE
:102054000403002B00F0A581002387F807321C4BF2
:10206400DB6903F08053002B16D1194BDB69184A46
:1020740043F08053D361164BDB6903F0805207F5BC
:102084000273A3F5FE731A6007F50273A3F5FE73DA
:102094001B68012387F807320F4B1B6803F4807316
:1020A400002B21D10C4B1B680B4A43F48073136043
:1020B400FEF70AFEC7F8000210E0FEF705FE02462E
:1020C400D7F80032D31A642B08D90323D1E300BF15
:1020D4000010024020819010007000408D4B1B685E
:1020E40003F48073002BE8D007F50273A3F50173A2
:1020F4001B689B68012B06D1874B1B6A864A43F0F9
:102104000103136235E007F50273A3F501731B683D
:102114009B68002B0CD1804B1B6A7F4A23F0010380
:1021240013627D4B1B6A7C4A23F00403136220E094
:1021340007F50273A3F501731B689B68052B0CD18B
:10214400754B1B6A744A43F004031362724B1B6A97
:10215400714A43F0010313620BE06F4B1B6A6E4A32
:1021640023F0010313626C4B1B6A6B4A23F00403D4
:10217400136207F50273A3F501731B689B68002BB8
:1021840000F08180FEF7A0FDC7F800020BE0FEF727
:102194009BFD0246D7F80032D31A41F288329342AB
:1021A40001D9032365E307F50273A3F5A2730222A1
:1021B4001A6007F50273A3F5A2731B6893FAA3F2DE
:1021C40007F50273A3F5A4731A6007F50273A3F568
:1021D400A67302221A6007F50273A3F5A6731B689F
:1021E40093FAA3F207F50273A3F5A8731A6007F52F
:1021F4000273A3F5A8731B68B3FA83F3DBB25B091C
:10220400DBB243F00203DBB2022B02D1424B1B6A66
:1022140013E007F50273A3F5AA7302221A6007F507
:102224000273A3F5AA731B6893FAA3F207F502736A
:10223400A3F5AC731A60384B5B6A07F50272A2F51A
:10224400AE720221116007F50272A2F5AE72126835
:1022540092FAA2F107F50272A2F5B072116007F5C5
:102264000272A2F5B0721268B2FA82F2D2B242F0ED
:102274004002D2B202F01F02012101FA02F213401D
:10228400002B84D083E0FEF71FFDC7F800020BE0AB
:10229400FEF71AFD0246D7F80032D31A41F288320B
:1022A400934201D90323E4E207F50273A3F5B27361
:1022B40002221A6007F50273A3F5B2731B6893FA3E
:1022C400A3F207F50273A3F5B4731A6007F502735A
:1022D400A3F5B67302221A6007F50273A3F5B67369
:1022E4001B6893FAA3F207F50273A3F5B8731A6097
:1022F40007F50273A3F5B8731B68B3FA83F3DBB273
:102304005B09DBB243F00203DBB2022B06D1024BC2
:102314001B6A17E0007000400010024007F50273CA
:10232400A3F5BA7302221A6007F50273A3F5BA7310
:102334001B6893FAA3F207F50273A3F5BC731A6042
:10234400B34B5B6A07F50272A2F5BE7202211160FB
:1023540007F50272A2F5BE72126892FAA2F107F5AD
:102364000272A2F5C072116007F50272A2F5C07282
:102374001268B2FA82F2D2B242F04002D2B202F051
:102384001F02012101FA02F21340002B80D197F8B9
:102394000732012B05D19E4BDB699D4A23F0805304
:1023A400D36107F50273A3F501731B689B69002BC6
:1023B40000F05E82964B5B6803F00C03082B00F080
:1023C4001F8207F50273A3F501731B689B69022B37
:1023D40040F0708107F50273A3F5C2734FF0807269
:1023E4001A6007F50273A3F5C2731B6893FAA3F28C
:1023F40007F50273A3F5C4731A6007F50273A3F516
:10240400C4731B68B3FA83F3DBB203F1845303F59B
:1024140084139B001A4600231360FEF755FCC7F88B
:10242400000209E0FEF750FC0246D7F80032D31A46
:10243400022B01D903231CE207F50273A3F5C6732B
:102444004FF000721A6007F50273A3F5C6731B6898
:1024540093FAA3F207F50273A3F5C8731A6007F59C
:102464000273A3F5C8731B68B3FA83F3DBB25B0989
:10247400DBB243F00103DBB2012B02D1644B1B68D6
:1024840027E007F50273A3F5CA734FF000721A60D0
:1024940007F50273A3F5CA731B6893FAA3F207F551
:1024A4000273A3F5CC731A6007F50273A3F5CE7318
:1024B4004FF000721A6007F50273A3F5CE731B6820
:1024C40093FAA3F207F50273A3F5D0731A60504B85
:1024D4005B6A07F50272A2F5D2724FF000711160C7
:1024E40007F50272A2F5D272126892FAA2F107F508
:1024F4000272A2F5D472116007F50272A2F5D472C9
:102504001268B2FA82F2D2B242F02002D2B202F0DF
:102514001F02012101FA02F21340002B82D13C4B2D
:10252400DB6A23F00F0207F50273A3F501731B683E
:102534005B6A37491343CB62354B5B6823F47612ED
:1025440007F50273A3F501731B68196A07F5027393
:10255400A3F501731B68DB690B432D4913434B60DF
:1025640007F50273A3F5D6734FF080721A6007F56E
:102574000273A3F5D6731B6893FAA3F207F50273EB
:10258400A3F5D8731A6007F50273A3F5D8731B6813
:10259400B3FA83F3DBB203F1845303F584139B0092
:1025A4001A4601231360FEF78FFBC7F8000209E007
:1025B400FEF78AFB0246D7F80032D31A022B01D960
:1025C400032356E107F50273A3F5DA734FF00072A3
:1025D4001A6007F50273A3F5DA731B6893FAA3F282
:1025E40007F50273A3F5DC731A6007F50273A3F50C
:1025F400DC731B68B3FA83F3DBB25B09DBB243F031
:102604000103DBB2012B05D1014B1B682AE000BF9B
:102614000010024007F50273A3F5DE734FF0007259
:102624001A6007F50273A3F5DE731B6893FAA3F22D
:1026340007F50273A3F5E0731A6007F50273A3F5B7
:10264400E2734FF000721A6007F50273A3F5E273A8
:102654001B6893FAA3F207F50273A3F5E4731A60F7
:10266400864B5B6A07F50272A2F5E6724FF00071C1
:10267400116007F50272A2F5E672126892FAA2F1ED
:1026840007F50272A2F5E872116007F50272A2F56D
:10269400E8721268B2FA82F2D2B242F02002D2B2E6
:1026A40002F01F02012101FA02F21340002B3FF451
:1026B4007FAFDDE007F50273A3F5EA734FF0807294
:1026C4001A6007F50273A3F5EA731B6893FAA3F281
:1026D40007F50273A3F5EC731A6007F50273A3F50B
:1026E400EC731B68B3FA83F3DBB203F1845303F591
:1026F40084139B001A4600231360FEF7E5FAC7F81B
:10270400000209E0FEF7E0FA0246D7F80032D31AD5
:10271400022B01D90323ACE007F50273A3F5EE7392
:102724004FF000721A6007F50273A3F5EE731B688D
:1027340093FAA3F207F50273A3F5F0731A6007F591
:102744000273A3F5F0731B68B3FA83F3DBB25B097E
:10275400DBB243F00103DBB2012B02D1474B1B6810
:1027640027E007F50273A3F5F2734FF000721A60C5
:1027740007F50273A3F5F2731B6893FAA3F207F546
:102784000273A3F5F4731A6007F50273A3F5F673E5
:102794004FF000721A6007F50273A3F5F6731B6815
:1027A40093FAA3F207F50273A3F5F8731A60334B97
:1027B4005B6A07F50272A2F5FA724FF000711160BC
:1027C40007F50272A2F5FA72126892FAA2F107F5FD
:1027D4000272A2F5FC72116007F50272A2F5FC7296
:1027E4001268B2FA82F2D2B242F02002D2B202F0FD
:1027F4001F02012101FA02F21340002B82D137E0BB
:1028040007F50273A3F501731B689B69012B01D1C2
:1028140001232EE0194B5B68C7F8FC31174BDB6AC8
:10282400C7F8F831D7F8FC3103F4C03207F5027366
:10283400A3F501731B68DB699A4217D1D7F8FC3101
:1028440003F4701207F50273A3F501731B681B6A86
:102854009A420BD1D7F8F83103F00F0207F502734F
:10286400A3F501731B685B6A9A4201D0012300E05F
:102874000023184607F50277BD4680BD00100240CC
:1028840080B59EB000AF7860396000237B677B68B9
:10289400002B01D1012362E1904B1B6803F0070375
:1028A4003A689A4210D98D4B1B6823F007028B4972
:1028B4003B6813430B60894B1B6803F007033A68BA
:1028C4009A4201D001234AE17B681B6803F00203AA
:1028D400002B08D0824B5B6823F0F0027B689B6876
:1028E4007F4913434B607B681B6803F00103002B93
:1028F40000F0DC807B685B68012B3CD14FF4003333
:102904003B673B6F93FAA3F3FB66FB6EB3FA83F367
:10291400DBB25B09DBB243F00103DBB2012B02D172
:102924006F4B1B680FE04FF40033BB66BB6E93FA2A
:10293400A3F37B664FF400333B663B6E93FAA3F339
:10294400FB65674B5B6A4FF40032BA65BA6D92FA65
:10295400A2F27A657A6DB2FA82F2D2B242F0200221
:10296400D2B202F01F02012101FA02F21340002B3D
:102974007BD10123F3E07B685B68022B3CD14FF0F1
:1029840000733B653B6D93FAA3F3FB64FB6CB3FAF2
:1029940083F3DBB25B09DBB243F00103DBB2012B4F
:1029A40002D14F4B1B680FE04FF00073BB64BB6C4C
:1029B40093FAA3F37B644FF000733B643B6C93FA8C
:1029C400A3F3FB63464B5B6A4FF00072BA63BA6BC6
:1029D40092FAA2F27A637A6BB2FA82F2D2B242F03B
:1029E4002002D2B202F01F02012101FA02F21340C6
:1029F400002B3AD10123B2E002233B633B6B93FAF1
:102A0400A3F3FB62FB6AB3FA83F3DBB25B09DBB2C9
:102A140043F00103DBB2012B02D1314B1B680DE003
:102A24000223BB62BB6A93FAA3F37B6202233B6279
:102A34003B6A93FAA3F3FB61294B5B6A0222BA61F6
:102A4400BA6992FAA2F27A617A69B2FA82F2D2B2DD
:102A540042F02002D2B202F01F02012101FA02F276
:102A64001340002B01D1012379E01D4B5B6823F057
:102A740003027B685B681A4913434B60FEF724F931
:102A840078670AE0FEF720F902467B6FD31A41F219
:102A94008832934201D9032361E0114B5B6803F050
:102AA4000C027B685B689B009A42EBD10B4B1B6862
:102AB40003F007033A689A4214D2084B1B6823F0C8
:102AC400070206493B6813430B60044B1B6803F081
:102AD40007033A689A4205D0012340E000200240EF
:102AE400001002407B681B6803F00403002B08D02D
:102AF4001D4B5B6823F4E0627B68DB681A4913436F
:102B04004B607B681B6803F00803002B09D0164B4D
:102B14005B6823F460527B681B69DB001249134332
:102B24004B6000F029F801460F4B5B6803F0F0039B
:102B3400F0223A613A6992FAA2F2FA60FA68B2FAB9
:102B440082F2D2B2D340094AD35C21FA03F3084A91
:102B54001360084B1B681846FEF772F800231846EA
:102B64007837BD4680BD00BF00100240843B00089A
:102B7400000000200400002080B48BB000AF0023CC
:102B8400FB610023BB6100237B6200237B61002384
:102B94003B622A4B5B68FB61FB6903F00C03042B6B
:102BA40002D0082B03D03FE0254B3B623FE0FB699A
:102BB40003F470134FF47012BA60BA6892FAA2F276
:102BC4007A607A68B2FA82F2D2B2D3401D4AD35CF8
:102BD4007B611A4BDB6A03F00F030F223A613A69F7
:102BE40092FAA2F2FA60FA68B2FA82F2D2B2D3404E
:102BF400154AD35CBB61FB6903F48033002B08D016
:102C04000F4ABB69B2FBF3F27B6902FB03F37B62FD
:102C140007E00B4ABB69B2FBF3F27B6902FB03F3E7
:102C24007B627B6A3B6202E0054B3B6200BF3B6A0E
:102C340018462C37BD465DF8047B704700100240EF
:102C440000127A00943B0008A43B000880B584B0CD
:102C540000AF78607B68002B01D101239DE07B6885
:102C64005B6A002B08D17B685B68B3F5827F09D06F
:102C74007B680022DA6105E07B6800221A617B68C8
:102C840000225A617B6800229A627B6893F85D3067
:102C9400DBB2002B06D17B68002283F85C207868C5
:102CA400FDF7EAFE7B68022283F85D207B681B68DF
:102CB4001A687B681B6822F040021A607B68DB6834
:102CC400B3F5E06F02D90023FB6002E04FF48053B8
:102CD400FB607B68DB68B3F5706F07D07B68DB68EB
:102CE400B3F5E06F02D07B6800229A627B685B6870
:102CF40003F482727B689B6803F404431A437B6881
:102D04001B6903F002031A437B685B6903F0010348
:102D14001A437B689B6903F400731A437B68DB697D
:102D240003F038031A437B681B6A03F0800342EA0A
:102D340003017B689B6A03F400527B681B680A43A7
:102D44001A607B689B691B0C03F004027B685B6A56
:102D540003F010031A437B685B6B03F008031A4308
:102D64007B68DB6803F4706342EA0301FB6803F4E5
:102D740080527B681B680A435A607B681B68DA6967
:102D84007B681B6822F40062DA617B6800221A66A1
:102D94007B68012283F85D20002318461037BD4666
:102DA40080BD80B582B000AF78607B68002B01D114
:102DB40001231AE07B68022283F85D207B681B688C
:102DC4001A687B681B6822F040021A607868FDF775
:102DD40097FE7B6800221A667B68002283F85D20D8
:102DE4007B68002283F85C20002318460837BD4620
:102DF40080BD80B588B000AFF860B9603B60134611
:102E0400FB800023FB77FB6893F85C30012B01D136
:102E140002235FE1FB68012283F85C20FDF754FF85
:102E2400B861FB88FB82FB6893F85D30DBB2012B51
:102E340002D00223FB7748E1BB68002B02D0FB8859
:102E4400002B02D10123FB773FE1FB68032283F8C7
:102E54005D20FB6800221A66FB68BA689A63FB6807
:102E6400FA889A87FB68FA88DA87FB6800221A6472
:102E7400FB680022A3F84420FB680022A3F8462044
:102E8400FB6800221A65FB680022DA64FB689B6811
:102E9400B3F5004F0FD1FB681B681A68FB681B6809
:102EA40022F040021A60FB681B681A68FB681B6802
:102EB40042F480421A60FB681B681B6803F04003FD
:102EC400402B07D0FB681B681A68FB681B6842F03C
:102ED40040021A60FB68DB68B3F5E06F4FD9FB680A
:102EE4005B68002B02D0FB8A012B42D1FB689B6BF1
:102EF4001A88FB681B68DA60FB689B6B9A1CFB688A
:102F04009A63FB68DB8F9BB2013B9AB2FB68DA875A
:102F14002FE0FB681B689B6803F00203022B12D1AD
:102F2400FB689B6B1A88FB681B68DA60FB689B6B09
:102F34009A1CFB689A63FB68DB8F9BB2013B9AB2D5
:102F4400FB68DA8715E0FDF7BFFE0246BB69D31ABA
:102F54003A689A4203D83B68B3F1FF3F02D13B6819
:102F6400002B06D10323FB77FB68012283F85D2045
:102F7400ABE0FB68DB8F9BB2002BCAD180E0FB681F
:102F84005B68002B02D0FB8A012B74D1FB68DB8FBA
:102F94009BB2012B12D9FB689B6B1A88FB681B68D8
:102FA400DA60FB689B6B9A1CFB689A63FB68DB8F97
:102FB4009BB2023B9AB2FB68DA875CE0FB689A6BCF
:102FC400FB681B680C3312781A70FB689B6B5A1CE5
:102FD400FB689A63FB68DB8F9BB2013B9AB2FB6888
:102FE400DA8748E0FB681B689B6803F00203022B46
:102FF4002BD1FB68DB8F9BB2012B12D9FB689B6B37
:103004001A88FB681B68DA60FB689B6B9A1CFB6878
:103014009A63FB68DB8F9BB2023B9AB2FB68DA8748
:1030240029E0FB689A6BFB681B680C3312781A70F2
:10303400FB689B6B5A1CFB689A63FB68DB8F9BB233
:10304400013B9AB2FB68DA8715E0FDF73DFE0246C4
:10305400BB69D31A3A689A4203D83B68B3F1FF3F7D
:1030640002D13B68002B06D10323FB77FB680122C6
:1030740083F85D2029E0FB68DB8F9BB2002BB1D184
:10308400BA693968F86800F0F9FC0346002B02D0ED
:10309400FB6820221A66FB689B68002B0AD1002378
:1030A4003B61FB681B68DB683B61FB681B689B68D2
:1030B4003B613B69FB681B6E002B02D00123FB774D
:1030C40003E0FB68012283F85D20FB68002283F89B
:1030D4005C20FB7F18462037BD4680BD80B588B094
:1030E40002AFF860B9603B601346FB800023FB75B8
:1030F400FB6893F85D30DBB2012B02D00223FB7531
:103104001AE1FB685B68B3F5827F12D1FB689B68A8
:10311400002B0ED1FB68042283F85D20FA883B68FB
:1031240000931346BA68B968F86800F00EF90346CC
:1031340007E1FB6893F85C30012B01D1022300E125
:10314400FB68012283F85C20FDF7BEFD3861BB6893
:10315400002B02D0FB88002B02D10123FB75EBE08E
:10316400FB68042283F85D20FB6800221A66FB6872
:10317400BA681A64FB68FA88A3F84420FB68FA88E2
:10318400A3F84620FB6800229A63FB6800229A8712
:10319400FB680022DA87FB680022DA64FB680022FD
:1031A4001A65FB68DB68B3F5E06F08D9FB681B6838
:1031B4005A68FB681B6822F480525A6007E0FB6877
:1031C4001B685A68FB681B6842F480525A60FB68AB
:1031D4009B68B3F5004F0FD1FB681B681A68FB6846
:1031E4001B6822F040021A60FB681B681A68FB68BF
:1031F4001B6822F480421A60FB681B681B6803F09A
:103204004003402B07D0FB681B681A68FB681B68E7
:1032140042F040021A60FB68DB68B3F5E06F6FD8D8
:1032240034E0FB681B689B6803F00103012B17D192
:10323400FB681B6803F10C02FB681B6C1278D2B2AA
:103244001A70FB681B6C5A1CFB681A64FB68B3F8A1
:1032540046309BB2013B9AB2FB68A3F8462015E0C6
:10326400FDF732FD02463B69D31A3A689A4203D805
:103274003B68B3F1FF3F02D13B68002B06D1032327
:10328400FB75FB68012283F85D2055E0FB68B3F809
:1032940046309BB2002BC4D138E0FB681B689B68A6
:1032A40003F00103012B15D1FB681B68DA68FB6886
:1032B4001B6C92B21A80FB681B6C9A1CFB681A6424
:1032C400FB68B3F846309BB2013B9AB2FB68A3F8A3
:1032D400462015E0FDF7F8FC02463B69D31A3A682C
:1032E4009A4203D83B68B3F1FF3F02D13B68002BFD
:1032F40006D10323FB75FB68012283F85D201BE0E4
:10330400FB68B3F846309BB2002BC6D13A693968E2
:10331400F86800F05BFB0346002B02D0FB68202218
:103324001A66FB681B6E002B02D00123FB7503E0B9
:10333400FB68012283F85D20FB68002283F85C208F
:10334400FB7D18461837BD4680BD80B58AB000AFF6
:10335400F860B9607A607B8001237B62002387F880
:103364002330FB6893F85C30012B01D102230AE27D
:10337400FB68012283F85C20FDF7A6FCF861FB687A
:1033840093F85D30FB76FB685B687B617B887B82AE
:103394007B883B82FB7E012B0ED07B69B3F5827F59
:1033A40006D1FB689B68002B02D1FB7E042B03D063
:1033B400022387F82330E0E1BB68002B05D07B684B
:1033C400002B02D07B88002B03D1012387F8233004
:1033D400D3E1FB6893F85D30DBB2042B03D0FB68C8
:1033E400052283F85D20FB6800221A66FB687A6870
:1033F4001A64FB687A88A3F84620FB687A88A3F8E5
:103404004420FB68BA689A63FB687A88DA87FB68A9
:103414007A889A87FB680022DA64FB6800221A65BE
:10342400FB68DB68B3F5E06F02D83B8A012B08D94F
:10343400FB681B685A68FB681B6822F480525A6058
:1034440007E0FB681B685A68FB681B6842F48052FB
:103454005A60FB681B681B6803F04003402B07D0CD
:10346400FB681B681A68FB681B6842F040021A601C
:10347400FB68DB68B3F5E06F40F28180FB685B6852
:10348400002B02D07B8A012B6DD1FB689B6B1A88C1
:10349400FB681B68DA60FB689B6B9A1CFB689A6389
:1034A400FB68DB8F9BB2013B9AB2FB68DA875AE078
:1034B400FB681B689B6803F00203022B1BD1FB68AB
:1034C400DB8F9BB2002B16D07B6A012B13D1FB68D8
:1034D4009B6B1A88FB681B68DA60FB689B6B9A1C01
:1034E400FB689A63FB68DB8F9BB2013B9AB2FB6873
:1034F400DA8700237B62FB681B689B6803F0010387
:10350400012B1CD1FB68B3F846309BB2002B16D0BC
:10351400FB681B68DA68FB681B6C92B21A80FB6854
:103524001B6C9A1CFB681A64FB68B3F846309BB2A8
:10353400013B9AB2FB68A3F8462001237B62FDF7A6
:10354400C3FB0246FB69D31A3A6B9A420BD83B6B16
:10355400B3F1FF3F07D0032387F82330FB68012230
:1035640083F85D2009E1FB68DB8F9BB2002B9FD1C0
:10357400FB68B3F846309BB2002B99D1E3E0FB68BB
:103584005B68002B03D07B8A012B40F0CF80FB6863
:10359400DB8F9BB2012B12D9FB689B6B1A88FB68EB
:1035A4001B68DA60FB689B6B9A1CFB689A63FB6878
:1035B400DB8F9BB2023B9AB2FB68DA87B6E0FB680A
:1035C4009A6BFB681B680C3312781A70FB689B6B50
:1035D4005A1CFB689A63FB68DB8F9BB2013B9AB26F
:1035E400FB68DA87A2E0FB681B689B6803F00203B0
:1035F400022B34D1FB68DB8F9BB2002B2FD07B6A6C
:10360400012B2CD1FB68DB8F9BB2012B12D9FB68F9
:103614009B6B1A88FB681B68DA60FB689B6B9A1CBF
:10362400FB689A63FB68DB8F9BB2023B9AB2FB6830
:10363400DA8712E0FB689A6BFB681B680C3312781C
:103644001A70FB689B6B5A1CFB689A63FB68DB8FE0
:103654009BB2013B9AB2FB68DA8700237B62FB686A
:103664001B689B6803F00103012B48D1FB68B3F886
:1036740046309BB2002B42D0FB68B3F846309BB275
:10368400012B23D9FB681B68DA68FB681B6C92B2B8
:103694001A80FB681B6C9A1CFB681A64FB68B3F8FD
:1036A40046309BB2023B9AB2FB68A3F84620FB6803
:1036B400B3F846309BB2012B1FD8FB681B685A68CD
:1036C400FB681B6842F480525A6016E0FB681B6872
:1036D40003F10C02FB681B6C1278D2B21A70FB68FF
:1036E4001B6C5A1CFB681A64FB68B3F846309BB227
:1036F400013B9AB2FB68A3F8462001237B62FDF7E5
:10370400E3FA0246FB69D31A3A6B9A4203D83B6B3D
:10371400B3F1FF3F02D13B6B002B07D1032387F8A2
:103724002330FB68012283F85D2026E0FB68DB8FF1
:103734009BB2002B7FF457AFFB68B3F846309BB2C3
:10374400002B7FF450AFFA69396BF86800F096F9F2
:103754000346002B05D0012387F82330FB68202281
:103764001A66FB681B6E002B03D0012387F82330F5
:1037740003E0FB68012283F85D20FB68002283F8E4
:103784005C2097F8233018462837BD4680BD0000DA
:1037940080B588B000AFF860B9603B601346FB7138
:1037A400FDF792FA0246BB6A9B1A3A681344FB611E
:1037B400FDF78AFAB861394B1B685B011B0DFA6986
:1037C40002FB03F37B6154E03B68B3F1FF3F50D04D
:1037D400FDF77AFA0246BB69D31AFA699A4202D90A
:1037E400FB69002B3DD1FB681B685A68FB681B68AA
:1037F40022F0E0025A60FB685B68B3F5827F11D166
:10380400FB689B68B3F5004F04D0FB689B68B3F575
:10381400806F07D1FB681B681A68FB681B6822F07D
:1038240040021A60FB689B6AB3F5005F0FD1FB6826
:103834001B681A68FB681B6822F400521A60FB6854
:103844001B681A68FB681B6842F400521A60FB6824
:10385400012283F85D20FB68002283F85C200323A7
:1038640017E07B69002B01D10023FB617B69013BDD
:103874007B61FB681B689A68BB681340BA689A420C
:103884000CBF01230023DBB21A46FB799A429BD179
:10389400002318462037BD4680BD00BF000000202D
:1038A40080B58AB000AFF860B9607A603B600023ED
:1038B400FB75FDF709FA02463B6B9B1A3A68134401
:1038C4007B62FDF701FA3862FB681B680C33FB610D
:1038D4003D4B1A6813469B001344DA00D31A1B0DA0
:1038E4007A6A02FB03F3BB6160E0BB68B3F5C06FA7
:1038F40007D17B68002B04D1FB691B78DBB2FB7515
:10390400FB7D3B68B3F1FF3F50D0FDF7DDF9024684
:103914003B6AD31A7A6A9A4202D97B6A002B3DD158
:10392400FB681B685A68FB681B6822F0E0025A6057
:10393400FB685B68B3F5827F11D1FB689B68B3F5C4
:10394400004F04D0FB689B68B3F5806F07D1FB6818
:103954001B681A68FB681B6822F040021A60FB6847
:103964009B6AB3F5005F0FD1FB681B681A68FB689C
:103974001B6822F400521A60FB681B681A68FB6813
:103984001B6842F400521A60FB68012283F85D2030
:10399400FB68002283F85C20032310E0BB69002B42
:1039A40001D100237B62BB69013BBB61FB681B68DF
:1039B4009A68BB6813407A689A4296D100231846E5
:1039C4002837BD4680BD00BF0000002080B586B00A
:1039D40002AFF860B9607A60FB685B68B3F5827F18
:1039E40011D1FB689B68B3F5004F04D0FB689B685A
:1039F400B3F5806F07D1FB681B681A68FB681B6806
:103A040022F040021A607B680093BB680022802188
:103A1400F868FFF7BDFE0346002B07D0FB681B6E5A
:103A240043F02002FB681A66032323E0FB685B680B
:103A3400B3F5827F1DD1FB689B68B3F5004F04D0BA
:103A4400FB689B68B3F5806F13D17B680093BB68F8
:103A540000224FF4C061F868FFF722FF0346002BF1
:103A640007D0FB681B6E43F02002FB681A66032331
:103A740000E0002318461037BD4680BD80B586B0EF
:103A840002AFF860B9607A607B680093BB6800227B
:103A94004FF4C051F868FFF703FF0346002B07D02B
:103AA400FB681B6E43F02002FB681A66032327E0C1
:103AB4007B680093BB6800228021F868FFF768FEEA
:103AC4000346002B07D0FB681B6E43F02002FB6803
:103AD4001A66032314E07B680093BB6800224FF44A
:103AE400C061F868FFF7DCFE0346002B07D0FB68D3
:103AF4001B6E43F02002FB681A66032300E00023D8
:103B040018461037BD4680BD02440346934200D197
:103B1400704703F8011BF9E770B50D4D0D4C641B9C
:103B2400A4100026A64209D10B4D0C4C00F018F845
:103B3400641BA4100026A64205D170BD55F8043BB1
:103B440098470136EEE755F8043B98470136F2E70B
:103B5400B43B0008B43B0008B43B0008B83B000881
:103B6400F8B500BFF8BC08BC9E467047F8B500BF66
:083B7400F8BC08BC9E46704736
:103B7C000000000000000000000000000000000039
:103B8C0001020304060708090203040506070809D5
:103B9C000A0B0C0D0E0F101001020304050607088A
:083BAC00090A0B0C0D0E0F10AD
:043BB400B90100084B
:043BB800950100086B
:0C3BBC0000127A00100000000100000060
:0400000508000BC51F
:00000001FF
