:020000040800F2
:1000000000000120750B0008F10A0008F90A000839
:10001000010B0008090B0008110B0008000000008C
:10002000000000000000000000000000190B0008A4
:10003000270B000800000000350B0008430B0008E8
:10004000C50B0008C50B0008C50B0008C50B000850
:10005000C50B0008C50B0008C50B0008C50B000840
:10006000C50B0008C50B0008C50B0008C50B000830
:10007000C50B0008C50B0008C50B0008C50B000820
:10008000C50B0008C50B0008C50B0008C50B000810
:10009000C50B0008C50B0008C50B0008C50B000800
:1000A000C50B0008C50B0008C50B0008C50B0008F0
:1000B000C50B0008C50B0008C50B0008C50B0008E0
:1000C000C50B0008C50B0008C50B0008C50B0008D0
:1000D000C50B0008C50B0008C50B0008C50B0008C0
:1000E000C50B0008C50B0008C50B00080000000088
:1000F0000000000000000000000000000000000000
:10010000C50B00080000000000000000C50B00083F
:10011000C50B0008C50B0008C50B00080000000057
:10012000C50B0008C50B0008C50B0008C50B00086F
:10013000C50B0008000000000000000000000000E7
:10014000C50B0008C50B00080000000000000000FF
:10015000000000000000000000000000000000009F
:10016000C50B0008C50B0008C50B0008C50B00082F
:10017000C50B0008C50B0008C50B0008C50B00081F
:10018000C50B0008C50B00080000000000000000BF
:04019000C50B000893
:1001940010B5054C237833B9044B13B10448AFF3BD
:1001A40000800123237010BD0C010020000000001A
:1001B4004C37000808B5034B1BB103490348AFF3A0
:1001C400008008BD00000000100100204C3700082A
:1001D40080B485B000AF78600B467B800023FB8140
:1001E40007E0FB897A68134400221A70FB89013303
:1001F400FB81FA897B889A42F3D300BF00BF14378E
:10020400BD465DF8047B704780B483B000AF78606E
:1002140002E07B68013B7B607B68002BF9D100BF67
:1002240000BF0C37BD465DF8047B704780B487B0CF
:1002340000AFF860B9601346FB800023FB820AE03C
:10024400FB8ABA681A44FB8AF9680B4412781A705C
:10025400FB8A0133FB82FA8AFB889A42F0D300BFFF
:1002640000BF1C37BD465DF8047B704780B500AF06
:1002740001224FF400414FF0904001F089F801222F
:100284000421144801F084F86420FFF7BDFF002224
:100294004FF400414FF0904001F07AF8002204211D
:1002A4000C4801F075F86420FFF7AEFF01224FF40B
:1002B40000414FF0904001F06BF801220421054801
:1002C40001F066F801220821034801F061F800BF3B
:1002D40080BD00BF000C00480004004880B584B015
:1002E40000AF78609023FB60002204210E4801F0E7
:1002F4004FF807F10C01012304220C4802F06DFBB6
:10030400642302227968094802F0DCFC01220421FA
:10031400054801F03DF84FF4FA70FFF775FF00BF90
:100324001037BD4680BD00BF000C00482C020020E1
:1003340080B582B000AF134B05221A700023FB7105
:10034400114802F077FA00220421104801F020F845
:10035400642301220B490C4802F03FFBF91D0123E1
:100364000122094802F0AEFC01220421074801F0F1
:100374000FF8054802F009FBFB7918460837BD461B
:1003840080BD00BF280100202C020020000C004882
:1003940080B582B000AF0346FB710D4802F04AFA03
:1003A400002204210B4800F0F3FFF91D0123012270
:1003B400074802F012FB01220421064800F0E8FF7E
:1003C400034802F0E2FA00BF0837BD4680BD00BF13
:1003D4002C020020000C004880B586B000AFF86005
:1003E400B9601346FB711C4B03221A700323FB757F
:1003F4000AE0FB7DFA68D1B2174AD154FB681B0AA4
:10040400FB60FB7D013BFB75FB7D002BF1D11348A9
:1004140002F010FA00220421114800F0B9FF012370
:1004240004220D490D4802F0D8FAFB799AB20A2346
:10043400B9680A4802F046FC01220421084800F089
:10044400A7FF064802F0A1FA012000F021FC00BF3A
:100454001837BD4680BD00BF280100202C020020B3
:10046400000C004880B586B000AFF860B960134650
:10047400FB804FF482712348FFF7AAFE214B02222E
:100484001A700323FB750AE0FB7DFA68D1B21D4A9A
:10049400D154FB681B0AFB60FB7D013BFB75FB7DB4
:1004A400002BF1D11848FB881A46B968FFF7BEFE45
:1004B400164802F0BFF900220421154800F068FF35
:1004C400FB8804339AB20A230E49104802F085FAD5
:1004D400012204210E4800F05BFF0C4802F055FA9B
:1004E400012000F0D5FBFFF723FF0346BB75BB7D5E
:1004F40003F00303002BF3D100BF00BF1837BD4640
:1005040080BD00BF280100202C0100202C02002007
:10051400000C004880B584B000AF03463960FB711D
:100524000620FFF735FF4FF482711F48FFF750FE96
:100534001D4AFB7913700323FB730AE0FB7B3A68C3
:10054400D1B2194AD1543B681B0A3B60FB7B013B87
:10055400FB73FB7B002BF1D1144802F06BF90022F2
:100564000421134800F014FF012304220E490F480C
:1005740002F033FA012204210D4800F009FF0B4870
:1005840002F003FA012000F083FBFFF7D1FE0346DB
:10059400BB73BB7B03F00303002BF3D100BF00BF8D
:1005A4001037BD4680BD00BF280100202C0200206A
:1005B400000C004880B5C8B000AF07F59073A3F5F0
:1005C4008A7318464FF480731A46002103F090F89A
:1005D4000023C7F81C314FF4A023C7F80C310023C3
:1005E400C7F8183107F59073A3F2151300221A7097
:1005F40000F0E8FA00F0E4F800F05CF900F01CF90F
:10060400FFF734FE07F108031846FFF767FE66207C
:10061400FFF7BEFE9920FFF7BBFE9820FFF7B8FE58
:100624000021D820FFF776FF4FF48031D820FFF760
:1006340071FF4FF400312020FFF76CFF0023C7F84F
:100644001831002387F8173114E00620FFF7A0FEC5
:100654004FF480725949D7F81801FFF703FFD7F810
:10066400183103F58073C7F8183197F8173101333F
:1006740087F8173197F81731032BE6D907F59073EC
:10068400A3F21913AA221A70FB1D012219464FF472
:100694000030FFF7E7FE4FF40033C7F8183107F1D5
:1006A4000B03012219464FF40030FFF795FE07F5BE
:1006B4009073A3F215131B78AA2B00D06AE00023D1
:1006C400C7F81C31002387F8163115E097F8163166
:1006D40007F10C029B00134404221946D7F81C01AD
:1006E400FFF77AFED7F81C310433C7F81C3197F8AA
:1006F4001631013387F8163197F816313F2BE5D9B7
:1007040007F10C034FF480711846FFF761FD0023D5
:1007140087F8153115E097F8153107F10C029B00A5
:10072400134404221946D7F81C01FFF755FED7F8E5
:100734001C310433C7F81C3197F81531013387F89D
:10074400153197F815313F2BE5D907F10C034FF418
:1007540080711846FFF73CFD002387F8143115E03B
:1007640097F8143107F10C029B0013440422194634
:10077400D7F81C01FFF730FED7F81C310433C7F853
:100784001C3197F81431013387F8143197F8143178
:100794003F2BE5D9002387F8133107E0642000F0EC
:1007A40077FA97F81331013387F8133197F8133137
:1007B400142BF3D900F000F9ECE700BF000000208F
:1007C40080B590B000AF07F1180328220021184625
:1007D40002F08EFF3B1D00221A605A609A60DA60B4
:1007E4001A610223BB6101237B621023BB620023D5
:1007F4003B6307F11803184600F0E2FD0346002BA3
:1008040001D000F0E7F80F237B600023BB600023D6
:10081400FB6000233B6100237B613B1D00211846E4
:1008240001F022FE0346002B01D000F0D3F800BFF4
:100834004037BD4680BD000080B500AF1B4B1C4A4D
:100844001A601A4B4FF482725A60184B00229A6055
:10085400164B4FF4E062DA60144B00221A61134B1A
:1008640000225A61114B4FF400729A610F4B10220F
:10087400DA610E4B00221A620C4B00225A620B4BB7
:1008840000229A62094B0722DA62084B00221A639B
:10089400064B08225A63054801F0CCFF0346002B9F
:1008A40001D000F097F800BF80BD00BF2C020020EB
:1008B400003C004080B58AB000AF07F11403002269
:1008C4001A605A609A60DA601A61384B5B69374A79
:1008D40043F400335361354B5B6903F400333B61EC
:1008E4003B69324B5B69314A43F4002353612F4B1C
:1008F4005B6903F40023FB60FB682C4B5B692B4AA8
:1009040043F480135361294B5B6903F48013BB6088
:10091400BB68264B5B69254A43F480235361234B10
:100924005B6903F480237B607B6800224FF4004101
:100934004FF0904000F02CFD002204211C4800F0F0
:1009440027FD002208211B4800F022FD4FF400433C
:100954007B610123BB610023FB6100233B6207F140
:10096400140319464FF0904000F09CFA04237B6175
:100974000123BB610023FB6100233B6207F11403E5
:1009840019460B4800F08EFA08237B610123BB61F2
:100994000023FB6100233B6207F114031946054859
:1009A40000F080FA00BF2837BD4680BD0010024029
:1009B400000C00480004004880B582B000AF044B2E
:1009C4001B687B607B68984700BF0837BD4680BDC5
:1009D4000400050880B400AF72B600BF00BFFDE795
:1009E40080B483B000AF0F4B9B690E4A43F0010300
:1009F40093610C4B9B6903F001037B607B68094B9B
:100A0400DB69084A43F08053D361064BDB6903F08A
:100A140080533B603B6800BF0C37BD465DF8047BE8
:100A2400704700BF0010024080B58AB000AF786004
:100A340007F1140300221A605A609A60DA601A619E
:100A44007B681B68174A934228D1174BDB69164A07
:100A540043F40043D361144BDB6903F400433B616B
:100A64003B69114B5B69104A43F4002353610E4BFD
:100A74005B6903F40023FB60FB684FF4E0537B6184
:100A84000223BB610023FB6103233B6206237B62D9
:100A940007F114031946054800F004FA00BF28378B
:100AA400BD4680BD003C00400010024000080048E4
:100AB40080B582B000AF78607B681B68084A9342B7
:100AC4000AD1084BDB69074A23F40043D3614FF48E
:100AD400E051054800F070FB00BF0837BD4680BDFB
:100AE400003C0040001002400008004880B400AF01
:100AF40000BFFDE780B400AF00BFFDE780B400AFE6
:100B040000BFFDE780B400AF00BFFDE780B400AFD5
:100B140000BFFDE780B400AF00BFBD465DF8047BB5
:100B2400704780B400AF00BFBD465DF8047B7047DA
:100B340080B400AF00BFBD465DF8047B704780B54C
:100B440000AF00F085F800BF80BD000080B400AFA6
:100B5400064BD3F88830054A43F47003C2F8883052
:100B640000BFBD465DF8047B704700BF00ED00E0A8
:100B7400DFF834D0FFF7EAFF0C480D490D4A002393
:100B840002E0D458C4500433C4188C42F9D30A4A3E
:100B94000A4C002301E013600432A242FBD302F0AA
:100BA400AFFDFFF707FDFEE7000001200000002075
:100BB4000C0100209C3700080C0100209402002046
:100BC400FEE7000080B500AF084B1B68074A43F0FE
:100BD40010031360032000F031F90F2000F008F82F
:100BE400FFF7FEFE0023184680BD00BF0020024030
:100BF40080B582B000AF7860124B1A68124B1B7834
:100C040019464FF47A73B3FBF1F3B2FBF3F31846CE
:100C140000F03BF90346002B01D001230EE07B6872
:100C24000F2B0AD8002279684FF0FF3000F011F939
:100C3400064A7B681360002300E001231846083746
:100C4400BD4680BD000100200801002004010020F1
:100C540080B400AF064B1B781A46064B1B6813443E
:100C6400044A136000BFBD465DF8047B704700BFB3
:100C7400080100209002002080B400AF034B1B68E1
:100C84001846BD465DF8047B704700BF9002002003
:100C940080B584B000AF7860FFF7EEFFB8607B6882
:100CA400FB60FB68B3F1FF3F05D00A4B1B781A4683
:100CB400FB681344FB6000BFFFF7DEFF0246BB681E
:100CC400D31AFA689A42F7D800BF00BF1037BD465E
:100CD40080BD00BF0801002080B485B000AF7860FB
:100CE4007B6803F00703FB600C4BDB68BB60BA68EE
:100CF4004FF6FF031340BB60FB681A02BB68134343
:100D040043F0BF6343F40033BB60044ABB68D36061
:100D140000BF1437BD465DF8047B704700ED00E06A
:100D240080B400AF044BDB681B0A03F007031846CA
:100D3400BD465DF8047B704700ED00E080B483B0ED
:100D440000AF03463960FB7197F90730002B0ADBCB
:100D54003B68DAB20C4997F907301201D2B20B445E
:100D640083F800230AE03B68DAB20849FB7903F010
:100D74000F03043B1201D2B20B441A7600BF0C37A6
:100D8400BD465DF8047B704700E100E000ED00E043
:100D940080B489B000AFF860B9607A60FB6803F092
:100DA4000703FB61FB69C3F10703042B28BF04237A
:100DB400BB61FB690433062B02D9FB69033B00E0EA
:100DC40000237B614FF0FF32BB6902FA03F3DA437D
:100DD400BB681A407B699A404FF0FF317B6901FA86
:100DE40003F3D9437B680B40134318462437BD46AD
:100DF4005DF8047B7047000080B582B000AF786076
:100E04007B68013BB3F1807F01D301230FE00A4AE1
:100E14007B68013B53600F214FF0FF30FFF78EFFDB
:100E2400054B00229A60044B07221A6000231846DF
:100E34000837BD4680BD00BF10E000E080B582B039
:100E440000AF78607868FFF747FF00BF0837BD46FA
:100E540080BD80B586B000AF0346B9607A60FB738D
:100E640000237B61FFF75CFF78617A68B968786971
:100E7400FFF78EFF024697F90F3011461846FFF729
:100E84005DFF00BF1837BD4680BD80B582B000AF9E
:100E940078607868FFF7B0FF034618460837BD4608
:100EA40080BD000080B487B000AF78603960002353
:100EB4007B6160E13B681A6801217B6901FA03F3F5
:100EC4001340FB60FB68002B00F052813B685B68B9
:100ED40003F00303012B05D03B685B6803F00303B5
:100EE400022B30D17B689B683B617B695B000322EA
:100EF40002FA03F3DB433A6913403B613B68DA6867
:100F04007B695B0002FA03F33A6913433B617B6834
:100F14003A699A607B685B683B6101227B6902FAEB
:100F240003F3DB433A6913403B613B685B681B098D
:100F340003F001027B6902FA03F33A6913433B614C
:100F44007B683A695A603B685B6803F00303032BD0
:100F540017D07B68DB683B617B695B00032202FA84
:100F640003F3DB433A6913403B613B689A687B694E
:100F74005B0002FA03F33A6913433B617B683A6905
:100F8400DA603B685B6803F00303022B23D17B69BF
:100F9400DA087B68083253F822303B617B6903F03E
:100FA40007039B000F2202FA03F3DB433A69134061
:100FB4003B613B681A697B6903F007039B0002FAF3
:100FC40003F33A6913433B617B69DA087B680832AF
:100FD400396943F822107B681B683B617B695B00BD
:100FE400032202FA03F3DB433A6913403B613B6893
:100FF4005B6803F003027B695B0002FA03F33A695E
:1010040013433B617B683A691A603B685B6803F48D
:101014004033002B00F0AC805E4B9B695D4A43F08B
:10102400010393615B4B9B6903F00103BB60BB68E5
:10103400594A7B699B08023352F823303B617B6930
:1010440003F003039B000F2202FA03F3DB433A6924
:1010540013403B617B68B3F1904F25D07B684F4AC6
:1010640093421FD07B684E4A934219D07B684D4A05
:10107400934213D07B684C4A93420DD07B684B4A11
:10108400934207D07B684A4A934201D106230CE07D
:1010940007230AE0052308E0042306E0032304E011
:1010A400022302E0012300E000237A6902F0030234
:1010B400920093403A6913433B6137497B699B082B
:1010C40002333A6941F823203A4B9B683B61FB6841
:1010D400DB433A6913403B613B685B6803F480136C
:1010E400002B03D03A69FB6813433B61314A3B69E7
:1010F4009360304BDB683B61FB68DB433A69134028
:101104003B613B685B6803F40013002B03D03A692E
:10111400FB6813433B61274A3B69D360254B5B68FB
:101124003B61FB68DB433A6913403B613B685B68A6
:1011340003F40033002B03D03A69FB6813433B618B
:101144001C4A3B6953601B4B1B683B61FB68DB43D8
:101154003A6913403B613B685B6803F48033002BBE
:1011640003D03A69FB6813433B61124A3B6913603D
:101174007B6901337B613B681A687B6922FA03F35C
:10118400002B7FF497AE00BF00BF1C37BD465DF84F
:10119400047B704700100240000001400004004836
:1011A40000080048000C00480010004800140048E3
:1011B400001800480004014080B487B000AF786094
:1011C400396000237B61C4E001227B6902FA03F3E6
:1011D4003A6813403B613B69002B00F0B780644AD6
:1011E4007B699B08023352F82330FB607B6903F070
:1011F40003039B000F2202FA03F3FA681340FB6017
:101204007B68B3F1904F25D07B685A4A93421FD034
:101214007B68594A934219D07B68584A934213D049
:101224007B68574A93420DD07B68564A934207D055
:101234007B68554A934201D106230CE007230AE058
:10124400052308E0042306E0032304E0022302E06C
:10125400012300E000237A6902F003029200934024
:10126400FA689A4232D1494B1A683B69DB434749D1
:1012740013400B60454B5A683B69DB4343491340B9
:101284004B60424BDA683B69DB4340491340CB6017
:101294003E4B9A683B69DB433C4913408B607B6956
:1012A40003F003039B000F2202FA03F3FB60304AAE
:1012B4007B699B08023352F82310FB68DA432C48FD
:1012C4007B699B080A40023340F823207B681A6834
:1012D4007B695B00032101FA03F3DB431A407B685B
:1012E4001A607B69DA087B68083253F822107B693C
:1012F40003F007039B000F2202FA03F3DB437A692E
:10130400D20819407B68083243F822107B68DA68F7
:101314007B695B00032101FA03F3DB431A407B681A
:10132400DA607B685A6801217B6901FA03F3DB43C5
:101334001A407B685A607B689A687B695B0003216A
:1013440001FA03F3DB431A407B689A607B6901333B
:101354007B613A687B6922FA03F3002B7FF434AF94
:1013640000BF00BF1C37BD465DF8047B704700BF5B
:10137400000001400004004800080048000C004838
:101384000010004800140048001800480004014000
:1013940080B483B000AF78600B467B8013467B70CB
:1013A4007B78002B03D07A887B689A6102E07A8884
:1013B4007B689A6200BF0C37BD465DF8047B7047BA
:1013C40080B5ADF5027D00AF07F50273A3F5017397
:1013D400186007F50273A3F501731B68002B02D193
:1013E400012301F03AB807F50273A3F501731B68F2
:1013F4001B6803F00103002B00F06F81B54B5B68A1
:1014040003F00C03042B0CD0B24B5B6803F00C0309
:10141400082B5CD1AF4B5B6803F4C033B3F5803F5A
:1014240055D14FF40033C7F8F431D7F8F43193FAB7
:10143400A3F3C7F8F031D7F8F031B3FA83F3DBB292
:101444005B09DBB243F00103DBB2012B02D1A14BF8
:101454001B6815E04FF40033C7F8EC31D7F8EC31D2
:1014640093FAA3F3C7F8E8314FF40033C7F8E43133
:10147400D7F8E43193FAA3F3C7F8E031954B5B6AEC
:101484004FF40032C7F8DC21D7F8DC2192FAA2F23B
:10149400C7F8D821D7F8D821B2FA82F2D2B242F0F2
:1014A4002002D2B202F01F02012101FA02F213401B
:1014B400002B00F0118107F50273A3F501731B687B
:1014C4005B68002B40F00881012300F0C6BF07F5DC
:1014D4000273A3F501731B685B68B3F5803F06D103
:1014E4007C4B1B687B4A43F48033136036E007F57A
:1014F4000273A3F501731B685B68002B0CD1754B59
:101504001B68744A23F480331360724B1B68714A5E
:1015140023F48023136021E007F50273A3F501731C
:101524001B685B68B3F5A02F0CD16A4B1B68694A32
:1015340043F480231360674B1B68664A43F480338B
:1015440013600BE0634B1B68624A23F4803313601F
:10155400604B1B685F4A23F48023136007F5027312
:10156400A3F501731B685B68002B59D0FFF784FB5C
:10157400C7F800020AE0FFF77FFB0246D7F8003203
:10158400D31A642B02D9032300F067BF4FF400334E
:10159400C7F8D431D7F8D43193FAA3F3C7F8D031CC
:1015A400D7F8D031B3FA83F3DBB25B09DBB243F093
:1015B4000103DBB2012B02D1464B1B6815E04FF44B
:1015C4000033C7F8CC31D7F8CC3193FAA3F3C7F87A
:1015D400C8314FF40033C7F8C431D7F8C43193FA93
:1015E400A3F3C7F8C0313B4B5B6A4FF40032C7F832
:1015F400BC21D7F8BC2192FAA2F2C7F8B821D7F8D7
:10160400B821B2FA82F2D2B242F02002D2B202F08F
:101614001F02012101FA02F21340002BABD05CE05F
:10162400FFF72AFBC7F800020AE0FFF725FB024692
:10163400D7F80032D31A642B02D9032300F00DBF6C
:101644004FF40033C7F8B431D7F8B43193FAA3F3A5
:10165400C7F8B031D7F8B031B3FA83F3DBB25B0922
:10166400DBB243F00103DBB2012B02D1194B1B683F
:1016740015E04FF40033C7F8AC31D7F8AC3193FA26
:10168400A3F3C7F8A8314FF40033C7F8A431D7F84F
:10169400A43193FAA3F3C7F8A0310E4B5B6A4FF45D
:1016A4000032C7F89C21D7F89C2192FAA2F2C7F81D
:1016B4009821D7F89821B2FA82F2D2B242F02002ED
:1016C400D2B202F01F02012101FA02F21340002BF0
:1016D400ABD102E00010024000BF07F50273A3F58E
:1016E40001731B681B6803F00203002B00F07F8169
:1016F400A74B5B6803F00C03002B0CD0A44B5B6876
:1017040003F00C03082B73D1A14B5B6803F4C033C3
:10171400B3F5004F6CD10223C7F89431D7F8943154
:1017240093FAA3F3C7F89031D7F89031B3FA83F35F
:10173400DBB25B09DBB243F00103DBB2012B02D164
:10174400934B1B6813E00223C7F88C31D7F88C3114
:1017540093FAA3F3C7F888310223C7F88431D7F882
:10176400843193FAA3F3C7F88031894B5B6A022270
:10177400C7F87C21D7F87C2192FAA2F2C7F8782125
:10178400D7F87821B2FA82F2D2B242F02002D2B271
:1017940002F01F02012101FA02F21340002B0AD0C9
:1017A40007F50273A3F501731B68DB68012B02D0F4
:1017B400012300F052BE764B1B6823F0F80207F5B4
:1017C4000273A3F501731B681B69F821C7F8741130
:1017D400D7F8741191FAA1F1C7F87011D7F8701104
:1017E400B1FA81F1C9B28B40694913430B60FEE041
:1017F40007F50273A3F501731B68DB68002B00F087
:1018040088800123C7F86C31D7F86C3193FAA3F3BD
:10181400C7F86831D7F86831B3FA83F3DBB203F160
:10182400845303F584139B001A4601231360FFF7C6
:1018340023FAC7F800020AE0FFF71EFA0246D7F8B7
:101844000032D31A022B02D9032300F006BE02236E
:10185400C7F86431D7F8643193FAA3F3C7F8603159
:10186400D7F86031B3FA83F3DBB25B09DBB243F040
:101874000103DBB2012B02D1454B1B6813E00223A9
:10188400C7F85C31D7F85C3193FAA3F3C7F8583141
:101894000223C7F85431D7F8543193FAA3F3C7F8A5
:1018A40050313B4B5B6A0222C7F84C21D7F84C21DC
:1018B40092FAA2F2C7F84821D7F84821B2FA82F284
:1018C400D2B242F02002D2B202F01F02012101FA88
:1018D40002F21340002BAFD02D4B1B6823F0F8020B
:1018E40007F50273A3F501731B681B69F821C7F898
:1018F4004411D7F8441191FAA1F1C7F84011D7F86F
:101904004011B1FA81F1C9B28B40214913430B60F4
:101914006DE00123C7F83C31D7F83C3193FAA3F3C7
:10192400C7F83831D7F83831B3FA83F3DBB203F1AF
:10193400845303F584139B001A4600231360FFF7B6
:101944009BF9C7F800020AE0FFF796F90246D7F8B8
:101954000032D31A022B02D9032300F07EBD0223E6
:10196400C7F83431D7F8343193FAA3F3C7F83031D8
:10197400D7F83031B3FA83F3DBB25B09DBB243F05F
:101984000103DBB2012B05D1014B1B6816E000BF3C
:10199400001002400223C7F82C31D7F82C3193FAF7
:1019A400A3F3C7F828310223C7F82431D7F8243128
:1019B40093FAA3F3C7F82031BF4B5B6A0222C7F83E
:1019C4001C21D7F81C2192FAA2F2C7F81821D7F8E3
:1019D4001821B2FA82F2D2B242F02002D2B202F05C
:1019E4001F02012101FA02F21340002BACD107F5CA
:1019F4000273A3F501731B681B6803F00803002B33
:101A040000F0138107F50273A3F501731B685B698A
:101A1400002B7CD00123C7F81431D7F8143193FA82
:101A2400A3F3C7F81031D7F81031B3FA83F3DBB25C
:101A34001A46A24B13449B001A4601231360FFF776
:101A44001BF9C7F800020AE0FFF716F90246D7F8B7
:101A54000032D31A022B02D9032300F0FEBC022366
:101A6400C7F80C31D7F80C3193FAA3F207F50273D7
:101A7400A3F580731A6007F50273A3F5827302223B
:101A84001A6007F50273A3F582731B6893FAA3F235
:101A940007F50273A3F584731A6007F50273A3F5BF
:101AA400867302221A6007F50273A3F586731B6816
:101AB40093FAA3F207F50273A3F588731A607E4BB9
:101AC4005A6A07F50273A3F58A730221196007F5B0
:101AD4000273A3F58A731B6893FAA3F107F50273E3
:101AE400A3F58C73196007F50273A3F58C731B6857
:101AF400B3FA83F3DBB243F06003DBB203F01F03FA
:101B0400012101FA03F31340002B9DD08DE007F56A
:101B14000273A3F58E7301221A6007F50273A3F50D
:101B24008E731B6893FAA3F207F50273A3F59073FF
:101B34001A6007F50273A3F590731B68B3FA83F375
:101B4400DBB21A465D4B13449B001A460023136014
:101B5400FFF792F8C7F800020AE0FFF78DF8024693
:101B6400D7F80032D31A022B02D9032300F075BC34
:101B740007F50273A3F5927302221A6007F5027344
:101B8400A3F592731B6893FAA3F207F50273A3F506
:101B940094731A6007F50273A3F5967302221A6010
:101BA40007F50273A3F596731B6893FAA3F207F57E
:101BB4000273A3F598731A6007F50273A3F59A7379
:101BC40002221A6007F50273A3F59A731B6893FA4D
:101BD400A3F207F50273A3F59C731A60364B5A6A95
:101BE40007F50273A3F59E730221196007F50273CA
:101BF400A3F59E731B6893FAA3F107F50273A3F58B
:101C0400A073196007F50273A3F5A0731B68B3FAF8
:101C140083F3DBB243F06003DBB203F01F03012163
:101C240001FA03F31340002B97D107F50273A3F5D0
:101C340001731B681B6803F00403002B00F0A581EB
:101C4400002387F807321C4BDB6903F08053002B19
:101C540016D1194BDB69184A43F08053D361164BF4
:101C6400DB6903F0805207F50273A3F5FE731A6073
:101C740007F50273A3F5FE731B68012387F8073287
:101C84000F4B1B6803F48073002B21D10C4B1B6892
:101C94000B4A43F480731360FEF7EEFFC7F80002AB
:101CA40010E0FEF7E9FF0246D7F80032D31A642B9E
:101CB40008D90323D1E300BF001002402081901013
:101CC400007000408D4B1B6803F48073002BE8D038
:101CD40007F50273A3F501731B689B68012B06D1FA
:101CE400874B1B6A864A43F00103136235E007F50C
:101CF4000273A3F501731B689B68002B0CD1804B06
:101D04001B6A7F4A23F0010313627D4B1B6A7C4AE2
:101D140023F00403136220E007F50273A3F50173B3
:101D24001B689B68052B0CD1754B1B6A744A43F0E6
:101D340004031362724B1B6A714A43F0010313627A
:101D44000BE06F4B1B6A6E4A23F0010313626C4B6A
:101D54001B6A6B4A23F00403136207F50273A3F5AD
:101D640001731B689B68002B00F08180FEF784FFE1
:101D7400C7F800020BE0FEF77FFF0246D7F80032F7
:101D8400D31A41F28832934201D9032365E307F55C
:101D94000273A3F5A27302221A6007F50273A3F576
:101DA400A2731B6893FAA3F207F50273A3F5A47355
:101DB4001A6007F50273A3F5A67302221A6007F5E9
:101DC4000273A3F5A6731B6893FAA3F207F50273D3
:101DD400A3F5A8731A6007F50273A3F5A8731B682B
:101DE400B3FA83F3DBB25B09DBB243F00203DBB289
:101DF400022B02D1424B1B6A13E007F50273A3F5D1
:101E0400AA7302221A6007F50273A3F5AA731B686A
:101E140093FAA3F207F50273A3F5AC731A60384B77
:101E24005B6A07F50272A2F5AE720221116007F532
:101E34000272A2F5AE72126892FAA2F107F502726A
:101E4400A2F5B072116007F50272A2F5B0721268C1
:101E5400B2FA82F2D2B242F04002D2B202F01F02CF
:101E6400012101FA02F21340002B84D083E0FEF733
:101E740003FFC7F800020BE0FEF7FEFE0246D7F8A8
:101E84000032D31A41F28832934201D90323E4E2A7
:101E940007F50273A3F5B27302221A6007F5027301
:101EA400A3F5B2731B6893FAA3F207F50273A3F5C3
:101EB400B4731A6007F50273A3F5B67302221A60AD
:101EC40007F50273A3F5B6731B6893FAA3F207F53B
:101ED4000273A3F5B8731A6007F50273A3F5B87318
:101EE4001B68B3FA83F3DBB25B09DBB243F0020392
:101EF400DBB2022B06D1024B1B6A17E000700040D4
:101F04000010024007F50273A3F5BA7302221A60A7
:101F140007F50273A3F5BA731B6893FAA3F207F5E6
:101F24000273A3F5BC731A60B34B5B6A07F50272C4
:101F3400A2F5BE720221116007F50272A2F5BE720B
:101F4400126892FAA2F107F50272A2F5C07211604A
:101F540007F50272A2F5C0721268B2FA82F2D2B226
:101F640042F04002D2B202F01F02012101FA02F251
:101F74001340002B80D197F80732012B05D19E4BDB
:101F8400DB699D4A23F08053D36107F50273A3F5FF
:101F940001731B689B69002B00F05E82964B5B68A3
:101FA40003F00C03082B00F01F8207F50273A3F55E
:101FB40001731B689B69022B40F0708107F5027363
:101FC400A3F5C2734FF080721A6007F50273A3F58C
:101FD400C2731B6893FAA3F207F50273A3F5C473E3
:101FE4001A6007F50273A3F5C4731B68B3FA83F38D
:101FF400DBB203F1845303F584139B001A460023D8
:102004001360FEF739FEC7F8000209E0FEF734FE5C
:102014000246D7F80032D31A022B01D903231CE25B
:1020240007F50273A3F5C6734FF000721A6007F543
:102034000273A3F5C6731B6893FAA3F207F5027340
:10204400A3F5C8731A6007F50273A3F5C8731B6878
:10205400B3FA83F3DBB25B09DBB243F00103DBB217
:10206400012B02D1644B1B6827E007F50273A3F52B
:10207400CA734FF000721A6007F50273A3F5CA73AE
:102084001B6893FAA3F207F50273A3F5CC731A60E5
:1020940007F50273A3F5CE734FF000721A6007F5CB
:1020A4000273A3F5CE731B6893FAA3F207F50273C8
:1020B400A3F5D0731A60504B5B6A07F50272A2F560
:1020C400D2724FF00071116007F50272A2F5D2725C
:1020D400126892FAA2F107F50272A2F5D4721160A5
:1020E40007F50272A2F5D4721268B2FA82F2D2B281
:1020F40042F02002D2B202F01F02012101FA02F2E0
:102104001340002B82D13C4BDB6A23F00F0207F50E
:102114000273A3F501731B685B6A37491343CB62EF
:10212400354B5B6823F4761207F50273A3F501734C
:102134001B68196A07F50273A3F501731B68DB6951
:102144000B432D4913434B6007F50273A3F5D67374
:102154004FF080721A6007F50273A3F5D6731B68FB
:1021640093FAA3F207F50273A3F5D8731A6007F57F
:102174000273A3F5D8731B68B3FA83F3DBB203F1DC
:10218400845303F584139B001A4601231360FEF75E
:1021940073FDC7F8000209E0FEF76EFD0246D7F8AA
:1021A4000032D31A022B01D9032356E107F5027337
:1021B400A3F5DA734FF000721A6007F50273A3F502
:1021C400DA731B6893FAA3F207F50273A3F5DC73C1
:1021D4001A6007F50273A3F5DC731B68B3FA83F383
:1021E400DBB25B09DBB243F00103DBB2012B05D1A7
:1021F400014B1B682AE000BF0010024007F5027380
:10220400A3F5DE734FF000721A6007F50273A3F5AD
:10221400DE731B6893FAA3F207F50273A3F5E07368
:102224001A6007F50273A3F5E2734FF000721A60A7
:1022340007F50273A3F5E2731B6893FAA3F207F59B
:102244000273A3F5E4731A60864B5B6A07F50272A6
:10225400A2F5E6724FF00071116007F50272A2F563
:10226400E672126892FAA2F107F50272A2F5E87218
:10227400116007F50272A2F5E8721268B2FA82F2EE
:10228400D2B242F02002D2B202F01F02012101FABE
:1022940002F21340002B3FF47FAFDDE007F5027339
:1022A400A3F5EA734FF080721A6007F50273A3F581
:1022B400EA731B6893FAA3F207F50273A3F5EC73B0
:1022C4001A6007F50273A3F5EC731B68B3FA83F382
:1022D400DBB203F1845303F584139B001A460023F5
:1022E4001360FEF7C9FCC7F8000209E0FEF7C4FC5E
:1022F4000246D7F80032D31A022B01D90323ACE0EB
:1023040007F50273A3F5EE734FF000721A6007F538
:102314000273A3F5EE731B6893FAA3F207F5027335
:10232400A3F5F0731A6007F50273A3F5F0731B6845
:10233400B3FA83F3DBB25B09DBB243F00103DBB234
:10234400012B02D1474B1B6827E007F50273A3F565
:10235400F2734FF000721A6007F50273A3F5F2737B
:102364001B6893FAA3F207F50273A3F5F4731A60DA
:1023740007F50273A3F5F6734FF000721A6007F5C0
:102384000273A3F5F6731B6893FAA3F207F50273BD
:10239400A3F5F8731A60334B5B6A07F50272A2F572
:1023A400FA724FF00071116007F50272A2F5FA7229
:1023B400126892FAA2F107F50272A2F5FC7211609A
:1023C40007F50272A2F5FC721268B2FA82F2D2B276
:1023D40042F02002D2B202F01F02012101FA02F2FD
:1023E4001340002B82D137E007F50273A3F5017384
:1023F4001B689B69012B01D101232EE0194B5B68FB
:10240400C7F8FC31174BDB6AC7F8F831D7F8FC3151
:1024140003F4C03207F50273A3F501731B68DB698B
:102424009A4217D1D7F8FC3103F4701207F50273FE
:10243400A3F501731B681B6A9A420BD1D7F8F831D4
:1024440003F00F0207F50273A3F501731B685B6ABF
:102454009A4201D0012300E00023184607F50277D1
:10246400BD4680BD0010024080B59EB000AF7860CC
:10247400396000237B677B68002B01D1012362E173
:10248400904B1B6803F007033A689A4210D98D4BAE
:102494001B6823F007028B493B6813430B60894B8D
:1024A4001B6803F007033A689A4201D001234AE10A
:1024B4007B681B6803F00203002B08D0824B5B6827
:1024C40023F0F0027B689B687F4913434B607B6871
:1024D4001B6803F00103002B00F0DC807B685B6861
:1024E400012B3CD14FF400333B673B6F93FAA3F3CA
:1024F400FB66FB6EB3FA83F3DBB25B09DBB243F03A
:102504000103DBB2012B02D16F4B1B680FE04FF4C8
:102514000033BB66BB6E93FAA3F37B664FF40033C0
:102524003B663B6E93FAA3F3FB65674B5B6A4FF420
:102534000032BA65BA6D92FAA2F27A657A6DB2FA8D
:1025440082F2D2B242F02002D2B202F01F02012182
:1025540001FA02F21340002B7BD10123F3E07B68E4
:102564005B68022B3CD14FF000733B653B6D93FAE3
:10257400A3F3FB64FB6CB3FA83F3DBB25B09DBB25A
:1025840043F00103DBB2012B02D14F4B1B680FE078
:102594004FF00073BB64BB6C93FAA3F37B644FF0FE
:1025A40000733B643B6C93FAA3F3FB63464B5B6A97
:1025B4004FF00072BA63BA6B92FAA2F27A637A6B42
:1025C400B2FA82F2D2B242F02002D2B202F01F0278
:1025D400012101FA02F21340002B3AD10123B2E0A7
:1025E40002233B633B6B93FAA3F3FB62FB6AB3FAEC
:1025F40083F3DBB25B09DBB243F00103DBB2012BF3
:1026040002D1314B1B680DE00223BB62BB6A93FA13
:10261400A3F37B6202233B623B6A93FAA3F3FB615D
:10262400294B5B6A0222BA61BA6992FAA2F27A6110
:102634007A69B2FA82F2D2B242F02002D2B202F045
:102644001F02012101FA02F21340002B01D10123E0
:1026540079E01D4B5B6823F003027B685B681A49D1
:1026640013434B60FEF708FB78670AE0FEF704FBB0
:1026740002467B6FD31A41F28832934201D9032375
:1026840061E0114B5B6803F00C027B685B689B00A4
:102694009A42EBD10B4B1B6803F007033A689A424A
:1026A40014D2084B1B6823F0070206493B68134306
:1026B4000B60044B1B6803F007033A689A4205D089
:1026C400012340E000200240001002407B681B68A8
:1026D40003F00403002B08D01D4B5B6823F4E06275
:1026E4007B68DB681A4913434B607B681B6803F003
:1026F4000803002B09D0164B5B6823F460527B68F7
:102704001B69DB00124913434B6000F029F80146B2
:102714000F4B5B6803F0F003F0223A613A6992FAD6
:10272400A2F2FA60FA68B2FA82F2D2B2D340094A4B
:10273400D35C21FA03F3084A1360084B1B6818465C
:10274400FEF756FA002318467837BD4680BD00BF11
:10275400001002406437000800010020040100203A
:1027640080B48BB000AF0023FB610023BB61002366
:102774007B6200237B6100233B622A4B5B68FB6125
:10278400FB6903F00C03042B02D0082B03D03FE0B9
:10279400254B3B623FE0FB6903F470134FF4701266
:1027A400BA60BA6892FAA2F27A607A68B2FA82F2ED
:1027B400D2B2D3401D4AD35C7B611A4BDB6A03F06F
:1027C4000F030F223A613A6992FAA2F2FA60FA68A8
:1027D400B2FA82F2D2B2D340154AD35CBB61FB6930
:1027E40003F48033002B08D00F4ABB69B2FBF3F229
:1027F4007B6902FB03F37B6207E00B4ABB69B2FB14
:10280400F3F27B6902FB03F37B627B6A3B6202E0C7
:10281400054B3B6200BF3B6A18462C37BD465DF84A
:10282400047B70470010024000127A0074370008DD
:102834008437000880B584B000AF78607B68002BD3
:1028440001D101239DE07B685B6A002B08D17B6882
:102854005B68B3F5827F09D07B680022DA6105E00A
:102864007B6800221A617B6800225A617B6800221F
:102874009A627B6893F85D30DBB2002B06D17B68EB
:10288400002283F85C207868FEF7CEF87B68022289
:1028940083F85D207B681B681A687B681B6822F0DC
:1028A40040021A607B68DB68B3F5E06F02D900234D
:1028B400FB6002E04FF48053FB607B68DB68B3F598
:1028C400706F07D07B68DB68B3F5E06F02D07B687C
:1028D40000229A627B685B6803F482727B689B685F
:1028E40003F404431A437B681B6903F002031A438D
:1028F4007B685B6903F001031A437B689B6903F4FB
:1029040000731A437B68DB6903F038031A437B685E
:102914001B6A03F0800342EA03017B689B6A03F4A9
:1029240000527B681B680A431A607B689B691B0C16
:1029340003F004027B685B6A03F010031A437B68AC
:102944005B6B03F008031A437B68DB6803F4706372
:1029540042EA0301FB6803F480527B681B680A4364
:102964005A607B681B68DA697B681B6822F4006222
:10297400DA617B6800221A667B68012283F85D2095
:10298400002318461037BD4680BD80B582B000AF25
:1029940078607B68002B01D101231AE07B68022256
:1029A40083F85D207B681B681A687B681B6822F0CB
:1029B40040021A607868FEF77BF87B6800221A668A
:1029C4007B68002283F85D207B68002283F85C200A
:1029D400002318460837BD4680BD80B588B000AFD7
:1029E400F860B9603B601346FB800023FB77FB680B
:1029F40093F85C30012B01D102235FE1FB680122D3
:102A040083F85C20FEF738F9B861FB88FB82FB6829
:102A140093F85D30DBB2012B02D00223FB7748E14F
:102A2400BB68002B02D0FB88002B02D10123FB776B
:102A34003FE1FB68032283F85D20FB6800221A66ED
:102A4400FB68BA689A63FB68FA889A87FB68FA8815
:102A5400DA87FB6800221A64FB680022A3F844208A
:102A6400FB680022A3F84620FB6800221A65FB6875
:102A74000022DA64FB689B68B3F5004F0FD1FB6852
:102A84001B681A68FB681B6822F040021A60FB6826
:102A94001B681A68FB681B6842F480421A60FB6872
:102AA4001B681B6803F04003402B07D0FB681B68BE
:102AB4001A68FB681B6842F040021A60FB68DB6816
:102AC400B3F5E06F4FD9FB685B68002B02D0FB8A3B
:102AD400012B42D1FB689B6B1A88FB681B68DA6088
:102AE400FB689B6B9A1CFB689A63FB68DB8F9BB249
:102AF400013B9AB2FB68DA872FE0FB681B689B688E
:102B040003F00203022B12D1FB689B6B1A88FB684B
:102B14001B68DA60FB689B6B9A1CFB689A63FB6812
:102B2400DB8F9BB2013B9AB2FB68DA8715E0FEF7B4
:102B3400A3F80246BB69D31A3A689A4203D83B68A1
:102B4400B3F1FF3F02D13B68002B06D10323FB778F
:102B5400FB68012283F85D20ABE0FB68DB8F9BB24E
:102B6400002BCAD180E0FB685B68002B02D0FB8A93
:102B7400012B74D1FB68DB8F9BB2012B12D9FB684C
:102B84009B6B1A88FB681B68DA60FB689B6B9A1C5A
:102B9400FB689A63FB68DB8F9BB2023B9AB2FB68CB
:102BA400DA875CE0FB689A6BFB681B680C3312786D
:102BB4001A70FB689B6B5A1CFB689A63FB68DB8F7B
:102BC4009BB2013B9AB2FB68DA8748E0FB681B685A
:102BD4009B6803F00203022B2BD1FB68DB8F9BB2B3
:102BE400012B12D9FB689B6B1A88FB681B68DA609F
:102BF400FB689B6B9A1CFB689A63FB68DB8F9BB238
:102C0400023B9AB2FB68DA8729E0FB689A6BFB689F
:102C14001B680C3312781A70FB689B6B5A1CFB6898
:102C24009A63FB68DB8F9BB2013B9AB2FB68DA873D
:102C340015E0FEF721F80246BB69D31A3A689A42B6
:102C440003D83B68B3F1FF3F02D13B68002B06D1A8
:102C54000323FB77FB68012283F85D2029E0FB68EE
:102C6400DB8F9BB2002BB1D1BA693968F86800F0E8
:102C7400F9FC0346002B02D0FB6820221A66FB688D
:102C84009B68002B0AD100233B61FB681B68DB684F
:102C94003B61FB681B689B683B613B69FB681B6E7F
:102CA400002B02D00123FB7703E0FB68012283F8A9
:102CB4005D20FB68002283F85C20FB7F18462037E8
:102CC400BD4680BD80B588B002AFF860B9603B6096
:102CD4001346FB800023FB75FB6893F85D30DBB281
:102CE400012B02D00223FB751AE1FB685B68B3F584
:102CF400827F12D1FB689B68002B0ED1FB680422F3
:102D040083F85D20FA883B6800931346BA68B96873
:102D1400F86800F00EF9034607E1FB6893F85C30AD
:102D2400012B01D1022300E1FB68012283F85C201E
:102D3400FDF7A2FF3861BB68002B02D0FB88002B93
:102D440002D10123FB75EBE0FB68042283F85D20CC
:102D5400FB6800221A66FB68BA681A64FB68FA8882
:102D6400A3F84420FB68FA88A3F84620FB680022F5
:102D74009A63FB6800229A87FB680022DA87FB6863
:102D84000022DA64FB6800221A65FB68DB68B3F58D
:102D9400E06F08D9FB681B685A68FB681B6822F45B
:102DA40080525A6007E0FB681B685A68FB681B681E
:102DB40042F480525A60FB689B68B3F5004F0FD110
:102DC400FB681B681A68FB681B6822F040021A60E3
:102DD400FB681B681A68FB681B6822F480421A604F
:102DE400FB681B681B6803F04003402B07D0FB689B
:102DF4001B681A68FB681B6842F040021A60FB6893
:102E0400DB68B3F5E06F6FD834E0FB681B689B6840
:102E140003F00103012B17D1FB681B6803F10C02BB
:102E2400FB681B6C1278D2B21A70FB681B6C5A1CBC
:102E3400FB681A64FB68B3F846309BB2013B9AB254
:102E4400FB68A3F8462015E0FDF716FF02463B6930
:102E5400D31A3A689A4203D83B68B3F1FF3F02D1D0
:102E64003B68002B06D10323FB75FB68012283F822
:102E74005D2055E0FB68B3F846309BB2002BC4D10B
:102E840038E0FB681B689B6803F00103012B15D134
:102E9400FB681B68DA68FB681B6C92B21A80FB68DB
:102EA4001B6C9A1CFB681A64FB68B3F846309BB22F
:102EB400013B9AB2FB68A3F8462015E0FDF7DCFE5F
:102EC40002463B69D31A3A689A4203D83B68B3F185
:102ED400FF3F02D13B68002B06D10323FB75FB683F
:102EE400012283F85D201BE0FB68B3F846309BB2F7
:102EF400002BC6D13A693968F86800F05BFB0346D9
:102F0400002B02D0FB6820221A66FB681B6E002B84
:102F140002D00123FB7503E0FB68012283F85D20E6
:102F2400FB68002283F85C20FB7D18461837BD46F9
:102F340080BD80B58AB000AFF860B9607A607B80EC
:102F440001237B62002387F82330FB6893F85C300D
:102F5400012B01D102230AE2FB68012283F85C20E1
:102F6400FDF78AFEF861FB6893F85D30FB76FB6839
:102F74005B687B617B887B827B883B82FB7E012B49
:102F84000ED07B69B3F5827F06D1FB689B68002B6A
:102F940002D1FB7E042B03D0022387F82330E0E127
:102FA400BB68002B05D07B68002B02D07B88002BEC
:102FB40003D1012387F82330D3E1FB6893F85D3014
:102FC400DBB2042B03D0FB68052283F85D20FB6889
:102FD40000221A66FB687A681A64FB687A88A3F888
:102FE4004620FB687A88A3F84420FB68BA689A6391
:102FF400FB687A88DA87FB687A889A87FB680022FC
:10300400DA64FB6800221A65FB68DB68B3F5E06FDD
:1030140002D83B8A012B08D9FB681B685A68FB68F5
:103024001B6822F480525A6007E0FB681B685A68E8
:10303400FB681B6842F480525A60FB681B681B687B
:1030440003F04003402B07D0FB681B681A68FB6839
:103054001B6842F040021A60FB68DB68B3F5E06F5E
:1030640040F28180FB685B68002B02D07B8A012BD5
:103074006DD1FB689B6B1A88FB681B68DA60FB6880
:103084009B6B9A1CFB689A63FB68DB8F9BB2013BCA
:103094009AB2FB68DA875AE0FB681B689B6803F006
:1030A4000203022B1BD1FB68DB8F9BB2002B16D0D3
:1030B4007B6A012B13D1FB689B6B1A88FB681B6826
:1030C400DA60FB689B6B9A1CFB689A63FB68DB8F76
:1030D4009BB2013B9AB2FB68DA8700237B62FB68F0
:1030E4001B689B6803F00103012B1CD1FB68B3F838
:1030F40046309BB2002B16D0FB681B68DA68FB686D
:103104001B6C92B21A80FB681B6C9A1CFB681A64D5
:10311400FB68B3F846309BB2013B9AB2FB68A3F854
:10312400462001237B62FDF7A7FD0246FB69D31A03
:103134003A6B9A420BD83B6BB3F1FF3F07D00323A2
:1031440087F82330FB68012283F85D2009E1FB68DE
:10315400DB8F9BB2002B9FD1FB68B3F846309BB248
:10316400002B99D1E3E0FB685B68002B03D07B8ADA
:10317400012B40F0CF80FB68DB8F9BB2012B12D96F
:10318400FB689B6B1A88FB681B68DA60FB689B6BA7
:103194009A1CFB689A63FB68DB8F9BB2023B9AB272
:1031A400FB68DA87B6E0FB689A6BFB681B680C3334
:1031B40012781A70FB689B6B5A1CFB689A63FB6855
:1031C400DB8F9BB2013B9AB2FB68DA87A2E0FB6813
:1031D4001B689B6803F00203022B34D1FB68DB8F6E
:1031E4009BB2002B2FD07B6A012B2CD1FB68DB8F89
:1031F4009BB2012B12D9FB689B6B1A88FB681B6876
:10320400DA60FB689B6B9A1CFB689A63FB68DB8F34
:103214009BB2023B9AB2FB68DA8712E0FB689A6BB6
:10322400FB681B680C3312781A70FB689B6B5A1C82
:10323400FB689A63FB68DB8F9BB2013B9AB2FB6825
:10324400DA8700237B62FB681B689B6803F0010339
:10325400012B48D1FB68B3F846309BB2002B42D017
:10326400FB68B3F846309BB2012B23D9FB681B687B
:10327400DA68FB681B6C92B21A80FB681B6C9A1CA0
:10328400FB681A64FB68B3F846309BB2023B9AB2FF
:10329400FB68A3F84620FB68B3F846309BB2012BC9
:1032A4001FD8FB681B685A68FB681B6842F480528D
:1032B4005A6016E0FB681B6803F10C02FB681B6C88
:1032C4001278D2B21A70FB681B6C5A1CFB681A6421
:1032D400FB68B3F846309BB2013B9AB2FB68A3F893
:1032E400462001237B62FDF7C7FC0246FB69D31A23
:1032F4003A6B9A4203D83B6BB3F1FF3F02D13B6B6D
:10330400002B07D1032387F82330FB68012283F8BD
:103314005D2026E0FB68DB8F9BB2002B7FF457AF68
:10332400FB68B3F846309BB2002B7FF450AFFA69C8
:10333400396BF86800F096F90346002B05D0012399
:1033440087F82330FB6820221A66FB681B6E002B6B
:1033540003D0012387F8233003E0FB68012283F8BC
:103364005D20FB68002283F85C2097F82330184620
:103374002837BD4680BD000080B588B000AFF86036
:10338400B9603B601346FB71FDF776FC0246BB6AED
:103394009B1A3A681344FB61FDF76EFCB861394B24
:1033A4001B685B011B0DFA6902FB03F37B6154E0AC
:1033B4003B68B3F1FF3F50D0FDF75EFC0246BB69AA
:1033C400D31AFA699A4202D9FB69002B3DD1FB68F2
:1033D4001B685A68FB681B6822F0E0025A60FB68AD
:1033E4005B68B3F5827F11D1FB689B68B3F5004F2E
:1033F40004D0FB689B68B3F5806F07D1FB681B683A
:103404001A68FB681B6822F040021A60FB689B6A1A
:10341400B3F5005F0FD1FB681B681A68FB681B6873
:1034240022F400521A60FB681B681A68FB681B6868
:1034340042F400521A60FB68012283F85D20FB68A5
:10344400002283F85C20032317E07B69002B01D161
:103454000023FB617B69013B7B61FB681B689A6805
:10346400BB681340BA689A420CBF01230023DBB245
:103474001A46FB799A429BD1002318462037BD4651
:1034840080BD00BF0001002080B58AB000AFF860A5
:10349400B9607A603B600023FB75FDF7EDFB0246E3
:1034A4003B6B9B1A3A6813447B62FDF7E5FB386279
:1034B400FB681B680C33FB613D4B1A6813469B0089
:1034C4001344DA00D31A1B0D7A6A02FB03F3BB61BF
:1034D40060E0BB68B3F5C06F07D17B68002B04D1F3
:1034E400FB691B78DBB2FB75FB7D3B68B3F1FF3FE7
:1034F40050D0FDF7C1FB02463B6AD31A7A6A9A425E
:1035040002D97B6A002B3DD1FB681B685A68FB68B3
:103514001B6822F0E0025A60FB685B68B3F5827FA7
:1035240011D1FB689B68B3F5004F04D0FB689B681E
:10353400B3F5806F07D1FB681B681A68FB681B68CA
:1035440022F040021A60FB689B6AB3F5005F0FD15A
:10355400FB681B681A68FB681B6822F400521A6037
:10356400FB681B681A68FB681B6842F400521A6007
:10357400FB68012283F85D20FB68002283F85C204D
:10358400032310E0BB69002B01D100237B62BB69DC
:10359400013BBB61FB681B689A68BB6813407A688F
:1035A4009A4296D1002318462837BD4680BD00BFF5
:1035B4000001002080B586B002AFF860B9607A607F
:1035C400FB685B68B3F5827F11D1FB689B68B3F538
:1035D400004F04D0FB689B68B3F5806F07D1FB688C
:1035E4001B681A68FB681B6822F040021A607B683B
:1035F4000093BB6800228021F868FFF7BDFE0346F4
:10360400002B07D0FB681B6E43F02002FB681A6690
:10361400032323E0FB685B68B3F5827F1DD1FB685D
:103624009B68B3F5004F04D0FB689B68B3F5806FCB
:1036340013D17B680093BB6800224FF4C061F86823
:10364400FFF722FF0346002B07D0FB681B6E43F0F5
:103654002002FB681A66032300E000231846103793
:10366400BD4680BD80B586B002AFF860B9607A60AF
:103674007B680093BB6800224FF4C051F868FFF7E1
:1036840003FF0346002B07D0FB681B6E43F02002A8
:10369400FB681A66032327E07B680093BB6800225B
:1036A4008021F868FFF768FE0346002B07D0FB680B
:1036B4001B6E43F02002FB681A66032314E07B6848
:1036C4000093BB6800224FF4C061F868FFF7DCFE8A
:1036D4000346002B07D0FB681B6E43F02002FB68F7
:1036E4001A66032300E0002318461037BD4680BD48
:1036F40002440346934200D1704703F8011BF9E7E3
:1037040070B50D4D0D4C641BA4100026A64209D1C2
:103714000B4D0C4C00F018F8641BA4100026A642B4
:1037240005D170BD55F8043B98470136EEE755F8CE
:10373400043B98470136F2E79437000894370008B1
:103744009437000898370008F8B500BFF8BC08BCE7
:103754009E467047F8B500BFF8BC08BC9E4670474B
:10376400000000000000000001020304060708092D
:1037740002030405060708090A0B0C0D0E0F1010AE
:103784000102030405060708090A0B0C0D0E0F10AD
:04379400B90100086F
:04379800950100088F
:10379C0048454CAA5F574F524C44FF840A48454C4D
:1037AC004C5F574F524C4400830A48454C4C5F5772
:1037BC004F524C4400830A48454C4C5F574F524C77
:1037CC004401840A48454C4C5F574F524C4400838B
:1037DC000A48454C4C5F574F524C4400820A4845AE
:1037EC004C4C5F574F524C4401830A48454C4C5F3C
:1037FC00574F524C44FF820A48454C4C5F574F522E
:10380C004C4400830A48454C4C5F574F524C440083
:10381C00820A48454C4C5F574F524C4401810A4830
:10382C00454C4C5F574F524C4401820A48454C4C16
:10383C005F574F524C4401830A48454C4C5F574FDD
:10384C00524C4401820A48454C4C5F574F524C44F1
:10385C0000830A48454C4C5F574F524C4401830A35
:10386C0048454C4C5F574F524C44FF840A48454CDA
:10387C004C5F574F524C4400830A48454C4C5F57A1
:10388C004F524C4400830A48454C4C5F574F524CA6
:0C389C0000127A00100000000100000083
:0400000508000B756F
:00000001FF
