:020000040800F2
:10000000008000203995000889950008899500082E
:10001000899500088995000889950008000000006E
:1000200000000000000000000000000089950008AA
:1000300089950008000000000D95000879940008DB
:100040008995000889950008899500088995000818
:100050008995000889950008899500088995000808
:1000600089950008899500088995000889950008F8
:100070008995000889950008397D00088995000850
:1000800089950008899500088995000889950008D8
:1000900089950008899500088995000889950008C8
:1000A00089950008899500088995000889950008B8
:1000B000E579000889950008899500088995000868
:1000C0008995000889950008899500088995000898
:1000D000899500086D7C00088995000889950008BD
:1000E0008995000889950008899500088995000878
:1000F0008995000889950008899500088995000868
:1001000089950008000000000000000089950008A3
:100110008995000889950008899500088995000847
:100120006578000815780008899500088995000809
:100130008995000889950008000000000000000073
:1001400000000000000000000000000000000000AF
:10015000000000000000000000000000000000009F
:100160000000000000000000899500088995000843
:040170008995000865
:1001780010B5054C237833B9044B13B10448AFF3D9
:1001880000800123237010BDDC0000200000000067
:100198009096000808B5034B1BB103490348AFF319
:1001A800008008BD00000000E000002090960008D4
:1001B80010F8012B11F8013B012A28BF9A42F7D009
:1001C800D01A7047034613F8012B002AFBD1181ADE
:1001D8000138704781F0004102E000BF83F000431E
:1001E80030B54FEA41044FEA430594EA050F08BFCA
:1001F80090EA020F1FBF54EA000C55EA020C7FEA8E
:10020800645C7FEA655C00F0E2804FEA5454D4EB0A
:100218005555B8BF6D420CDD2C4480EA020281EAD4
:10022800030382EA000083EA010180EA020281EA0C
:100238000303362D88BF30BD11F0004F4FEA01315E
:100248004FF4801C4CEA113102D0404261EB41016D
:1002580013F0004F4FEA03334CEA133302D05242F3
:1002680063EB430394EA050F00F0A780A4F10104AF
:10027800D5F1200E0DDB02FA0EFC22FA05F28018E9
:1002880041F1000103FA0EF2801843FA05F35941CF
:100298000EE0A5F120050EF1200E012A03FA0EFC4E
:1002A80028BF4CF0020C43FA05F3C01851EBE37178
:1002B80001F0004507D54FF0000EDCF1000C7EEB95
:1002C80000006EEB0101B1F5801F1BD3B1F5001FD3
:1002D8000CD349085FEA30004FEA3C0C04F10104F2
:1002E8004FEA445212F5800F80F09A80BCF1004F1B
:1002F80008BF5FEA500C50F1000041EB045141EA9D
:10030800050130BD5FEA4C0C404141EB0101013C65
:1003180028BFB1F5801FE9D291F0000F04BF014654
:100328000020B1FA81F308BF2033A3F10B03B3F126
:1003380020020CDA0C3208DD02F1140CC2F10C02B6
:1003480001FA0CF021FA02F10CE002F11402D8BF14
:10035800C2F1200C01FA02F120FA0CFCDCBF41EAE0
:100368000C019040E41AA2BF01EB0451294330BDAF
:100378006FEA04041F3C1CDA0C340EDC04F114048C
:10038800C4F1200220FA04F001FA02F340EA030063
:1003980021FA04F345EA030130BDC4F10C04C4F1A9
:1003A800200220FA02F001FA04F340EA0300294689
:1003B80030BD21FA04F0294630BD94F0000F83F4D3
:1003C800801306BF81F480110134013D4EE77FEAB6
:1003D800645C18BF7FEA655C29D094EA050F08BF02
:1003E80090EA020F05D054EA000C04BF19461046E3
:1003F80030BD91EA030F1EBF0021002030BD5FEA27
:10040800545C05D14000494128BF41F0004130BD4E
:1004180014F580043CBF01F5801130BD01F00045A2
:1004280045F0FE4141F470014FF0000030BD7FEA15
:10043800645C1ABF194610467FEA655C1CBF0B4610
:10044800024650EA013406BF52EA033591EA030F27
:1004580041F4002130BD00BF90F0000F04BF00211F
:10046800704730B54FF4806404F132044FF0000552
:100478004FF0000150E700BF90F0000F04BF0021CB
:10048800704730B54FF4806404F1320410F0004531
:1004980048BF40424FF000013EE700BF42004FEA2C
:1004A800E2014FEA31014FEA02701FBF12F07F43A9
:1004B80093F07F4F81F06051704732F07F4208BF60
:1004C800704793F07F4F04BF41F40021704730B567
:1004D8004FF4607401F0004521F000411CE700BFB3
:1004E80050EA010208BF704730B54FF000050AE036
:1004F80050EA010208BF704730B511F0004502D537
:10050800404261EB41014FF4806404F132045FEA38
:10051800915C3FF4D8AE4FF003025FEADC0C18BFE1
:1005280003325FEADC0C18BF033202EBDC02C2F1D3
:10053800200300FA03FC20FA02F001FA03FE40EA65
:100548000E0021FA02F11444BDE600BF70B54FF069
:10055800FF0C4CF4E06C1CEA11541DBF1CEA135547
:1005680094EA0C0F95EA0C0F00F0DEF82C4481EAAF
:10057800030621EA4C5123EA4C5350EA013518BFCF
:1005880052EA033541F4801143F4801338D0A0FBBC
:1005980002CE4FF00005E1FB02E506F00042E0FB69
:1005A80003E54FF00006E1FB03569CF0000F18BF6F
:1005B8004EF0010EA4F1FF04B6F5007F64F5407417
:1005C80004D25FEA4E0E6D4146EB060642EAC621AA
:1005D80041EA55514FEAC52040EA5E504FEACE2E17
:1005E800B4F1FD0C88BFBCF5E06F1ED8BEF1004F1A
:1005F80008BF5FEA500E50F1000041EB045170BD96
:1006080006F0004646EA010140EA020081EA0301D9
:10061800B4EB5C04C2BFD4EB0C0541EA045170BDD5
:1006280041F480114FF0000E013C00F3AB8014F14F
:10063800360FDEBF002001F0004170BDC4F1000498
:10064800203C35DA0C341BDC04F11404C4F1200519
:1006580000FA05F320FA04F001FA05F240EA020074
:1006680001F0004221F0004110EBD37021FA04F6AA
:1006780042EB06015EEA430E08BF20EAD37070BD64
:10068800C4F10C04C4F1200500FA04F320FA05F0C3
:1006980001FA04F240EA020001F0004110EBD370C5
:1006A80041F100015EEA430E08BF20EAD37070BD35
:1006B800C4F1200500FA05F24EEA020E20FA04F30E
:1006C80001FA05F243EA020321FA04F001F00041BD
:1006D80021FA04F220EA020000EBD3705EEA430E2E
:1006E80008BF20EAD37070BD94F0000F0FD101F05D
:1006F8000046400041EB010111F4801F08BF013C96
:10070800F7D041EA060195F0000F18BF704703F0D3
:100718000046520043EB030313F4801F08BF013D5A
:10072800F7D043EA0603704794EA0C0F0CEA135516
:1007380018BF95EA0C0F0CD050EA410618BF52EAD0
:100748004306D1D181EA030101F000414FF00000D6
:1007580070BD50EA410606BF1046194652EA4306E4
:1007680019D094EA0C0F02D150EA013613D195EA58
:100778000C0F05D152EA03361CBF104619460AD1A0
:1007880081EA030101F0004141F0FE4141F47001AA
:100798004FF0000070BD41F0FE4141F4780170BD9A
:1007A80070B54FF0FF0C4CF4E06C1CEA11541DBFFF
:1007B8001CEA135594EA0C0F95EA0C0F00F0A7F801
:1007C800A4EB050481EA030E52EA03354FEA01312E
:1007D80000F088804FEA03334FF0805545EA131341
:1007E80043EA12634FEA022245EA111545EA106509
:1007F8004FEA00260EF000419D4208BF964244F1A0
:10080800FD0404F5407402D25B084FEA3202B61ABE
:1008180065EB03055B084FEA32024FF480104FF492
:10082800002CB6EB020E75EB030E22BFB61A754606
:1008380040EA0C005B084FEA3202B6EB020E75EB99
:10084800030E22BFB61A754640EA5C005B084FEA01
:100858003202B6EB020E75EB030E22BFB61A7546CE
:1008680040EA9C005B084FEA3202B6EB020E75EBD9
:10087800030E22BFB61A754640EADC0055EA060E9A
:1008880018D04FEA051545EA16754FEA06164FEADD
:10089800C30343EA52734FEAC2025FEA1C1CC0D189
:1008A80011F4801F0BD141EA00014FF000004FF016
:1008B800004CB6E711F4801F04BF01430020B4F1D7
:1008C800FD0C88BFBCF5E06F3FF6AFAEB5EB030C8F
:1008D80004BFB6EB020C5FEA500C50F1000041EB8C
:1008E800045170BD0EF0004E4EEA113114EB5C0459
:1008F800C2BFD4EB0C0541EA045170BD41F480112C
:100908004FF0000E013C90E645EA060E8DE60CEA33
:10091800135594EA0C0F08BF95EA0C0F3FF43BAF50
:1009280094EA0C0F0AD150EA01347FF434AF95EA07
:100938000C0F7FF425AF104619462CE795EA0C0FEB
:1009480006D152EA03353FF4FDAE1046194622E7B8
:1009580050EA410618BF52EA43067FF4C5AE50EA92
:1009680041047FF40DAF52EA43057FF4EBAE12E782
:100978004FF0FF3C06E000BF4FF0010C02E000BF63
:100988004FF0010C4DF804CD4FEA410C7FEA6C5C46
:100998004FEA430C18BF7FEA6C5C1BD001B050EAE9
:1009A800410C0CBF52EA430C91EA030F02BF90EAD4
:1009B800020F0020704710F1000F91EA030F58BF93
:1009C800994208BF90422CBFD8176FEAE37040F0F5
:1009D800010070474FEA410C7FEA6C5C02D150EA93
:1009E800013C07D14FEA430C7FEA6C5CD6D152EA4E
:1009F800033CD3D05DF8040B704700BF8446104613
:100A080062468C461946634600E000BF01B5FFF711
:100A1800B7FF002848BF10F1000F01BD4DF808EDE1
:100A2800FFF7F4FF0CBF012000205DF808FB00BFB2
:100A38004DF808EDFFF7EAFF34BF012000205DF80C
:100A480008FB00BF4DF808EDFFF7E0FF94BF012059
:100A580000205DF808FB00BF4DF808EDFFF7CEFF5A
:100A680094BF012000205DF808FB00BF4DF808ED99
:100A7800FFF7C4FF34BF012000205DF808FB00BF6A
:100A88004FEA410212F5001215D211D56FF47873AE
:100A9800B3EB625212D94FEAC12343F0004343EA51
:100AA800505311F0004F23FA02F018BF404270472C
:100AB8004FF00000704750EA013005D111F00040B6
:100AC80008BF6FF0004070474FF00000704700BF4C
:100AD8004A0011D212F5001211D20DD56FF47873B5
:100AE800B3EB62520ED44FEAC12343F0004343EA0A
:100AF800505323FA02F070474FF00000704750EA55
:100B0800013002D14FF0FF3070474FF000007047BE
:100B18004FEA4102B2F1E04324BFB3F5001CDCF117
:100B2800FE5C0DD901F0004C4FEAC0024CEA50704F
:100B3800B2F1004F40EB830008BF20F0010070477E
:100B480011F0804F21D113F13872BCBF01F0004081
:100B5800704741F480114FEA5252C2F11802C2F1B3
:100B6800200C10FA0CF320FA02F018BF40F0010034
:100B78004FEAC1234FEAD32303FA0CFC40EA0C00E6
:100B880023FA02F34FEA4303CCE77FEA625307D123
:100B980050EA01331EBF4FF0FE4040F4400070475A
:100BA80001F0004040F0FE4040F40000704700BFF4
:100BB80090B587B000AF78600023FB75344A07F121
:100BC800080392E8030083E803000023BB75FF23B2
:100BD8007B757B683B6133E03B6901333B613B6973
:100BE8001B780D2BF8D03B691B780A2BF4D0002317
:100BF800BB751DE0BB7D9B0018333B4453F8104C7C
:100C0800BB7D9B0018333B4453F8103C1846FFF754
:100C1800D9FA03461A463969204608F0D6FC034635
:100C2800002B02D1BB7D7B7505E0BB7D0133BB7515
:100C3800BB7D012BDED90A21386908F0B9FC38617F
:100C48003B69002BCBD197F91530002B02D0012B33
:100C580006D00EE00223FB750E4B00221A7011E03D
:100C6800FF23FB750B4B1B780133DAB2094B1A7063
:100C780008E0084B1B780133DAB2064B1A70FF23E1
:100C8800FB7500BF97F9173018461C37BD4690BD55
:100C9800B4960008B9010020B0B58AB000AF7860FA
:100CA800002387F82730404A07F1180307CA83E86A
:100CB80007000023FB754FF0FF333B617B68FB6047
:100CC8003CE0FB680133FB60FB681B780D2BF8D018
:100CD800FB681B780A2BF4D00023FB7523E0FB7D0F
:100CE800DBB29B0028333B4453F8104CFD68FB7D76
:100CF800DBB29B0028333B4453F8103C1846FFF7FF
:100D080061FA03461A462946204608F05EFC034667
:100D1800002B03D1FB7DDBB23B6108E0FB7DDBB23E
:100D28000133DBB2FB75FB7DDBB2022BD7D9FB6845
:100D38000A21184608F03CFC0346FB60FB68002BC0
:100D4800C2D13B69022B14D0022B1CDC002B02D031
:100D5800012B07D017E0022387F82730134B002216
:100D68001A701AE0FF2387F82730104B00221A70F8
:100D780013E0FF2387F827300C4B1B780133DAB2D6
:100D88000A4B1A7009E0094B1B780133DAB2074B9A
:100D98001A70FF2387F8273000BF97F827305BB217
:100DA80018462837BD46B0BDE0960008B9010020B6
:100DB800B0B58AB000AF7860002387F827303B4A87
:100DC80007F1180307CA83E807000023FB754FF0F3
:100DD800FF333B617B68FB603CE0FB680133FB60F1
:100DE800FB681B780D2BF8D0FB681B780A2BF4D016
:100DF8000023FB7523E0FB7DDBB29B0028333B44DB
:100E080053F8104CFD68FB7DDBB29B0028333B4454
:100E180053F8103C1846FFF7D5F903461A462946F9
:100E2800204608F0D2FB0346002B03D1FB7DDBB242
:100E38003B6108E0FB7DDBB20133DBB2FB75FB7D78
:100E4800DBB2022BD7D9FB680A21184608F0B0FBA1
:100E58000346FB60FB68002BC2D13B69012B02D91A
:100E6800022B07D010E0022387F82730104B00220E
:100E78001A7013E0FF2387F827300D4B1B780133D6
:100E8800DAB20B4B1A7009E0094B1B780133DAB25E
:100E9800074B1A70FF2387F8273000BF97F82730D1
:100EA8005BB218462837BD46B0BD00BF049700089E
:100EB800B9010020B0B58AB000AF7860FF2387F889
:100EC80027304E4A07F1180307CA83E807000023B2
:100ED800FB754FF0FF333B617B68FB6060E0FB68AC
:100EE8000133FB60FB681B780D2BF8D0FB681B787F
:100EF8000A2BF4D00023FB7523E0FB7DDBB29B00BB
:100F080028333B4453F8104CFD68FB7DDBB29B0053
:100F180028333B4453F8103C1846FFF753F903466F
:100F28001A462946204608F050FB0346002B03D1F9
:100F3800FB7DDBB23B6108E0FB7DDBB20133DBB25A
:100F4800FB75FB7DDBB2022BD7D93B69002B20D187
:100F5800FB682B4A1360322200212A4808F011FB53
:100F680014220021284808F00CFB254B18680D2393
:100F78002022244906F062F80346214A13602148DA
:100F8800FFF720F903461A461E491F4808F02FFBB1
:100F980009E0FB680A21184608F00AFB0346FB60D3
:100FA800FB68002B9ED13B69012B02DC002B03DA86
:100FB80013E0022B07D010E0022387F82730134BE9
:100FC80000221A7013E0FF2387F827300F4B1B7895
:100FD8000133DAB20D4B1A7009E0FF2387F8273086
:100FE8000A4B1B780133DAB2084B1A7000BF97F826
:100FF80027305BB218462837BD46B0BD18970008A1
:10100800C0010020C801002058070020B9010020B5
:10101800B0B58AB000AF7860FF2387F827304E4A12
:1010280007F1180307CA83E807000023FB754FF090
:10103800FF333B617B68FB6060E0FB680133FB606A
:10104800FB681B780D2BF8D0FB681B780A2BF4D0B3
:101058000023FB7523E0FB7DDBB29B0028333B4478
:1010680053F8104CFD68FB7DDBB29B0028333B44F2
:1010780053F8103C1846FFF7A5F803461A462946C8
:10108800204608F0A2FA0346002B03D1FB7DDBB211
:101098003B6108E0FB7DDBB20133DBB2FB75FB7D16
:1010A800DBB2022BD7D93B69002B20D1FB682B4A36
:1010B8001360322200212A4808F063FA1622002120
:1010C800284808F05EFA254B186822232222244972
:1010D80005F0B4FF0346214A13602148FFF772F870
:1010E80003461A461E491F4808F081FA09E0FB68C2
:1010F8000A21184608F05CFA0346FB60FB68002BDF
:101108009ED13B69012B02DC002B03DA13E0022B92
:1011180007D010E0022387F82730134B00221A70FB
:1011280013E0FF2387F827300F4B1B780133DAB21F
:101138000D4B1A7009E0FF2387F827300A4B1B78FC
:101148000133DAB2084B1A7000BF97F827305BB248
:1011580018462837BD46B0BD2C970008C0010020AE
:10116800C80100206C070020B9010020B0B58AB082
:1011780000AF7860002387F82730544A07F1180336
:1011880007CA83E807000023FB754FF0FF333B6174
:101198007B68FB6044E0FB680133FB60FB681B78FD
:1011A8000D2BF8D0FB681B780A2BF4D00023FB75B5
:1011B80029E0FB7DDBB29B0028333B4453F8104CFD
:1011C800FD68FB7DDBB29B0028333B4453F8103CA1
:1011D8001846FEF7F7FF03461A462946204608F048
:1011E800F4F90346002B09D1FB7DDBB23B613B6977
:1011F800012B0DD1FB68364A136009E0FB7DDBB299
:101208000133DBB2FB75FB7DDBB2022BD1D900E0E9
:1012180000BFFB680A21184608F0CAF90346FB60BC
:10122800FB68002BBAD13B69022B33D0022B3BD889
:10123800002B02D0012B04D036E0032387F8273097
:101248003CE0022387F82730214B18682C232C22F6
:10125800204905F0F3FE03461D4A13601C4B18682D
:101268000D232C221C4905F0E9FE0346184A136099
:10127800194805F017FE03461A46164B5A811548B9
:1012880005F010FE03461A46124B9A81134B0022B2
:101298001A7013E0FF2387F82730104B1B780133AF
:1012A800DAB20E4B1A7009E00C4B1B780133DAB234
:1012B8000A4B1A70FF2387F8273000BF97F82730AA
:1012C8005BB218462837BD46B0BD00BF4897000836
:1012D800C0010020F8000020FC000020B901002017
:1012E800B0B58AB000AF7860002387F82730894A04
:1012F80007F1180307CA83E807000023FB754FF0BE
:10130800FF333B617B68FB604BE0FB680133FB60AC
:10131800FB681B780D2BF8D0FB681B780A2BF4D0E0
:101328000023FB7529E0FB7DDBB29B0028333B449F
:1013380053F8104CFD68FB7DDBB29B0028333B441F
:1013480053F8103C1846FEF73DFF03461A46294657
:10135800204608F03AF90346002B09D1FB7DDBB2A1
:101368003B613B69012B0DD1FB686B4A136009E0B7
:10137800FB7DDBB20133DBB2FB75FB7DDBB2022BFD
:10138800D1D900E000BF3B69012B0DD03B69B3F117
:10139800FF3F09D0FB680A21184608F009F90346FF
:1013A800FB60FB68002BB3D13B69022B00F09680F1
:1013B800022B00F29D80002B02D0012B04D097E075
:1013C800022387F827309DE0022387F82730524B05
:1013D8001B680A21184608F0EBF803464E4A1360CA
:1013E8004D4B1B6801334C4A136006F031FC034631
:1013F8004A4A1360494B1B684FF4006200211846A3
:1014080008F0BFF8464B5A89464B1A8058E0424BC1
:101418001B680A224449184608F0D7F80346002BEF
:101428000DD13D4B1B680A21184608F0C1F8034648
:10143800394A1360384B1B680133374A1360394BFC
:101448001B88B3F5806F04D3384B4FF480621A8041
:1014580003E0344B1A88354B1A80324B1A88334BC9
:101468001B88D31A9AB22F4B1A8015E02A4B1A6898
:101478002A4B1B6812781A70284B1B680133274ABD
:101488001360254B1B680133234A1360274B1B88C5
:10149800013B9AB2254B1A80244B1B88002BE5D1BF
:1014A80004E01D4B1B6801331B4A13601A4B1B6871
:1014B8001B780A2BF5D0184B1B681B780D2BF0D026
:1014C800154B1B680C221A49184608F07EF803468B
:1014D800002B9CD1174B00221A7013E0FF2387F8CA
:1014E8002730144B1B780133DAB2124B1A7009E01B
:1014F800FF2387F827300F4B1B780133DAB20D4BE7
:101508001A7000BF97F827305BB218462837BD46D7
:10151800B0BD00BF70970008C0010020C4010020C2
:10152800F8000020FA01002054970008FC01002070
:1015380060970008B9010020B0B58AB000AF7860A4
:10154800FF2387F82730404A07F1180307CA83E8C2
:1015580007000023FB754FF0FF333B617B68FB609E
:1015680002E0FB680133FB60FB681B780D2BF8D0A9
:10157800FB681B780A2BF4D00023FB7523E0FB7D66
:10158800DBB29B0028333B4453F8104CFD68FB7DCD
:10159800DBB29B0028333B4453F8103C1846FEF757
:1015A80011FE03461A462946204608F00EF803465F
:1015B800002B03D1FB7DDBB23B6108E0FB7DDBB296
:1015C8000133DBB2FB75FB7DDBB2022BD7D93B695C
:1015D800022B1DD0022B25DC002B02D0012B10D0B2
:1015E80020E0032387F8273006F032FB0346FB6030
:1015F800FB681A46154B5B891946104606F09CFA9B
:101608001AE0022387F82730114B00221A7013E0E2
:10161800FF2387F827300E4B1B780133DAB20C4BC7
:101628001A7009E0FF2387F82730094B1B7801332C
:10163800DAB2074B1A7000BF97F827305BB218462A
:101648002837BD46B0BD00BF80970008F8000020CD
:10165800B9010020B0B58CB000AF7860FF2387F8DF
:101668002F30614B07F118041D460FCD0FC42B68AE
:1016780023600023FB754FF0FF333B617B68FB6001
:1016880085E0FB680133FB60FB681B780D2BF8D005
:10169800FB681B780A2BF4D00023FB7523E0FB7D45
:1016A800DBB29B0030333B4453F8184CFD68FB7D9C
:1016B800DBB29B0030333B4453F8183C1846FEF726
:1016C80081FD03461A462946204607F07EFF034659
:1016D800002B03D1FB7DDBB23B6108E0FB7DDBB275
:1016E8000133DBB2FB75FB7DDBB2042BD7D93B6939
:1016F800012B22D1FB683D4A1360322200213C486D
:1017080007F03FFF394B18680D232022384905F0B0
:1017180095FC0346354A1360354801F08DFB1422C9
:101728000021344807F02DFF3148FEF74BFD0346F2
:101738001A462F492F4807F05AFF3B69002B1FD143
:10174800FB682A4A136032220021294807F019FF52
:1017580019220021284807F014FF244B18680D238C
:101768002022234905F06AFC0346204A13602048DA
:10177800FEF728FD03461A461D491F4807F037FFA4
:10178800FB680A21184607F013FF0346FB60FB6855
:10179800002B7FF479AF3B69002B05D0002B11DBC0
:1017A800013B022B0ED806E0022387F82F30134B9B
:1017B80000221A7010E0022387F82F300F4B002206
:1017C8001A7009E0FF2387F82F300C4B1B78013380
:1017D800DAB20A4B1A7000BF97F82F305BB218467E
:1017E8003037BD46B0BD00BFA8970008C001002033
:1017F800C80100202101002036010020B901002085
:10180800B0B58CB000AF7860FF2387F8233007F1BC
:10181800240300221A605A609A60434B7B62434B50
:10182800BB6207F1140307F1240207CA83E8070023
:101838000023FB744FF0FF33FB607B68BB6002E062
:10184800BB680133BB60BB681B780D2BF8D0BB6845
:101858001B780A2BF4D00023FB7423E0FB7CDBB25B
:101868009B0030333B4453F81C4CBD68FB7CDBB217
:101878009B0030333B4453F81C3C1846FEF7A2FC4F
:1018880003461A462946204607F09FFE0346002BCA
:1018980003D1FB7CDBB2FB6008E0FB7CDBB20133ED
:1018A800DBB2FB74FB7CDBB2012BD7D9FB68002BC6
:1018B80002D0012B1DD026E0022387F823303222E4
:1018C80000211B4807F05DFEB8682C232022184928
:1018D80005F0B4FB0346174A1360154805F0E2FA11
:1018E8000346DAB2144B83F82D20144B00221A70E9
:1018F80013E0FF2387F82330104B1B780133DAB24B
:101908000E4B1A7009E0FF2387F823300B4B1B7826
:101918000133DAB2094B1A7000BF97F823305BB273
:1019280018463037BD46B0BDBC970008AC960008D5
:10193800C8010020C001002008010020B9010020D2
:10194800B0B58AB000AF7860FF2387F82730484ADF
:1019580007F1180307CA83E807000023FB754FF057
:10196800FF333B617B68FB6052E0FB680133FB603F
:10197800FB681B780D2BF8D0FB681B780A2BF4D07A
:101988000023FB7523E0FB7DDBB29B0028333B443F
:1019980053F8104CFD68FB7DDBB29B0028333B44B9
:1019A80053F8103C1846FEF70DFC03461A46294624
:1019B800204607F00AFE0346002B03D1FB7DDBB26D
:1019C8003B6108E0FB7DDBB20133DBB2FB75FB7DDD
:1019D800DBB2022BD7D93B69012B12D1322200216D
:1019E800244807F0CEFDF8680D232022214905F090
:1019F80025FB204805F056FA03461A461E4B1A8066
:101A080009E0FB680A21184607F0D2FD0346FB608F
:101A1800FB68002BACD13B69002B02D0012B07D00F
:101A280015E0022387F82730144B00221A7018E0BB
:101A3800114B1B88002B03D0FF2387F8273010E0B9
:101A4800022387F827300D4B00221A7009E0FF2384
:101A580087F82730094B1B780133DAB2074B1A7025
:101A680000BF97F827305BB218462837BD46B0BD8F
:101A7800D4970008C8010020BC010020B90100204B
:101A8800B0B58AB000AF7860FF2387F82730384AAE
:101A980007F1180307CA83E807000023FB754FF016
:101AA800FF333B617B68FB603CE0FB680133FB6014
:101AB800FB681B780D2BF8D0FB681B780A2BF4D039
:101AC8000023FB7523E0FB7DDBB29B0028333B44FE
:101AD80053F8104CFD68FB7DDBB29B0028333B4478
:101AE80053F8103C1846FEF76DFB03461A46294684
:101AF800204607F06AFD0346002B03D1FB7DDBB2CD
:101B08003B6108E0FB7DDBB20133DBB2FB75FB7D9B
:101B1800DBB2022BD7D9FB680A21184607F048FD2B
:101B28000346FB60FB68002BC2D13B69002B02D047
:101B3800012B07D00AE0022387F827300D4B00223B
:101B48001A700DE0FF2387F8273009E0FF2387F894
:101B58002730084B1B780133DAB2064B1A7000BFE6
:101B680097F827305BB218462837BD46B0BD00BF8E
:101B7800F0970008B9010020B0B58AB000AF7860CE
:101B8800FF2387F82730474A07F1180307CA83E875
:101B980007000023FB754FF0FF333B617B68FB6058
:101BA80052E0FB680133FB60FB681B780D2BF8D013
:101BB800FB681B780A2BF4D00023FB7523E0FB7D20
:101BC800DBB29B0028333B4453F8104CFD68FB7D87
:101BD800DBB29B0028333B4453F8103C1846FEF711
:101BE800F1FA03461A462946204607F0EEFC03465A
:101BF800002B03D1FB7DDBB23B6108E0FB7DDBB250
:101C08000133DBB2FB75FB7DDBB2022BD7D93B6915
:101C1800012B12D132220021234807F0B2FCF868C8
:101C28000D232C22204905F009FA1F4805F03AF93E
:101C380003461A461D4B1A8009E0FB680A2118461C
:101C480007F0B6FC0346FB60FB68002BACD13B6990
:101C5800002B02D0012B04D012E0032387F8273091
:101C680018E0124B1B88002B06D1022387F8273077
:101C78000F4B00221A700DE0FF2387F8273009E088
:101C8800FF2387F827300A4B1B780133DAB2084B59
:101C98001A7000BF97F827305BB218462837BD4640
:101CA800B0BD00BF10980008C8010020BC0100208A
:101CB800B9010020B0B58AB000AF7860FF2387F87B
:101CC80027304B4B07F114040FCB84E80F00002397
:101CD800FB744FF0FF33FB607B68BB603CE0BB6884
:101CE8000133BB60BB681B780D2BF8D0BB681B7831
:101CF8000A2BF4D00023FB7423E0FB7CDBB29B00AF
:101D080028333B4453F8144CBD68FB7CDBB29B0082
:101D180028333B4453F8143C1846FEF753FA03465D
:101D28001A462946204607F050FC0346002B03D1EB
:101D3800FB7CDBB2FB6008E0FB7CDBB20133DBB28F
:101D4800FB74FB7CDBB2032BD7D9BB680A2118468E
:101D580007F02EFC0346BB60BB68002BC2D1FB68B2
:101D6800022B2FD0022B31DC002B02D0012B22D0EA
:101D78002CE0032387F8273001F0A4F903461D4A15
:101D880013601C4B1C682046FEF71CFA03462344CC
:101D9800194A1188927819809A70164B1B681C464C
:101DA800144B1B681846FEF70DFA034619462046E1
:101DB80005F0C2FE14E0022387F827300F4B0022FB
:101DC8001A700DE0FF2387F8273009E0FF2387F812
:101DD80027300A4B1B780133DAB2084B1A7000BF60
:101DE80097F827305BB218462837BD46B0BD00BF0C
:101DF80034980008C40100201C980008B90100208C
:101E0800B0B58AB000AF7860FF2387F82730474A1B
:101E180007F1180307CA83E807000023FB754FF092
:101E2800FF333B617B68FB6052E0FB680133FB607A
:101E3800FB681B780D2BF8D0FB681B780A2BF4D0B5
:101E48000023FB7523E0FB7DDBB29B0028333B447A
:101E580053F8104CFD68FB7DDBB29B0028333B44F4
:101E680053F8103C1846FEF7ADF903461A462946C2
:101E7800204607F0AAFB0346002B03D1FB7DDBB20B
:101E88003B6108E0FB7DDBB20133DBB2FB75FB7D18
:101E9800DBB2022BD7D93B69012B12D132220021A8
:101EA800234807F06EFBF8680D232C22204905F023
:101EB800C5F81F4804F0F6FF03461A461D4B1A8062
:101EC80009E0FB680A21184607F072FB0346FB602D
:101ED800FB68002BACD13B69002B02D0012B04D04E
:101EE80012E0032387F8273018E0124B1B88002BD9
:101EF80003D0FF2387F8273010E0022387F8273024
:101F08000D4B00221A7009E0FF2387F827300A4B8F
:101F18001B780133DAB2084B1A7000BF97F82730E4
:101F28005BB218462837BD46B0BD00BF50980008C0
:101F3800C8010020F4030020B9010020B0B58AB020
:101F480000AF7860FF2387F82730534A07F118035A
:101F580007CA83E807000023FB754FF0FF333B6196
:101F68007B68FB604D4B00221A7063E0FB6801330D
:101F7800FB60FB681B780D2BF8D0FB681B780A2BDD
:101F8800F4D00023FB7523E0FB7DDBB29B002833F4
:101F98003B4453F8104CFD68FB7DDBB29B002833B3
:101FA8003B4453F8103C1846FEF70CF903461A4612
:101FB8002946204607F009FB0346002B03D1FB7D89
:101FC800DBB23B6108E0FB7DDBB20133DBB2FB75C2
:101FD800FB7DDBB2022BD7D93B69002B23D1322200
:101FE80000212F4807F0CDFAF868222322222C4935
:101FF80005F024F8294B1B781A4613469B00134416
:102008009A001344274A9C182548FEF7DBF8034634
:102018001A462349204607F0EAFA204B1B78013379
:10202800DAB21E4B1A70FB680A21184607F0C0FA8C
:102038000346FB60FB68002B9BD13B69002B02D059
:10204800012B0CD017E0022387F82730134B1A789E
:10205800144B83F86420144B00221A7015E00223F5
:1020680087F827300D4B1A780E4B83F864200E4BF7
:1020780000221A7009E0FF2387F827300A4B1B78E3
:102088000133DAB2084B1A7000BF97F827305BB2F9
:1020980018462837BD46B0BD6C980008F6030020E6
:1020A800C801002054010020B9010020B0B58AB051
:1020B80000AF7860FF2387F827304E4B07F11404F0
:1020C8000FCB84E80F000023FB744FF0FF33FB6055
:1020D8007B68BB603CE0BB680133BB60BB681B78B6
:1020E8000D2BF8D0BB681B780A2BF4D00023FB74A7
:1020F80023E0FB7CDBB29B0028333B4453F8144CB1
:10210800BD68FB7CDBB29B0028333B4453F8143C8E
:102118001846FEF757F803461A462946204607F0A0
:1021280054FA0346002B03D1FB7CDBB2FB6008E0CA
:10213800FB7CDBB20133DBB2FB74FB7CDBB2032B31
:10214800D7D9BB680A21184607F032FA0346BB60A4
:10215800BB68002BC2D1FB68022B36D0022B38DCBF
:10216800002B02D0012B29D033E0032387F8273036
:1021780000F0D0FF0346204A1360322200211F4896
:1021880007F0FFF91C4B1B6819461C4807F066FA54
:102198001A48FEF717F803461A46184B134418490D
:1021A8001A460B461B881380144C1448FEF70AF88D
:1021B80003461946204605F0BFFC14E0022387F8C1
:1021C8002730104B00221A700DE0FF2387F82730C4
:1021D80009E0FF2387F827300A4B1B780133DAB26E
:1021E800084B1A7000BF97F827305BB2184628379B
:1021F800BD46B0BD8C980008C4010020C80100206D
:1022080078980008B9010020B0B58AB000AF7860AE
:10221800FF2387F827304B4B07F114040FCB84E8D2
:102228000F000023FB744FF0FF33FB607B68BB603B
:102238003CE0BB680133BB60BB681B780D2BF8D052
:10224800BB681B780A2BF4D00023FB7423E0FB7CCB
:10225800DBB29B0028333B4453F8144CBD68FB7C2D
:10226800DBB29B0028333B4453F8143C1846FDF777
:10227800A9FF03461A462946204607F0A6F9034651
:10228800002B03D1FB7CDBB2FB6008E0FB7CDBB2FC
:102298000133DBB2FB74FB7CDBB2032BD7D9BB6801
:1022A8000A21184607F084F90346BB60BB68002B77
:1022B800C2D1FB68022B2FD0022B31DC002B02D0BD
:1022C800012B22D02CE0032387F8273005F0C0FC2F
:1022D80003461D4A13601C4B1C682046FDF772FF1D
:1022E80003462344194A1188927819809A70164B2C
:1022F8001B681C46144B1B681846FDF763FF034612
:102308001946204605F018FC14E0022387F8273008
:102318000F4B00221A700DE0FF2387F8273009E0E1
:10232800FF2387F827300A4B1B780133DAB2084BB2
:102338001A7000BF97F827305BB218462837BD4699
:10234800B0BD00BFAC980008C40100201C9800086C
:10235800B9010020B0B58AB000AF7860FF2387F8D4
:102368002730474A07F1180307CA83E80700002304
:10237800FB754FF0FF333B617B68FB6052E0FB6805
:102388000133FB60FB681B780D2BF8D0FB681B78CA
:102398000A2BF4D00023FB7523E0FB7DDBB29B0006
:1023A80028333B4453F8104CFD68FB7DDBB29B009F
:1023B80028333B4453F8103C1846FDF703FF034607
:1023C8001A462946204607F000F90346002B03D198
:1023D800FB7DDBB23B6108E0FB7DDBB20133DBB2A6
:1023E800FB75FB7DDBB2022BD7D93B69012B12D1E0
:1023F80032220021234807F0C4F8F8680D232C2264
:10240800204904F01BFE1F4804F04CFD03461A4601
:102418001D4B1A8009E0FB680A21184607F0C8F826
:102428000346FB60FB68002BACD13B69002B02D054
:10243800012B04D012E0032387F8273018E0124B51
:102448001B88002B03D0FF2387F8273010E00223D6
:1024580087F827300D4B00221A7009E0FF2387F810
:1024680027300A4B1B780133DAB2084B1A7000BFC9
:1024780097F827305BB218462837BD46B0BD00BF75
:10248800C8980008C8010020BC010020B90100203C
:10249800B0B58AB000AF7860FF2387F827304A4A82
:1024A80007F1180307CA83E807000023FB754FF0FC
:1024B800FF333B617B68FB6052E0FB680133FB60E4
:1024C800FB681B780D2BF8D0FB681B780A2BF4D01F
:1024D8000023FB7523E0FB7DDBB29B0028333B44E4
:1024E80053F8104CFD68FB7DDBB29B0028333B445E
:1024F80053F8103C1846FDF765FE03461A46294670
:10250800204607F062F80346002B03D1FB7DDBB2BF
:102518003B6108E0FB7DDBB20133DBB2FB75FB7D81
:10252800DBB2022BD7D93B69002B12D13222002112
:10253800264807F026F8F8680D232022234904F0DE
:102548007DFD224804F0AEFC0346DAB2204B1A7037
:1025580009E0FB680A21184607F02AF80346FB60E1
:10256800FB68002BACD13B69002B02D0012B15D0A6
:1025780018E0174B1B78002B09D1FF2387F8273069
:10258800144B1B780133DAB2124B1A7014E0022391
:1025980087F827300F4B00221A700DE0032387F8C5
:1025A800273009E0FF2387F827300A4B1B780133CF
:1025B800DAB2084B1A7000BF97F827305BB218469A
:1025C8002837BD46B0BD00BFDC980008C801002010
:1025D800F7030020B901002080B582B000AF786011
:1025E8000B467B8012221049786806F0EEFF0346FE
:1025F800002B05D10D4B00221A704FF0FF330EE06F
:102608000C220B49786806F0E0FF0346002B04D142
:10261800064B01221A70002301E04FF0FF331846E1
:102628000837BD4680BD00BFE8980008BB01002000
:10263800BC96000880B582B000AF78600B467B80FE
:1026480007220A49786806F0C0FF0346002B04D128
:10265800074B01221A70002304E0054B00221A7070
:102668004FF0FF3318460837BD4680BDFC98000878
:10267800BA010020B0B58AB000AF78600B467B8005
:10268800304B07F118040FCB84E80F000023FB75CB
:102698004FF0FF333B617B68FB604BE0FB68013325
:1026A800FB60FB681B780D2BF8D0FB681B780A2BA6
:1026B800F4D00023FB7523E0FB7DDBB29B002833BD
:1026C8003B4453F8104CFD68FB7DDBB29B0028337C
:1026D8003B4453F8103C1846FDF774FD03461A4670
:1026E8002946204606F071FF0346002B03D1FB7DE7
:1026F800DBB23B6108E0FB7DDBB20133DBB2FB758B
:10270800FB7DDBB2032BD7D93B69022B0BD1F868D1
:102718000D230A220C4904F091FC0C4BD3F84031EC
:102728000948984709E0FB680A21184606F040FF67
:102738000346FB60FB68002BB3D1002318462837FB
:10274800BD46B0BD48990008000200200C060020D4
:10275800B0B588B000AF78600B467B802C4A07F193
:10276800180392E8030083E803000023FB757B68E5
:102778003B614FF0FF33FB6002E03B6901333B6193
:102788003B691B780D2BF8D03B691B780A2BF4D0DA
:102798000023FB7523E0FB7DDBB29B0020333B4429
:1027A80053F8084C3D69FB7DDBB29B0020333B446A
:1027B80053F8083C1846FDF705FD03461A46294616
:1027C800204606F002FF0346002B03D1FB7DDBB257
:1027D800FB6008E0FB7DDBB20133DBB2FB75FB7D00
:1027E800DBB2012BD7D9FB68012B04D1094B03229B
:1027F80083F83C2106E0FB68022B03D1054B00223D
:1028080083F83C21002318462037BD46B0BD00BFE1
:10281800749900080C060020F0B5ADF5097D00AFED
:1028280007F50873A3F5087318464FF408731A469A
:10283800002106F0A6FE07F50873A3F508739F4A62
:102848001C4607CA84E807000C3300221A605A6045
:102858009A60DA601A8207F50873A3F50872984936
:1028680002F1240303C91860043319800233090CE8
:10287800197002F12B0300221A605A609A60DA601C
:102888001A61C3F8132007F50873A3F508738D4A76
:102898005A6407F50873A3F508748B4A04F14803D2
:1028A80007CA03C31A8004F1520300221A605A604F
:1028B8009A60DA601A6107F50873A3F50874834A09
:1028C80004F16C0307CA03C31A7004F175030022EC
:1028D8001A605A609A60DA601A611A7507F5087307
:1028E800A3F508737A4903F1900203C982E803004B
:1028F800983300221A605A609A60DA601A619A82E4
:1029080007F50873A3F50873724AC3F8B02007F5F2
:102918000873A3F50874704A04F1B40307CA03C323
:102928001A7004F1BD0300221A605A609A60DA60D6
:102938001A611A7507F50873A3F50872674902F159
:10294800D80303C91860043319800233090C1970BD
:1029580002F1DF0300221A605A609A60DA601A6195
:10296800C3F8132007F50873A3F508725C4902F150
:10297800FC0303C91860043319800233090C197069
:1029880002F2031300221A605A609A60DA601A6130
:10299800C3F8132007F50873A3F50875514B05F51F
:1029A80090740FCB07C4238002341B0C237005F2EC
:1029B8002F1300221A605A609A60C3F80B2007F59B
:1029C8000873A3F50873484AC3F8402107F508734C
:1029D800A3F50875454B05F5A2740FCB07C42380F2
:1029E80002341B0C237005F2531300221A605A603C
:1029F8009A60C3F80B2007F50873A3F508733A4AE1
:102A0800C3F8642107F50873A3F50876384B06F573
:102A1800B4741D460FCD0FC42B68237006F27913CA
:102A280000221A605A609A601A7307F50873A3F5B2
:102A380008732D4AC3F8882107F50873A3F50874AD
:102A48002C4B04F5C6750FCB85E80F0004F5CE7343
:102A580000221A605A609A609A8107F50873A3F5F4
:102A68000873254AC3F8AC2107F50873A3F5087362
:102A7800224A03F5D87407CA84E8070003F5DE7311
:102A880000221A605A609A60DA601A8207F50873A1
:102A9800A3F50873184AC3F8D02107F50873A3F5FE
:102AA80008730D22A3F81C223B46184602F0D8FEF4
:102AB80000BF07F50977BD46F0BD00BF7C99000847
:102AC8009C990008E1250008BC990008DC990008D9
:102AD800FC9900083D2600081C9A00083C9A00084A
:102AE8005C9A00087C9A00087D2600089C9A0008D9
:102AF800BC9A0008DC9A000859270008FC9A0008CC
:102B080080B5D6B000AF022387F85731002387F885
:102B1800563107F5AC73A3F5AA731E4A1846114639
:102B28004FF4A8731A4606F0A1FD02F005FD1A4BF2
:102B3800012283F845253B1D0221184602F002FEBA
:102B4800034687F85731144B002283F8452597F838
:102B58005731DBB2032B12D100BF0F4B93F844352A
:102B6800002BFAD10C4B93F84735022B03D10123E4
:102B780087F8563106E0002387F8563102E0002333
:102B880087F8563197F85631DBB2184607F5AC7717
:102B9800BD4680BD1C9B0008A407002080B5D6B0A8
:102BA80000AF022387F85731002387F8563107F51D
:102BB800AC73A3F5AA731E4A184611464FF4A873BE
:102BC8001A4606F053FD02F0B7FC1A4B012283F8AF
:102BD80045253B1D0221184602F0B4FD034687F83F
:102BE8005731144B002283F8452597F85731DBB24B
:102BF800032B12D100BF0F4B93F84435002BFAD1A9
:102C08000C4B93F84735022B03D1012387F8563133
:102C180006E0002387F8563102E0002387F8563192
:102C280097F85631DBB2184607F5AC77BD4680BD3C
:102C38006C9C0008A407002080B5ACB000AF02234C
:102C480087F8AF30002387F8AE30244A3B1D114681
:102C5800A822184606F00AFD3B1D1846FDF7B2FAF1
:102C680003461A463B1D13441D4A11889278198061
:102C78009A7002F061FC1B4B012283F845253B1D2D
:102C88000121184602F05EFD034687F8AF30154B68
:102C9800002283F8452597F8AF30DBB2032B12D119
:102CA80000BF104B93F84435002BFAD10D4B93F825
:102CB8004735012B03D1012387F8AE3006E0002306
:102CC80087F8AE3002E0002387F8AE3097F8AE30D0
:102CD800DBB21846B037BD4680BD00BF689E00080D
:102CE800649E0008A407002080B5ACB000AF0223A2
:102CF80087F8AF30002387F8AE30234A3B1D1146D2
:102D0800A822184606F0B2FC02F016FC1F4B01225E
:102D180083F845253B1D0121184602F013FD0346A3
:102D280087F8AF30194B002283F8452597F8AF3064
:102D3800DBB2032B1ED100BF144B93F84435002B94
:102D4800FAD1124B93F84735012B0FD10B221049BA
:102D5800104806F03AFC0346002B03D1002387F8FD
:102D6800AE300AE0012387F8AE3006E0002387F88A
:102D7800AE3002E0002387F8AE3097F8AE30DBB211
:102D88001846B037BD4680BD1C9F0008A407002028
:102D9800109F00086C07002080B5ADF52A7D00AFB4
:102DA800022387F8A732002387F8A63207F52A738B
:102DB800A3F529731E4A184611464FF428731A467C
:102DC80006F054FC02F0B8FB1A4B012283F84525A3
:102DD8003B1D0421184602F0B5FC034687F8A732CC
:102DE800144B002283F8452597F8A732DBB2032B52
:102DF80012D100BF0F4B93F84435002BFAD10D4B7D
:102E080093F84735042B03D1012387F8A63206E04F
:102E1800002387F8A63202E0002387F8A63297F845
:102E2800A632DBB2184607F52A77BD4680BD00BF3B
:102E38006CA00008A407002080B582B000AF7860BD
:102E48007B68002B01D1002309E0112200210648EC
:102E580006F097FB7968044806F09BFB01231846A7
:102E68000837BD4680BD00BFF803002080B400AF1E
:102E7800024B1846BD465DF8047B7047F8030020F6
:102E880080B582B000AF78607B68002B01D1002349
:102E980019E0642200210E4806F073FB0C4A0D4B22
:102EA8001B88138079680A4806F073FB0848FDF709
:102EB80089F903461A46064B134406491A460B4637
:102EC8001B881380012318460837BD4680BD00BF04
:102ED800090400200CA3000880B582B000AF786018
:102EE8007B68002B01D1002321E0642200211248D5
:102EF80006F047FB1048FDF765F903461A460E4BE6
:102F080013440E491A460B461B88138079680A48F1
:102F180006F03FFB0848FDF755F903461A46064BED
:102F2800134406491A460B461B881380012318468A
:102F38000837BD4680BD00BF6D0400200CA3000803
:102F480080B582B000AF78607B68002B01D1002388
:102F580021E064220021124806F013FB1048FDF717
:102F680031F903461A460E4B13440E491A460B46CE
:102F78001B88138079680A4806F00BFB0848FDF7A0
:102F880021F903461A46064B134406491A460B46CE
:102F98001B881380012318460837BD4680BD00BF33
:102FA800350500200CA3000880B582B000AF78601A
:102FB8007B68002B01D1002321E064220021124804
:102FC80006F0DFFA1048FDF7FDF803461A460E4BE7
:102FD80013440E491A460B461B88138079680A4821
:102FE80006F0D7FA0848FDF7EDF803461A46064BEF
:102FF800134406491A460B461B88138001231846BA
:103008000837BD4680BD00BF990500200CA3000805
:1030180080B582B000AF78607B68002B01D10023B7
:103028000EE064220021084806F0ABFA7868FDF744
:10303800C9F803461A467968034806F0D8FA012306
:1030480018460837BD4680BD0C06002080B582B002
:1030580000AF78607B68002B01D100230EE00A22C4
:103068000021084806F08DFA7868FDF7ABF80346AA
:103078001A467968034806F0BAFA01231846083751
:10308800BD4680BD7006002080B582B000AF786074
:103098007B68002B01D100230EE064220021084840
:1030A80006F06FFA7868FDF78DF803461A467968D6
:1030B800034806F09CFA012318460837BD4680BD30
:1030C8007A06002080B400AF024B1846BD465DF872
:1030D800047B70477A06002080B582B000AF786024
:1030E8007B68002B01D100230EE0642200210848F0
:1030F80006F047FA7868FDF765F803461A467968D6
:10310800034806F074FA012318460837BD4680BD07
:10311800DE06002080B400AF024B1846BD465DF8BD
:10312800047B7047DE06002080B400AF034B93F8A1
:103138003C311846BD465DF8047B70470C060020FC
:1031480080B483B000AF0346FB71054AFB7982F86F
:103158003C3100BF0C37BD465DF8047B704700BFAB
:103168000C06002080B483B000AF7860044A7B6806
:10317800C2F8403100BF0C37BD465DF8047B70478C
:103188000C06002080B483B000AF786039600C4A28
:103198007B68C2F844313A6813461B019B1A9B00AE
:1031A8001A46074BC3F83821054BD3F83831054A7E
:1031B800136000BF0C37BD465DF8047B704700BF45
:1031C8000C0600205407002080B483B000AF78605C
:1031D8000B46FB70054AFB781370044A7B68536002
:1031E80000BF0C37BD465DF8047B7047840700209C
:1031F80080B500AF0B214FF0904004F051FA072141
:10320800074804F080FA0346012B06D10B214FF042
:10321800904004F05EFA012300E00023184680BDC8
:1032280000080048F0B5ADF2A44D00AF022387F8BE
:103238009F34002387F89E3407F59463A3F29C43D8
:1032480018464FF493631A46002106F09AF907F5D9
:103258009463A3F29C45C44A2B46144620686168CF
:10326800A26807C3A2891A8005F10E0388220021EB
:10327800184606F086F907F59463A3F29C43782272
:10328800C3F8A02007F59463A3F29C43012283F8B6
:10329800A42007F59463A3F29C46B44B06F1A80456
:1032A8001D4628686968AA68EB680FC42B8AAA7C3F
:1032B80023801346A37006F1BB038322002118461E
:1032C80006F05FF907F59463A3F29C437822C3F8EC
:1032D800482107F59463A3F29C43022283F84C210A
:1032E80007F59463A3F29C46A14B06F5A8741D4606
:1032F80028686968AA68EB680FC42869696903C403
:1033080006F5B4737E220021184606F03AF907F54F
:103318009463A3F29C437822C3F8F02107F59463E1
:10332800A3F29C43032283F8F42107F59463A3F2E4
:103338009C468F4B06F5FC741D4628686968AA6888
:10334800EB680FC42869696903C406F504737E2213
:103358000021184606F015F907F59463A3F29C437B
:103368007822C3F8982207F59463A3F29C430422B9
:1033780083F89C2207F59463A3F29C467C4B06F5E0
:1033880028741D4628686968AA68EB680FC428690C
:10339800696903C406F52E737E220021184606F0DB
:1033A800F0F807F59463A3F29C437822C3F840230E
:1033B80007F59463A3F29C43052283F8442307F599
:1033C8009463A3F29C466B4B06F552741D4628681D
:1033D8006968AA68EB680FC42B8A238006F25A33FF
:1033E80084220021184606F0CCF807F59463A3F26E
:1033F8009C43614AC3F8E02307F59463A3F29C4316
:103408007822C3F8E82307F59463A3F29C430622C5
:1034180083F8EC233B1DA8335849184606F0B9F841
:103428003B1DA8331846FCF7CDFE03461A463B1D44
:10343800A8331344524A1188927819809A703B1D18
:1034480003F5A8731846FCF7BDFE03461A463B1D54
:1034580003F5A87313444B4A1C46134607CB206058
:103468006160A2601B7823733B1D03F5A87346496E
:10347800184606F08EF83B1D03F5A8731846FCF7AE
:10348800A1FE03461A463B1D03F5A87313443C4AA4
:103498001188927819809A703B1D03F5FC731846C1
:1034A800FCF790FE03461A463B1D03F5FC731344D4
:1034B800364A1D4614460FCC28606960AA60EB6046
:1034C80007CC28616961AA612388AB833B1D03F59A
:1034D80028731846FCF776FE03461A463B1D03F58B
:1034E800287313442A4A1C4615460FCD2060616094
:1034F800A260E3600FCD20616161A261E36102F027
:103508001BF8244B012283F845253B1D062118464C
:1035180002F018F9034687F89F341E4B002283F8FF
:10352800452597F89F34DBB2032B12D100BF194B06
:1035380093F84435002BFAD1164B93F84735062BF0
:1035480003D1012387F89E3406E0002387F89E34D0
:1035580002E0002387F89E3497F89E34DBB21846C1
:1035680007F2A447BD46F0BD60A3000870A3000899
:1035780084A300089CA300087511000835050020E5
:10358800649E000810A30008F803002020A3000888
:1035980040A30008A407002080B5ACB000AF022308
:1035A80087F8AF30002387F8AE30274A3B1D114615
:1035B800A822184606F05AF801F0BEFF234B012254
:1035C80083F845253B1D0121184602F0BBF8034648
:1035D80087F8AF301D4B002283F8452597F8AF30A8
:1035E800DBB2032B25D100BF184B93F84435002BD1
:1035F800FAD1164B93F84735012B16D10522002135
:10360800134805F0BEFF04220021124805F0B9FF57
:10361800104B00225A810F4B00229A810D4B002239
:103628009A73012387F8AE3006E0002387F8AE309E
:1036380002E0002387F8AE3097F8AE30DBB21846C8
:10364800B037BD4680BD00BFB0A30008A407002066
:10365800FC000020F800002080B5ACB000AF0223C9
:1036680087F8AF30274A3B1D1146A822184605F0B7
:10367800FDFF254B5B89002B03D0234B9B89C82B6F
:1036880001D000233AE03B1D2049184605F081FF90
:103698003B1D1846FCF796FD03461A463B1D13448E
:1036A8001B4A1188927819809A7001F045FF194BCE
:1036B800012283F845253B1D0121184602F042F8F6
:1036C800034687F8AF30134B002283F8452597F857
:1036D800AF30DBB2032B10D100BF0E4B93F844354B
:1036E800002BFAD10B4B93F84735012B03D104F08B
:1036F800AFFA034602E0002300E000231846B03783
:10370800BD4680BD58A40008F8000020FC00002039
:10371800649E0008A4070020F0B5ADF24C5D00AF30
:10372800022387F84735002387F8463507F5A9634C
:10373800A3F2445318464FF4A8631A46002105F033
:1037480020FF07F5A963A3F24455E34A2B46144624
:1037580020686168A26807C3A2891A8005F10E0370
:1037680088220021184605F00CFF07F5A963A3F28B
:1037780044537822C3F8A02007F5A963A3F2445361
:10378800012283F8A42007F5A963A3F24456D34B7A
:1037980006F1A8041D4628686968AA68EB680FC482
:1037A8002869696903C42B7E237006F1C1037D2251
:1037B8000021184605F0E5FE07F5A963A3F2445376
:1037C8007822C3F8482107F5A963A3F244530222DB
:1037D80083F84C2107F5A963A3F24456C04B06F5BC
:1037E800A8741D4628686968AA68EB680FC42B8A04
:1037F800AA7C23801346A37006F263138322002158
:10380800184605F0BEFE07F5A963A3F244537822D3
:10381800C3F8F02107F5A963A3F24453032283F800
:10382800F42107F5A963A3F24456AE4B06F5FC74E0
:103838001D4628686968AA68EB680FC42869696921
:1038480003C406F504737E220021184605F099FE8C
:1038580007F5A963A3F244537822C3F8982207F521
:10386800A963A3F24453042283F89C2207F5A963B1
:10387800A3F244569B4B06F528741D4628686968D0
:10388800AA68EB680FC42869696903C406F52E7332
:103898007E220021184605F074FE07F5A963A3F2FD
:1038A80044537822C3F8402307F5A963A3F244538D
:1038B800052283F8442307F5A963A3F24456894BEC
:1038C80006F552741D4628686968AA68EB680FC433
:1038D8002869696903C406F558737E2200211846D1
:1038E80005F04FFE07F5A963A3F244537822C3F805
:1038F800E82307F5A963A3F24453062283F8EC23CF
:1039080007F5A963A3F24456774B06F57C741D4668
:1039180028686968AA68EB680FC42B8A238006F2B6
:10392800024384220021184605F02BFE07F5A963FF
:10393800A3F244536D4AC3F8882407F5A963A3F298
:1039480044537822C3F8902407F5A963A3F244539B
:10395800072283F894243B1D03F5A873644918468D
:1039680005F017FE3B1D03F5A8731846FCF72AFC63
:1039780003461A463B1D03F5A87313445D4A118894
:10398800927819809A703B1D03F5FC731846FCF772
:1039980019FC03461A463B1D03F5FC731344564AAB
:1039A80014469C4604F1200E654626460FCE286034
:1039B8006960AA60EB6010340CF1100C7445F3D107
:1039C8006546234607CB28606960AA603B1D03F55E
:1039D80028731846FCF7F6FB03461A463B1D03F509
:1039E80028731344454A1C46134607CB2060616080
:1039F800A2603B1D03F528734149184605F0C9FD2F
:103A08003B1D03F528731846FCF7DCFB03461A46F2
:103A18003B1D03F528731344364A118892781980A0
:103A28009A703B1D03F552731846FCF7CBFB03460F
:103A38001A463B1D03F552731344324A14469C46FA
:103A480004F1200E654626460FCE28606960AA60FC
:103A5800EB6010340CF1100C7445F3D16346224628
:103A68001068186012791A7101F066FD264B012260
:103A780083F845253B1D0721184601F063FE0346E0
:103A880087F84735204B002283F8452597F84735B6
:103A9800DBB2032B15D100BF1B4B93F84435002B29
:103AA800FAD1194B93F84735072B06D1174B01224A
:103AB8009A73012387F8463506E0002387F84635D0
:103AC80002E0002387F8463597F84635DBB21846FA
:103AD80007F24C57BD46F0BD60A3000860A500087A
:103AE80070A3000884A300089CA3000875110008AF
:103AF80009040020649E000800A500082CA5000801
:103B0800F803002038A50008A4070020F8000020CA
:103B1800F0B5ADF24C5D00AF022387F847350023BE
:103B280087F8463507F5A963A3F2445318464FF4BE
:103B3800A8631A46002105F024FD07F5A963A3F23E
:103B48004455E24A2B46144620686168A26807C3B8
:103B5800A2891A8005F10E0388220021184605F073
:103B680010FD07F5A963A3F244537822C3F8A020F7
:103B780007F5A963A3F24453012283F8A42007F5AB
:103B8800A963A3F24456D24B06F1A8041D4628683F
:103B98006968AA68EB680FC42869696903C42B7E41
:103BA800237006F1C1037D220021184605F0E9FCC7
:103BB80007F5A963A3F244537822C3F8482107F50F
:103BC800A963A3F24453022283F84C2107F5A963A1
:103BD800A3F24456BF4B06F5A8741D4628686968C9
:103BE800AA68EB680FC42B8AAA7C23801346A370AB
:103BF80006F2631383220021184605F0C2FC07F57C
:103C0800A963A3F244537822C3F8F02107F5A96306
:103C1800A3F24453032283F8F42107F5A963A3F21E
:103C28004456AD4B06F5FC741D4628686968AA68B9
:103C3800EB680FC42869696903C406F504737E221A
:103C48000021184605F09DFC07F5A963A3F244532B
:103C58007822C3F8982207F5A963A3F244530422F3
:103C680083F89C2207F5A963A3F244569A4B06F5FC
:103C780028741D4628686968AA68EB680FC4286913
:103C8800696903C406F52E737E220021184605F0E3
:103C980078FC07F5A963A3F244537822C3F84023BC
:103CA80007F5A963A3F24453052283F8442307F5D3
:103CB800A963A3F24456884B06F552741D4628683A
:103CC8006968AA68EB680FC42869696903C406F5BE
:103CD80058737E220021184605F053FC07F5A963A6
:103CE800A3F244537822C3F8E82307F5A963A3F2A3
:103CF8004453062283F8EC2307F5A963A3F244563C
:103D0800764B06F57C741D4628686968AA68EB68D6
:103D18000FC42B8A238006F202438422002118460E
:103D280005F02FFC07F5A963A3F244536C4AC3F8C6
:103D3800882407F5A963A3F244537822C3F8902492
:103D480007F5A963A3F24453072283F894243B1D83
:103D580003F5A8736349184605F01BFC3B1D03F5E2
:103D6800A8731846FCF72EFA03461A463B1D03F5BE
:103D7800A87313445C4A1188927819809A703B1D85
:103D880003F5FC731846FCF71DFA03461A463B1D5B
:103D980003F5FC731344554A14469C4604F1200E5F
:103DA800654626460FCE28606960AA60EB6010342D
:103DB8000CF1100C7445F3D16546234607CB2860F7
:103DC8006960AA603B1D03F528731846FCF7FAF9E9
:103DD80003461A463B1D03F528731344444A1C4600
:103DE800134607CB20606160A2603B1D03F5287372
:103DF8004049184605F0CDFB3B1D03F528731846CE
:103E0800FCF7E0F903461A463B1D03F528731344F3
:103E1800354A1188927819809A703B1D03F55273C0
:103E28001846FCF7CFF903461A463B1D03F55273B3
:103E38001344314A14469C4604F1200E6546264632
:103E48000FCE28606960AA60EB6010340CF1100C8A
:103E58007445F3D1634622461068186001F06CFB84
:103E6800264B012283F845253B1D0721184601F002
:103E780069FC034687F84735204B002283F845251F
:103E880097F84735DBB2032B15D100BF1B4B93F8CE
:103E98004435002BFAD1194B93F84735072B06D137
:103EA800174B03229A73012387F8463506E000234F
:103EB80087F8463502E0002387F8463597F84635F7
:103EC800DBB2184607F24C57BD46F0BD60A30008A8
:103ED80060A5000870A3000884A300089CA300083C
:103EE800751100086D040020649E000800A50008F4
:103EF8002CA50008F80300207CA50008A4070020D2
:103F0800F8000020F0B5ADF24C5D00AF022387F851
:103F18004735002387F8463507F5A963A3F24453CC
:103F280018464FF4A8631A46002105F02AFB07F546
:103F3800A963A3F24455E24A2B46144620686168F7
:103F4800A26807C3A2891A8005F10E0388220021FE
:103F5800184605F016FB07F5A963A3F24453782227
:103F6800C3F8A02007F5A963A3F24453012283F8FC
:103F7800A42007F5A963A3F24456D24B06F1A8047E
:103F88001D4628686968AA68EB680FC428696969CA
:103F980003C42B7E237006F1C1037D22002118463D
:103FA80005F0EFFA07F5A963A3F244537822C3F8A2
:103FB800482107F5A963A3F24453022283F84C2150
:103FC80007F5A963A3F24456BF4B06F5A8741D462E
:103FD80028686968AA68EB680FC42B8AAA7C2380C2
:103FE8001346A37006F2631383220021184605F0D6
:103FF800C8FA07F5A963A3F244537822C3F8F0215D
:1040080007F5A963A3F24453032283F8F42107F5C3
:10401800A963A3F24456AD4B06F5FC741D46286807
:104028006968AA68EB680FC42869696903C406F55A
:1040380004737E220021184605F0A3FA07F5A96348
:10404800A3F244537822C3F8982207F5A963A3F290
:104058004453042283F89C2207F5A963A3F244562B
:104068009A4B06F528741D4628686968AA68EB68A3
:104078000FC42869696903C406F52E737E220021DE
:10408800184605F07EFA07F5A963A3F2445378228F
:10409800C3F8402307F5A963A3F24453052283F824
:1040A800442307F5A963A3F24456884B06F55274D6
:1040B8001D4628686968AA68EB680FC42869696999
:1040C80003C406F558737E220021184605F059FAF4
:1040D80007F5A963A3F244537822C3F8E82307F548
:1040E800A963A3F24453062283F8EC2307F5A963D6
:1040F800A3F24456764B06F57C741D462868696819
:10410800AA68EB680FC42B8A238006F20243842234
:104118000021184605F035FA07F5A963A3F24453C0
:104128006C4AC3F8882407F5A963A3F2445378229C
:10413800C3F8902407F5A963A3F24453072283F830
:1041480094243B1D03F5A8736349184605F021FA2A
:104158003B1D03F5A8731846FCF734F803461A46C6
:104168003B1D03F5A87313445C4A118892781980A3
:104178009A703B1D03F5FC731846FCF723F80346B9
:104188001A463B1D03F5FC731344554A14469C46D6
:1041980004F1200E654626460FCE28606960AA60A5
:1041A800EB6010340CF1100C7445F3D165462346CE
:1041B80007CB28606960AA603B1D03F52873184681
:1041C800FCF700F803461A463B1D03F52873134411
:1041D800444A1C46134607CB20606160A2603B1D21
:1041E80003F528734049184605F0D3F93B1D03F53C
:1041F80028731846FBF7E6FF03461A463B1D03F5EE
:1042080028731344354A1188927819809A703B1D97
:1042180003F552731846FBF7D5FF03461A463B1DB4
:1042280003F552731344314A14469C4604F1200E98
:10423800654626460FCE28606960AA60EB60103498
:104248000CF1100C7445F3D1624623461B88138089
:1042580001F072F9264B012283F845253B1D042104
:10426800184601F06FFA034687F84735204B0022BD
:1042780083F8452597F84735DBB2032B15D100BFE6
:104288001B4B93F84435002BFAD1194B93F847355B
:10429800042B06D1174B04229A73012387F846355D
:1042A80006E0002387F8463502E0002387F8463504
:1042B80097F84635DBB2184607F24C57BD46F0BDB5
:1042C80060A3000860A5000870A3000884A3000884
:1042D8009CA3000875110008D1040020649E000802
:1042E80000A500082CA50008F8030020A0A50008D8
:1042F800A4070020F8000020B0B5ACB000AF02233E
:1043080087F8AF30002387F8AE30644A3B1D11466A
:10431800A822184605F0AAF9614B5B89002B07D043
:104328005F4B9B89C82B03D15D4B9B7B002B01D135
:104338000023AFE05A4B9B7B013B032B6CD801A2B7
:1043480052F823F05D430008C34300089343000874
:10435800F34300083B1D1846FBF734FF03461A4693
:104368003B1D13444F4A1D4614460FCC2860696014
:10437800AA60EB602388A2782B821346AB743B1D9E
:104388004949184605F005F947E03B1D1846FBF773
:1043980019FF03461A463B1D1344444A1D4614465A
:1043A8000FCC28606960AA60EB6023882B823B1DD4
:1043B8003D49184605F0EDF82FE03B1D1846FBF780
:1043C80001FF03461A463B1D1344394A1D4614464D
:1043D8000FCC28606960AA60EB6023782B743B1DC2
:1043E8003149184605F0D5F817E03B1D1846FBF78C
:1043F800E9FE03461A463B1D13442E4A1C46134643
:1044080007CB20606160A2601B7823733B1D26499F
:10441800184605F0BEF800E000BF3B1D1846FBF744
:10442800D1FE03461A463B1D1344234A118892784D
:1044380019809A7001F080F8204B012283F84525F5
:104448003B1D0121184601F07DF9034687F8AF307E
:104458001A4B002283F8452597F8AF30DBB2032BBF
:1044680012D100BF154B93F84435002BFAD1134BEA
:1044780093F84735012B03D1012387F8AE3006E0C6
:10448800002387F8AE3002E0002387F8AE3097F8B3
:10449800AE30DBB21846B037BD46B0BD10A6000836
:1044A800F8000020C4A50008FC000020D8A50008DA
:1044B800ECA5000800A60008649E0008A4070020D8
:1044C80080B5ACB000AF022387F8AF30002387F87F
:1044D800AE30204A3B1D1146A822184605F0C6F802
:1044E80001F02AF81C4B012283F845253B1D0121C8
:1044F800184601F027F9034687F8AF30164B00221B
:1045080083F8452597F8AF30DBB2032B12D100BFF3
:10451800114B93F84435002BFAD10F4B93F84735DC
:10452800012B03D1012387F8AE3006E0002387F87A
:10453800AE3002E0002387F8AE3097F8AE30DBB239
:10454800002B01D0054B00E000231846B037BD46CC
:1045580080BD00BFB8A60008A407002008010020FD
:1045680080B5ACB000AF022387F8AF30002387F8DE
:10457800AE30214A3B1D1146A822184605F076F8B0
:1045880000F0DAFF1D4B012283F845253B1D012170
:10459800184601F0D7F8034687F8AF30174B0022CA
:1045A80083F8452597F8AF30DBB2032B12D100BF53
:1045B800124B93F84435002BFAD1104B93F847353A
:1045C800012B03D1012387F8AE3006E0002387F8DA
:1045D800AE3002E0002387F8AE3097F8AE30DBB299
:1045E800012B03D1064B93F82D3000E00023184629
:1045F800B037BD4680BD00BF60A70008A4070020F3
:104608000801002080B5ACB000AF022387F8AF30B6
:10461800184A3B1D1146A822184605F027F800F055
:104628008BFF154B012283F845253B1D01211846B8
:1046380001F088F8034687F8AF300F4B002283F863
:10464800452597F8AF30DBB2032B0ED100BF0A4BDC
:1046580093F84435002BFAD1074B93F84735012BD3
:1046680001D1064B02E0002300E000231846B037D2
:10467800BD4680BD58A90008A407002054010020A9
:1046880090B585B000AF78600023FB600023FB6025
:1046980018E0FA6813469B0013449A0013440F4A23
:1046A8009C187868FBF78EFD03461A467968204601
:1046B80004F08BFF0346002B01D101230AE0FB68BD
:1046C8000133FB60054B93F864301A46FB689A4245
:1046D800DFDC002318461437BD4690BD5401002086
:1046E80080B5ADF5547D00AF022387F84F33002322
:1046F80087F84E3307F55473A3F553731E4A1846CB
:1047080011464FF452731A4604F0B0FF00F014FF3C
:104718001A4B012283F845253B1D0521184601F057
:1047280011F8034687F84F33144B002283F84525C8
:1047380097F84F33DBB2032B12D100BF0F4B93F81E
:104748004435002BFAD10D4B93F84735052B03D18F
:10475800012387F84E3306E0002387F84E3302E042
:10476800002387F84E3397F84E33DBB2184607F527
:104778005477BD4680BD00BFA8AA0008A407002042
:1047880080B5ADF52A7D00AF022387F8A732002354
:1047980087F8A63207F52A73A3F52973604A1846E5
:1047A80011464FF428731A4604F060FF3B1DA833E6
:1047B8001846FBF707FD03461A463B1DA83313446A
:1047C80058491A460B461B8813803B1DA833564987
:1047D800184604F0DEFE3B1DA8331846FBF7F2FC32
:1047E80003461A463B1DA8331344504A1068186004
:1047F80092889A803B1D03F5FC731846FBF7E2FC90
:1048080003461A463B1D03F5FC73134445491A46F3
:104818000B461B8813803B1D03F5FC73444918465F
:1048280004F0B7FE3B1D03F5FC731846FBF7CAFC02
:1048380003461A463B1D03F5FC7313443D491A46CB
:104848000B461B8813803B1D03F5FC733A49184639
:1048580004F09FFE3B1D03F5FC731846FBF7B2FC02
:1048680003461A463B1D03F5FC7313442D491A46AB
:104878000B461B8813803B1D03F5FC731846FBF79A
:10488800A1FC03461A463B1D03F5FC7313442B4950
:104898001A460B4603CB1060516000F04DFE284BC2
:1048A800012283F845253B1D0421184600F04AFFE4
:1048B800034687F8A732224B002283F8452597F84C
:1048C800A732DBB2032B12D100BF1D4B93F844353E
:1048D800002BFAD11A4B93F84735042B03D1012347
:1048E80087F8A63206E0002387F8A63202E0002304
:1048F80087F8A63297F8A632DBB2012B04D10C4B0D
:10490800022283F83C2103E0094B032283F83C216F
:104918000C4B1B88184607F52A77BD4680BD00BF9B
:1049280004AE00080CA30008F8030020F0AD00084E
:104938000C060020F8AD000870060020FCAD000849
:10494800A4070020BC01002080B5ADF5007D00AFB4
:10495800022387F8FF31002387F8FE3107F500733B
:10496800A3F5FE731E4A184611464FF4FC731A4607
:1049780004F07CFE00F0E0FD1A4B012283F8452587
:104988003B1D0321184600F0DDFE034687F8FF3182
:10499800144B002283F8452597F8FF31DBB2032B2F
:1049A80012D100BF0F4B93F84435002BFAD10D4BB1
:1049B80093F84735032B03D1012387F8FE3106E02E
:1049C800002387F8FE3102E0002387F8FE3197F8CC
:1049D800FE31DBB2184607F50077BD4680BD00BF43
:1049E800A4B00008A407002080B5D6B000AF022309
:1049F80087F85531002387F854310023A7F856313A
:104A080007F5AC73A3F5AA732D4A184611464FF45F
:104A1800A8731A4604F02AFE2A48FBF7D3FB03467C
:104A2800A7F85631B7F856311946274802F0B6FAB2
:104A38003B1D2549184604F0ACFD3B1D1846FBF705
:104A4800C1FB03461A463B1D1344204A10681860F0
:104A580012791A7100F070FD1D4B012283F845256B
:104A68003B1D0221184600F06DFE034687F85531BC
:104A7800174B002283F8452597F85531DBB2032BF5
:104A880012D100BF124B93F84435002BFAD1104BCA
:104A980093F84735022B03D1012387F8543106E0F8
:104AA800002387F8543102E0002387F8543197F83F
:104AB8005431DBB2184607F5AC77BD4680BD00BF60
:104AC800A4B200087A060020000600209CB2000864
:104AD800A407002080B5ADF5027D00AF07F502738D
:104AE800A3F501731860022387F80532002387F8BD
:104AF80004320023A7F8063207F50273A3F5FE7304
:104B08005F4A184611464FF4FC731A4604F0AEFD8E
:104B18005C48FBF757FB0346A7F80632062200213C
:104B2800594804F02EFDB7F806321946564802F0E7
:104B380035FA07F10C035449184604F02AFD07F129
:104B48000C031846FBF73EFB03461A4607F10C0315
:104B580013444E4A1188927819809A7003F078F8B5
:104B680003464B4A136007F50273A3F501731868EF
:104B7800FBF728FB0346A7F8063206220021424825
:104B880004F0FFFCB7F8063219463F4802F006FA6F
:104B98003F4B1B6807F50272A2F5017212689A4230
:104BA80025D03B4B1B6804220021184604F0E9FC81
:104BB800374B1868B7F8062207F50273A3F5017397
:104BC800196804F014FD3048FBF7FCFA03461A464E
:104BD8002D4B13442D4A1188927819809A7007F149
:104BE8000C03A8332849184604F0D3FC12E02648E1
:104BF800FBF7E8FA03461A46234B1344234A118865
:104C0800927819809A7007F10C03A8331E49184648
:104C180004F0BFFC00F090FC1E4B012283F84525F0
:104C280007F10C030321184600F08CFD034687F8B2
:104C38000532184B002283F8452597F80532DBB278
:104C4800032B12D100BF134B93F84435002BFAD134
:104C5800104B93F84735032B03D1012387F804320F
:104C680006E0002387F8043202E0002387F80432C4
:104C780097F80432DBB2184607F50277BD4680BDC7
:104C8800F4B30008DE06002000060020649E000839
:104C980008060020A407002080B400AF024B184685
:104CA800BD465DF8047B70473501002080B5ACB087
:104CB80000AF022387F8AF30002387F8AE301D4AD3
:104CC8003B1D1146A822184604F0D0FC00F034FC25
:104CD800194B012283F845253B1D0121184600F098
:104CE80031FD034687F8AF30134B002283F8452582
:104CF80097F8AF30DBB2032B12D100BF0E4B93F8FD
:104D08004435002BFAD10C4B93F84735012B03D1CE
:104D1800012387F8AE3006E0002387F8AE3002E0C2
:104D2800002387F8AE3097F8AE30DBB21846B037BC
:104D3800BD4680BDECB50008A407002080B5ACB026
:104D480000AF022387F8AF30002387F8AE301D4A42
:104D58003B1D1146A822184604F088FC00F0ECFB25
:104D6800194B012283F845253B1D0121184600F007
:104D7800E9FC034687F8AF30134B002283F845253A
:104D880097F8AF30DBB2032B12D100BF0E4B93F86C
:104D98004435002BFAD10C4B93F84735012B03D13E
:104DA800012387F8AE3006E0002387F8AE3002E032
:104DB800002387F8AE3097F8AE30DBB21846B0372C
:104DC800BD4680BD94B60008A407002080B500AF9A
:104DD8000321064804F07EFA0346002B02DC4FF05C
:104DE800FF3300E00023184680BD00BFB54F000820
:104DF80080B400AF0D4B00221A700D4B93F842356A
:104E080019460B4AA82301FB03F31344A0331B687C
:104E1800084A1360084B00221A70044B01221A70CA
:104E280000BFBD465DF8047B704700BF8D070020BA
:104E3800A4070020900700208C07002080B400AF52
:104E4800064B00221A70064B00221A60054B0022FE
:104E58001A7000BFBD465DF8047B70478D070020BF
:104E6800900700208C07002090B583B000AF7860D1
:104E78007B6893F89C200E4B83F843250D4B012249
:104E88001A707B681C467B681846FBF79BF903463B
:104E98001946204602F050FE074B01221A70FFF710
:104EA800A7FF064B01221A7000BF0C37BD4690BD04
:104EB800A40700209C0700208C0700209D070020E5
:104EC80090B585B000AF78600B467B800023FB73FC
:104ED8000023BB737B68BB605EE0BB680133BB60CB
:104EE800BB681B780D2BF8D0BB681B780A2BF4D055
:104EF8000023BB7347E0BA7B1346DB0013449B00D7
:104F0800294A9C18BA7B1346DB0013449B00264AA7
:104F180013441846FBF756F903461A46B968204663
:104F280004F053FB0346002B28D1BA7B1E491346D5
:104F3800DB0013449B000B4420331B68002B14D068
:104F4800BA7B19491346DB0013449B000B442033FA
:104F58001B687A881146B86898470346002B01DA1F
:104F680000231DE00123FB7301E00023FB734FF4D2
:104F780000620021786804F004FB0BE00023FB7357
:104F8800BB7B0133BB73BB7B9AB2074BB3F81C32B4
:104F98009A42B0D30023BB60BB68002BA0D1FB7B37
:104FA80018461437BD4690BDEC0C002080B500AF04
:104FB800954802F0F9FD0346944A1360934B1B6829
:104FC800002B00F0D580924B01221A708E4B1B6883
:104FD8008E4A126892B211461846FFF771FF0346CF
:104FE8001A468C4B1A708B4B1B78002B40F0C080F4
:104FF800894B1B78012B40F0BB80FFF71FFF874BC5
:1050080093F842351946854AA82301FB03F3134454
:1050180098331B68002B00F09D80804B93F8423535
:1050280019467E4AA82301FB03F3134498331B68EF
:10503800754A12681046984703461A46774B83F814
:105048004625774B01221A70744B93F94635013384
:10505800042B7CD801A252F823F000BF7950000835
:10506800CB5000082D510008CB50000821510008F2
:105078006A4B93F842351946684AA82301FB03F3A3
:1050880013449C331B78002B18D0644B93F842359B
:105098006249A82203FB02F20A449C321278013AC0
:1050A800D0B25E4AA82101FB03F313449C330246A5
:1050B8001A705A4B002283F847254BE000F03CFA5F
:1050C80048E0564B93F84435002B42D0534B93F8A5
:1050D8004435013BDAB2514B83F844254F4B93F8E2
:1050E800423519464D4AA82301FB03F31344A43360
:1050F8001A784A4B83F84725484B93F842350133D1
:105108005A4203F0070302F0070258BF5342DAB2CB
:10511800424B83F842251CE0414B00221A70FFF7EE
:1051280067FE17E03D4B002283F844253B4B93F87C
:1051380042351946394AA82301FB03F31344A43323
:105148001A78364B83F84725FFF778FE02E000BF50
:1051580000E000BF314B93F94635032B02D02E4BAC
:1051680000221A702F4B00221A702F4B01221A703E
:10517800274B00221A702A4B1B78032B00F2E4807D
:1051880001A252F823F000BF3D5300083552000831
:10519800A151000823530008204B93F84435002BF5
:1051A80000F0D4801D4B93F84535002B40F0CE809D
:1051B800194B1B78002B40F0C980184B93F84225F7
:1051C800164B93F841359A4200F2C08002F02AFD4E
:1051D80003460D4A13600C4B1B684FF40062002114
:1051E800184604F0CEF90D4B93F842351A46A82319
:1051F80002FB03F3094A13441846FFF735FE084B30
:1052080001221A70A2E000BF98070020940700202E
:105218009E070020A20700209C070020A40700206A
:10522800000000209D070020A0070020544B1B7899
:10523800012B64D1534B1B78012B60D1524B93F84F
:105248004335002B16D0504B93F842354E49A822CF
:1052580003FB02F20A449C321278013AD0B24A4A5D
:10526800A82101FB03F313449C3302461A70474BF1
:1052780000221A70444B93F842351946424AA82333
:1052880001FB03F313449C331B78002B1ED13E4BC8
:1052980093F84435002B19D03B4B93F84235013332
:1052A8005A4203F0070302F0070258BF5342DAB22A
:1052B800354B83F84225344B93F84435013BDAB239
:1052C800314B83F84425314B00221A70304B1B7840
:1052D8000133DAB22E4B1A702D4B1B78022B03D9EF
:1052E8002C4B03221A7002E02A4B02221A702A4B16
:1052F80000221A70234B00221A70FFF79FFD264BDD
:105308001B78012B24D1234B02221A70224B002236
:105318001A701F4B00221A701AE0204B01221A70D3
:10532800194B002283F8472500F006F9194B022291
:105338001A7010E0124B1B78012B0BD1FFF77EFD82
:10534800144B03221A7005E000BF04E000BF02E01E
:1053580000BF00E000BF124B1A78124B1B789A422C
:10536800BFF426AE0E4B1B78002B3FF421AE0C4B3E
:105378005B680C4898470B4B00221A7018E600BF70
:105388008C0700209D070020A40700209C07002010
:105398009F07002000000020A0070020A107002090
:1053A80084070020B901002080B400AF064B93F8B1
:1053B8004435072B01D9012300E000231846BD46D8
:1053C8005DF8047B704700BFA407002080B582B059
:1053D80000AF78607B6896220021184604F0D1F867
:1053E8007B68002283F89C207B680022C3F8A020F9
:1053F8007B680022C3F898207B68002283F8A420E9
:1054080000BF0837BD4680BD80B582B000AF786068
:10541800FFF7CAFF0346002B01D0002384E0444B6A
:1054280093F84435002B0ED0414B93F841350133A6
:105438005A4203F0070302F0070258BF5342DAB298
:105448003B4B83F841253A4B93F841351A46A8233C
:1054580002FB03F3364A134496220021184604F04F
:1054680090F8334B93F841351A46A82302FB03F30F
:105478002F4A13447A681146184604F0EFF82C4B6B
:1054880093F8413518467B6893F89C10284AA8235E
:1054980000FB03F313449C330A461A707B68D3F865
:1054A8009830002B0ED0224B93F8413518467B6874
:1054B800D3F898201E49A82300FB03F30B44983324
:1054C8001A600BE01A4B93F841351946184AA8237D
:1054D80001FB03F313449833164A1A60144B93F8EC
:1054E800413518467B68D3F8A0201149A82300FB52
:1054F80003F30B44A0331A600D4B93F8413518465B
:105508007B6893F8A4100A4AA82300FB03F313440A
:10551800A4330A461A70064B93F844350133DAB2BD
:10552800034B83F84425032318460837BD4680BD3E
:10553800A4070020B90B000880B500AF344B002247
:105548001A703EE0324B1B781A46A82302FB03F37D
:10555800304A134496220021184604F012F82C4BC6
:105568001B7819462B4AA82301FB03F313449C33E9
:1055780000221A70264B1B781946264AA82301FBDD
:1055880003F31344A03300221A60214B1B781946F9
:10559800204AA82301FB03F31344983300221A601E
:1055A8001B4B1B7819461B4AA82301FB03F3134422
:1055B800A43300221A70164B1B780133DAB2144B4D
:1055C8001A70134B1B78072BBCD9124B002283F897
:1055D8004025104B002283F841250E4B002283F80A
:1055E80042250C4B002283F843250A4B002283F8FE
:1055F8004425084B002283F84525064BFF2283F8F3
:105608004625044B002283F8472500BF80BD00BF14
:105618000C0F0020A407002080B500AF474B93F87B
:105628004025464B93F842359A4201D1022383E044
:10563800424B93F84435002B01D101237CE03F4BCA
:1056480093F842253D4B93F840359A4247D23B4B5D
:1056580093F840253A4B1A7018E0394B1B781A46D4
:10566800A82302FB03F3354A13441846FFF7AEFE9E
:10567800324B93F84435013BDAB2304B83F844257A
:105688002F4B1B780133DAB22D4B1A702C4B1B7839
:10569800072BE2D92A4B00221A7018E0284B1B78F6
:1056A8001A46A82302FB03F3244A13441846FFF7BB
:1056B8008DFE224B93F84435013BDAB21F4B83F839
:1056C80044251F4B1B780133DAB21D4B1A701B4B54
:1056D80093F842251A4B1B789A42DFD825E0174BDE
:1056E80093F84025164B1A7018E0154B1B781A468C
:1056F800A82302FB03F3114A13441846FFF766FE7A
:105708000E4B93F84435013BDAB20C4B83F8442531
:105718000B4B1B780133DAB2094B1A70074B93F81D
:105728004225074B1B789A42DFD8044B93F8422551
:10573800024B83F840250323184680BDA4070020A8
:105748000D0F002080B582B000AF78600B467B80DB
:10575800154A7B881380154B93F844351A467B8885
:105768001344082B01DD02231AE0FFF755FF12E06E
:105778007B880D4A12889B1A1A46A82302FB03F35A
:105788007A6813441846FFF73FFE074B1B88013B16
:105798009AB2054B1A80044B1B88002BE8D10323CF
:1057A80018460837BD4680BD0E0F0020A40700200C
:1057B80080B584B000AF78600023FB737B6800225B
:1057C800A3F81C220023FB7318E0FA7B1346DB00C6
:1057D80013449B007A6813441E220021184603F0E4
:1057E800D0FEFA7B79681346DB0013449B000B4418
:1057F800203300221A60FB7B0133FB73FB7B0E2BEB
:10580800E3D900BF00BF1037BD4680BD80B582B068
:1058180000AF78600B46FB70FB780F2B01D9022391
:1058280017E0FA781346DB0013449B000B4A134435
:105838007A681146184603F011FFFA787B68196AEE
:1058480006481346DB0013449B00034420331960C9
:10585800032318460837BD4680BD00BFEC0C002066
:1058680080B584B000AF78600023FB732048FFF751
:105878009FFF1F4BB3F81C321A467B68B3F81C32E3
:1058880013440F2B01DD02232EE00023FB7318E0E5
:10589800174BB3F81C321A46FB7B1A441346DB003D
:1058A80013449B007A68D018114BB3F81C32DAB253
:1058B800FB7B1344DBB21946FFF7A8FFFB7B0133E0
:1058C800FB73FB7B9AB27B68B3F81C329A42DFD336
:1058D800074BB3F81C227B68B3F81C3213449AB206
:1058E800034BA3F81C22032318461037BD4680BD7E
:1058F800EC0C002080B485B000AF786041F205530D
:10590800FB6006E0FB685A01FB681A447B89134474
:10591800FB607B685A1C7A601B787B817B89002B33
:10592800F0D1FB6818461437BD465DF8047B704714
:1059380080B487B000AFF860B9603B601346FB7174
:105948000023FB823B8C002B21D1BA68531CBB601F
:10595800FB68591CF96012781A70FB8A0133FB82C4
:10596800FB8A3A689A4201DC00231FE0BB681B7877
:10597800FA799A42E9D10FE0BA68531CBB60FB6818
:10598800591CF96012781A703B8C013B3B843B8CA4
:10599800002BF1D1012309E0FB685A1CFA60BA68B0
:1059A80012781A70FB6800221A70012318461C37F7
:1059B800BD465DF8047B704780B487B000AF78605F
:1059C80039600023FB820123FB7300233B613B68A2
:1059D8003B610FE03B6901333B61FB8A0133FB828A
:1059E800FB8AB3F5806F05D10023FB820223FB738A
:1059F800FB7B29E03B691B787B2B03D03B691B7839
:105A08005B2BE7D17B683A691A607B683A699A60D0
:105A18007B6800225A617B6800225A607B680022FA
:105A28001A613B691B787B2B03D17B6801221A76AC
:105A380006E03B691B785B2B02D17B6802221A7651
:105A48007B6800221A73FB7B18461C37BD465DF83D
:105A5800047B704790B58BB002AF786000237B82DF
:105A680000233B820123BB8100237B8100233B81F0
:105A78007B689B687B617B681B7E012B40F04782BB
:105A88000CE07B8A01337B827B8A7F2B06D900233B
:105A98007B820223BB81012300F027BC7B69013391
:105AA8007B617B691B78222BEBD17B69FB610CE066
:105AB8007B8A01337B827B8A7F2B06D900237B82FA
:105AC8000223BB81012300F010BC7B6901337B6199
