:020000040800F2
:1050000000000120315C00089D5A0008A55A0008E4
:10501000AD5A0008B55A0008BD5A0008000000004B
:10502000000000000000000000000000C55A000859
:10503000D35A000800000000E15A0008EF5A0008A7
:10504000815C0008815C0008815C0008815C0008CC
:10505000815C0008815C0008815C0008815C0008BC
:10506000815C0008815C0008815C0008815C0008AC
:10507000815C0008815C0008815C0008815C00089C
:10508000815C0008815C0008815C0008815C00088C
:10509000815C0008815C0008815C0008815C00087C
:1050A000815C0008815C0008815C0008815C00086C
:1050B000815C0008815C0008815C0008815C00085C
:1050C000815C0008815C0008815C0008815C00084C
:1050D000815C0008815C0008FD5A0008815C0008C2
:1050E000815C0008815C0008815C00080000000011
:1050F00000000000000000000000000000000000B0
:10510000815C00080000000000000000815C0008D5
:10511000815C0008815C0008815C000800000000E0
:10512000815C0008815C0008815C0008815C0008EB
:10513000815C00080000000000000000000000008A
:10514000815C0008815C0008000000000000000095
:10515000000000000000000000000000000000004F
:10516000815C0008815C0008815C0008815C0008AB
:10517000815C0008815C0008815C0008815C00089B
:10518000815C0008815C0008000000000000000055
:04519000815C000836
:1051940010B5054C237833B9044B13B10448AFF36D
:1051A40000800123237010BD1C00002000000000BB
:1051B40068A3000808B5034B1BB103490348AFF3C8
:1051C400008008BD000000002000002068A3000843
:1051D40080B485B000AF78600B467B800023FB81F0
:1051E40007E0FB897A68134400221A70FB890133B3
:1051F400FB81FA897B889A42F3D300BF00BF14373E
:10520400BD465DF8047B704780B483B000AF78601E
:1052140002E07B68013B7B607B68002BF9D100BF17
:1052240000BF0C37BD465DF8047B704780B487B07F
:1052340000AFF860B9601346FB800023FB820AE0EC
:10524400FB8ABA681A44FB8AF9680B4412781A700C
:10525400FB8A0133FB82FA8AFB889A42F0D300BFAF
:1052640000BF1C37BD465DF8047B704780B500AFB6
:1052740001220821184801F08BF901224FF4004162
:105284004FF0904001F084F901220421134801F009
:105294007FF96420FFF7B8FF00224FF400414FF07C
:1052A400904001F075F9002204210C4801F070F9D6
:1052B4006420FFF7A9FF01224FF400414FF0904012
:1052C40001F066F901220421044801F061F9C820C3
:1052D400FFF79AFF00BF80BD00040048000C00489F
:1052E40080B582B000AF134B05221A700023FB7106
:1052F400114802F0DBFD00220421104801F048F9B6
:10530400642301220B490C4802F0A3FEF91D01237A
:105314000122094803F012F801220421074801F090
:1053240037F9054802F06DFEFB7918460837BD468B
:1053340080BD00BF3800002054020020000C00484B
:1053440080B582B000AF0346FB710D4802F0AEFD9C
:10535400002204210B4801F01BF9F91D012301224D
:10536400074802F076FE01220421064801F010F9F4
:10537400034802F046FE00BF0837BD4680BD00BFAB
:1053840054020020000C004880B586B000AFF860DD
:10539400B9601346FB800620FFF7D2FF4FF48271F9
:1053A4002248FFF715FF214B02221A700323FB75D5
:1053B4000AE0FB7DFA68D1B21C4AD154FB681B0A8F
:1053C400FB60FB7D013BFB75FB7D002BF1D1184895
:1053D400FB881A46B968FFF729FF164802F066FDF4
:1053E40000220421144801F0D3F8FB8804339AB254
:1053F4000A230E490F4802F02CFE012204210E4814
:1054040001F0C6F80B4802F0FCFD012000F09EFC00
:10541400FFF766FF0346BB75BB7D03F00303002B58
:10542400F3D100BF00BF1837BD4680BD380000204F
:105434003C00002054020020000C004880B584B0D9
:1054440000AF03463960FB710620FFF779FF4FF484
:1054540082711F48FFF7BCFE1D4AFB7913700323BA
:10546400FB730AE0FB7B3A68D1B2194AD1543B681A
:105474001B0A3B60FB7B013BFB73FB7B002BF1D1E5
:10548400144802F013FD00220421134801F080F8AF
:10549400012304220E490F4802F0DBFD01220421FE
:1054A4000D4801F075F80B4802F0ABFD012000F047
:1054B4004DFCFFF715FF0346BB73BB7B03F00303EF
:1054C400002BF3D100BF00BF1037BD4680BD00BF25
:1054D4003800002054020020000C004880B500AFC2
:1054E4000620FFF72DFF9820FFF72AFF0021D82080
:1054F400FFF7A4FF4FF48031D820FFF79FFF00BFD0
:1055040080BD000080B584B000AF78604FF40031F6
:105514002020FFF793FF0C4B1B88BB810023BB7338
:10552400BB233B737B681B787B737B685B78BB73A3
:1055340007F10C03032219464FF40030FFF724FF50
:1055440000BF1037BD4680BD80A3000880B582B07F
:1055540000AF4FF400312020FFF770FF084B1B8889
:10556400BB800023BB71AA233B713B1D0322194658
:105574004FF40030FFF708FF00BF0837BD4680BD79
:1055840080A3000880B58AB000AF07F1140300229D
:105594001A605A609A60DA601A61394B5B69384A5A
:1055A40043F400335361364B5B6903F400333B61CE
:1055B4003B69334B5B69324A43F480235361304B7C
:1055C4005B6903F48023FB60FB682D4B5B692C4A09
:1055D40043F4002353612A4B5B6903F40023BB604B
:1055E400BB68274B5B69264A43F480135361244B01
:1055F4005B6903F480137B607B68002241F208013D
:10560400204800F0C5FF00224FF400414FF09040C5
:1056140000F0BEFF002204211B4800F0B9FF41F254
:1056240008037B610123BB610023FB6100233B6210
:1056340007F114031946134800F034FD4FF40043F6
:105644007B610123BB610023FB6100233B6207F103
:10565400140319464FF0904000F024FD04237B61AD
:105664000123BB610023FB6100233B6207F11403A8
:105674001946054800F016FD00BF2837BD4680BD19
:105684000010024000040048000C004880B500AF40
:1056940000F0F6FA00F046F8FFF774FF00F038F96E
:1056A40000F04AFAFFF7E2FD012000F04FFB66200C
:1056B400FFF746FE9920FFF743FE9820FFF740FED0
:1056C4004FF400721249134804F0CCFD124B1B78BE
:1056D400002B08D0104B00221A70104B1B8819465F
:1056E4000B4800F0B3F801224FF480510C4800F04D
:1056F4004FFF4FF4FA7000F029FB00224FF4805161
:10570400074800F045FF4FF4FA7000F01FFBDDE797
:1057140040010020B80200204E0200203C0100207D
:105724000004004880B5A2B000AF07F1600328224E
:105734000021184604F0EAFD07F14C0300221A6028
:105744005A609A60DA601A613B464C22002118467E
:1057540004F0DCFD02233B660123FB6610233B6758
:105764000223BB674FF40043FB674FF40023C7F8E1
:1057740080300023C7F8843007F16003184600F036
:105784001FFF0346002B01D000F044F80F23FB64F5
:1057940002233B6500237B650023BB650023FB6577
:1057A40007F14C030121184601F05EFF0346002B6C
:1057B40001D000F02FF802233B600023FB603B463E
:1057C400184602F087F90346002B01D000F022F8B6
:1057D40000BF8837BD4680BD80B582B000AF786019
:1057E4000B467B80074B01221A70074A7B88138083
:1057F4004FF400720549064804F034FD00BF083731
:10580400BD4680BD4E0200203C0100204001002026
:10581400B802002080B400AF72B600BF00BFFDE73D
:1058240080B400AFBFF34F8F00BF064BDB6803F4B7
:10583400E0620449044B1343CB60BFF34F8F00BFB6
:1058440000BFFDE700ED00E00400FA0580B582B07A
:1058540000AF78600B467B807B681B78002B09D1F6
:105864007B685A1C7B88013B9BB21946104600F0AA
:105874002BF820E07B681B78012B08D1FFF72EFE64
:105884000A230E220E490F4803F0BCFA13E07B688A
:105894001B78022B09D17B6801331846FFF732FECF
:1058A4000A2000F053FAFFF7BBFF7B681B78032B39
:1058B40001D1FFF74BFE00BF0837BD4680BD00BFD6
:1058C40000000020B802002080B584B000AF7860EA
:1058D4000B467B800523BB810B4B1B687A88796858
:1058E4001846FFF751FD7A88074B1B681344064A94
:1058F400136007F10C0105230222044803F082FA25
:1059040000BF1037BD4680BD50020020B802002001
:1059140080B500AF1B4B1C4A1A601A4B4FF48272BD
:105924005A60184B00229A60164B4FF4E062DA601A
:10593400144B00221A61134B00225A61114B4FF48D
:1059440000729A610F4B1822DA610E4B00221A6220
:105954000C4B00225A620B4B00229A62094B07221D
:10596400DA62084B00221A63064B00225A63054888
:1059740002F09CFA0346002B01D0FFF74BFF00BF57
:1059840080BD00BF54020020003C004080B58AB0B6
:1059940000AF786007F1140300221A605A609A601D
:1059A400DA601A617B681B68174A934228D1174B47
:1059B400DB69164A43F40043D361144BDB6903F4F7
:1059C40000433B613B69114B5B69104A43F400237C
:1059D40053610E4B5B6903F40023FB60FB684FF4D7
:1059E400E0537B610223BB610023FB6103233B6221
:1059F40006237B6207F114031946054800F052FBA5
:105A040000BF2837BD4680BD003C00400010024066
:105A14000008004880B582B000AF78607B681B68DE
:105A2400084A93420AD1084BDB69074A23F400432E
:105A3400D3614FF4E051054800F0BEFC00BF0837C5
:105A4400BD4680BD003C00400010024000080048F4
:105A540080B483B000AF0F4B9B690E4A43F001033F
:105A640093610C4B9B6903F001037B607B68094BDA
:105A7400DB69084A43F08053D361064BDB6903F0CA
:105A840080533B603B6800BF0C37BD465DF8047B28
:105A9400704700BF0010024080B400AF00BFFDE7B4
:105AA40080B400AF00BFFDE780B400AF00BFFDE7E6
:105AB40080B400AF00BFFDE780B400AF00BFFDE7D6
:105AC40080B400AF00BFBD465DF8047B704780B46E
:105AD40000AF00BFBD465DF8047B704780B400AFE3
:105AE40000BFBD465DF8047B704780B500AF00F091
:105AF4000DF900BF80BD000080B500AF024803F07F
:105B04000BFA00BF80BD00BFB802002080B400AF14
:105B1400074BD3F88830064A43F47003C2F8883040
:105B2400034B044A9A6000BFBD465DF8047B70478E
:105B340000ED00E00050000880B500AF144B154A9A
:105B44001A60134B4FF4E1325A60114B00229A60F1
:105B54000F4B0022DA600E4B00221A610C4B0C2210
:105B64005A610B4B00229A61094B0022DA61084BFF
:105B740000221A62064B00225A62054803F0F4F828
:105B84000346002B01D0FFF745FE00BF80BD00BFD8
:105B9400B80200200044004080B58AB000AF7860AD
:105BA40007F1140300221A605A609A60DA601A61DD
:105BB4007B681B681B4A934230D11B4BDB691A4A32
:105BC40043F40033D361184BDB6903F400333B61C6
:105BD4003B69154B5B69144A43F400335361124B20
:105BE4005B6903F40033FB60FB680C237B610223D5
:105BF400BB610023FB6103233B6207237B6207F144
:105C0400140319464FF0904000F04CFA0022002192
:105C1400262000F09AF9262000F0B3F900BF2837B7
:105C2400BD4680BD0044004000100240DFF834D07F
:105C3400FFF76CFF0C480D490D4A002302E0D458CD
:105C4400C4500433C4188C42F9D30A4A0A4C0023C2
:105C540001E013600432A242FBD304F05FFBFFF7C0
:105C640015FDFEE700000120000000201C000020BC
:105C7400C4A300081C00002044030020FEE7000029
:105C840080B500AF084B1B68074A43F0100313604C
:105C9400032000F04FF90F2000F008F8FFF7D8FEBA
:105CA4000023184680BD00BF0020024080B582B0AA
:105CB40000AF7860124B1A68124B1B7819464FF4E8
:105CC4007A73B3FBF1F3B2FBF3F3184600F067F910
:105CD4000346002B01D001230EE07B680F2B0AD86A
:105CE400002279684FF0FF3000F02FF9064A7B68F4
:105CF4001360002300E0012318460837BD4680BD29
:105D040010000020180000201400002080B400AF10
:105D1400064B1B781A46064B1B681344044A13604F
:105D240000BFBD465DF8047B704700BF180000202B
:105D34004003002080B400AF034B1B681846BD46E7
:105D44005DF8047B704700BF4003002080B584B039
:105D540000AF7860FFF7EEFFB8607B68FB60FB681C
:105D6400B3F1FF3F05D00A4B1B781A46FB68134476
:105D7400FB6000BFFFF7DEFF0246BB68D31AFA6878
:105D84009A42F7D800BF00BF1037BD4680BD00BFA0
:105D94001800002080B485B000AF78607B6803F001
:105DA4000703FB600C4BDB68BB60BA684FF6FF036C
:105DB4001340BB60FB681A02BB68134343F0BF6324
:105DC40043F40033BB60044ABB68D36000BF14379C
:105DD400BD465DF8047B704700ED00E080B400AF81
:105DE400044BDB681B0A03F007031846BD465DF845
:105DF400047B704700ED00E080B483B000AF03463D
:105E0400FB7197F90730002B0BDBFB7903F01F02C2
:105E1400074997F907305B09012000FA02F241F8BB
:105E2400232000BF0C37BD465DF8047B704700BFDC
:105E340000E100E080B483B000AF03463960FB7139
:105E440097F90730002B0ADB3B68DAB20C4997F963
:105E540007301201D2B20B4483F800230AE03B68F6
:105E6400DAB20849FB7903F00F03043B1201D2B202
:105E74000B441A7600BF0C37BD465DF8047B7047AF
:105E840000E100E000ED00E080B489B000AFF8600C
:105E9400B9607A60FB6803F00703FB61FB69C3F137
:105EA4000703042B28BF0423BB61FB690433062BBF
:105EB40002D9FB69033B00E000237B614FF0FF3212
:105EC400BB6902FA03F3DA43BB681A407B699A4060
:105ED4004FF0FF317B6901FA03F3D9437B680B4030
:105EE400134318462437BD465DF8047B7047000011
:105EF40080B582B000AF78607B68013BB3F1807FEE
:105F040001D301230FE00A4A7B68013B53600F2150
:105F14004FF0FF30FFF78EFF054B00229A60044BD1
:105F240007221A60002318460837BD4680BD00BF0B
:105F340010E000E080B582B000AF78607868FFF7C9
:105F440029FF00BF0837BD4680BD80B586B000AFCD
:105F54000346B9607A60FB7300237B61FFF73EFF61
:105F640078617A68B9687869FFF78EFF024697F915
:105F74000F3011461846FFF75DFF00BF1837BD46C6
:105F840080BD80B582B000AF0346FB7197F907303E
:105F94001846FFF731FF00BF0837BD4680BD80B506
:105FA40082B000AF78607868FFF7A2FF0346184616
:105FB4000837BD4680BD80B483B000AF78607B688D
:105FC40093F82130022B08D07B6804229A637B6803
:105FD400002283F82020012320E07B681B681A68D4
:105FE4007B681B6822F00E021A607B681B681A68C3
:105FF4007B681B6822F001021A607B681A6C7B685C
:10600400DB6B012101FA02F25A607B68012283F8FA
:1060140021207B68002283F82020002318460C37B7
:10602400BD465DF8047B704780B584B000AF7860EE
:106034000023FB737B6893F82130022B05D07B6827
:1060440004229A630123FB7327E07B681B681A68A8
:106054007B681B6822F00E021A607B681B681A6852
:106064007B681B6822F001021A607B681A6C7B68EB
:10607400DB6B012101FA02F25A607B68012283F88A
:1060840021207B68002283F820207B685B6B002B37
:1060940003D07B685B6B78689847FB7B18461037A6
:1060A400BD4680BD80B487B000AF786039600023FE
:1060B4007B6160E13B681A6801217B6901FA03F3A3
:1060C4001340FB60FB68002B00F052813B685B6867
:1060D40003F00303012B05D03B685B6803F0030363
:1060E400022B30D17B689B683B617B695B00032298
:1060F40002FA03F3DB433A6913403B613B68DA6815
:106104007B695B0002FA03F33A6913433B617B68E2
:106114003A699A607B685B683B6101227B6902FA99
:1061240003F3DB433A6913403B613B685B681B093B
:1061340003F001027B6902FA03F33A6913433B61FA
:106144007B683A695A603B685B6803F00303032B7E
:1061540017D07B68DB683B617B695B00032202FA32
:1061640003F3DB433A6913403B613B689A687B69FC
:106174005B0002FA03F33A6913433B617B683A69B3
:10618400DA603B685B6803F00303022B23D17B696D
:10619400DA087B68083253F822303B617B6903F0EC
:1061A40007039B000F2202FA03F3DB433A6913400F
:1061B4003B613B681A697B6903F007039B0002FAA1
:1061C40003F33A6913433B617B69DA087B6808325D
:1061D400396943F822107B681B683B617B695B006B
:1061E400032202FA03F3DB433A6913403B613B6841
:1061F4005B6803F003027B695B0002FA03F33A690C
:1062040013433B617B683A691A603B685B6803F43B
:106214004033002B00F0AC805E4B9B695D4A43F039
:10622400010393615B4B9B6903F00103BB60BB6893
:10623400594A7B699B08023352F823303B617B69DE
:1062440003F003039B000F2202FA03F3DB433A69D2
:1062540013403B617B68B3F1904F25D07B684F4A74
:1062640093421FD07B684E4A934219D07B684D4AB3
:10627400934213D07B684C4A93420DD07B684B4ABF
:10628400934207D07B684A4A934201D106230CE02B
:1062940007230AE0052308E0042306E0032304E0BF
:1062A400022302E0012300E000237A6902F00302E2
:1062B400920093403A6913433B6137497B699B08D9
:1062C40002333A6941F823203A4B9B683B61FB68EF
:1062D400DB433A6913403B613B685B6803F480131A
:1062E400002B03D03A69FB6813433B61314A3B6995
:1062F4009360304BDB683B61FB68DB433A691340D6
:106304003B613B685B6803F40013002B03D03A69DC
:10631400FB6813433B61274A3B69D360254B5B68A9
:106324003B61FB68DB433A6913403B613B685B6854
:1063340003F40033002B03D03A69FB6813433B6139
:106344001C4A3B6953601B4B1B683B61FB68DB4386
:106354003A6913403B613B685B6803F48033002B6C
:1063640003D03A69FB6813433B61124A3B691360EB
:106374007B6901337B613B681A687B6922FA03F30A
:10638400002B7FF497AE00BF00BF1C37BD465DF8FD
:10639400047B7047001002400000014000040048E4
:1063A40000080048000C0048001000480014004891
:1063B400001800480004014080B487B000AF786042
:1063C400396000237B61C4E001227B6902FA03F394
:1063D4003A6813403B613B69002B00F0B780644A84
:1063E4007B699B08023352F82330FB607B6903F01E
:1063F40003039B000F2202FA03F3FA681340FB60C5
:106404007B68B3F1904F25D07B685A4A93421FD0E2
:106414007B68594A934219D07B68584A934213D0F7
:106424007B68574A93420DD07B68564A934207D003
:106434007B68554A934201D106230CE007230AE006
:10644400052308E0042306E0032304E0022302E01A
:10645400012300E000237A6902F0030292009340D2
:10646400FA689A4232D1494B1A683B69DB4347497F
:1064740013400B60454B5A683B69DB434349134067
:106484004B60424BDA683B69DB4340491340CB60C5
:106494003E4B9A683B69DB433C4913408B607B6904
:1064A40003F003039B000F2202FA03F3FB60304A5C
:1064B4007B699B08023352F82310FB68DA432C48AB
:1064C4007B699B080A40023340F823207B681A68E2
:1064D4007B695B00032101FA03F3DB431A407B6809
:1064E4001A607B69DA087B68083253F822107B69EA
:1064F40003F007039B000F2202FA03F3DB437A69DC
:10650400D20819407B68083243F822107B68DA68A5
:106514007B695B00032101FA03F3DB431A407B68C8
:10652400DA607B685A6801217B6901FA03F3DB4373
:106534001A407B685A607B689A687B695B00032118
:1065440001FA03F3DB431A407B689A607B690133E9
:106554007B613A687B6922FA03F3002B7FF434AF42
:1065640000BF00BF1C37BD465DF8047B704700BF09
:10657400000001400004004800080048000C0048E6
:1065840000100048001400480018004800040140AE
:1065940080B483B000AF78600B467B8013467B7079
:1065A4007B78002B03D07A887B689A6102E07A8832
:1065B4007B689A6200BF0C37BD465DF8047B704768
:1065C40080B5ADF5027D00AF07F50273A3F5017345
:1065D400186007F50273A3F501731B68002B02D141
:1065E400012301F03AB807F50273A3F501731B68A0
:1065F4001B6803F00103002B00F06F81B54B5B684F
:1066040003F00C03042B0CD0B24B5B6803F00C03B7
:10661400082B5CD1AF4B5B6803F4C033B3F5803F08
:1066240055D14FF40033C7F8F431D7F8F43193FA65
:10663400A3F3C7F8F031D7F8F031B3FA83F3DBB240
:106644005B09DBB243F00103DBB2012B02D1A14BA6
:106654001B6815E04FF40033C7F8EC31D7F8EC3180
:1066640093FAA3F3C7F8E8314FF40033C7F8E431E1
:10667400D7F8E43193FAA3F3C7F8E031954B5B6A9A
:106684004FF40032C7F8DC21D7F8DC2192FAA2F2E9
:10669400C7F8D821D7F8D821B2FA82F2D2B242F0A0
:1066A4002002D2B202F01F02012101FA02F21340C9
:1066B400002B00F0118107F50273A3F501731B6829
:1066C4005B68002B40F00881012300F0C6BF07F58A
:1066D4000273A3F501731B685B68B3F5803F06D1B1
:1066E4007C4B1B687B4A43F48033136036E007F528
:1066F4000273A3F501731B685B68002B0CD1754B07
:106704001B68744A23F480331360724B1B68714A0C
:1067140023F48023136021E007F50273A3F50173CA
:106724001B685B68B3F5A02F0CD16A4B1B68694AE0
:1067340043F480231360674B1B68664A43F4803339
:1067440013600BE0634B1B68624A23F480331360CD
:10675400604B1B685F4A23F48023136007F50273C0
:10676400A3F501731B685B68002B59D0FFF7E2FAAD
:10677400C7F800020AE0FFF7DDFA0246D7F8003254
:10678400D31A642B02D9032300F067BF4FF40033FC
:10679400C7F8D431D7F8D43193FAA3F3C7F8D0317A
:1067A400D7F8D031B3FA83F3DBB25B09DBB243F041
:1067B4000103DBB2012B02D1464B1B6815E04FF4F9
:1067C4000033C7F8CC31D7F8CC3193FAA3F3C7F828
:1067D400C8314FF40033C7F8C431D7F8C43193FA41
:1067E400A3F3C7F8C0313B4B5B6A4FF40032C7F8E0
:1067F400BC21D7F8BC2192FAA2F2C7F8B821D7F885
:10680400B821B2FA82F2D2B242F02002D2B202F03D
:106814001F02012101FA02F21340002BABD05CE00D
:10682400FFF788FAC7F800020AE0FFF783FA024686
:10683400D7F80032D31A642B02D9032300F00DBF1A
:106844004FF40033C7F8B431D7F8B43193FAA3F353
:10685400C7F8B031D7F8B031B3FA83F3DBB25B09D0
:10686400DBB243F00103DBB2012B02D1194B1B68ED
:1068740015E04FF40033C7F8AC31D7F8AC3193FAD4
:10688400A3F3C7F8A8314FF40033C7F8A431D7F8FD
:10689400A43193FAA3F3C7F8A0310E4B5B6A4FF40B
:1068A4000032C7F89C21D7F89C2192FAA2F2C7F8CB
:1068B4009821D7F89821B2FA82F2D2B242F020029B
:1068C400D2B202F01F02012101FA02F21340002B9E
:1068D400ABD102E00010024000BF07F50273A3F53C
:1068E40001731B681B6803F00203002B00F07F8117
:1068F400A74B5B6803F00C03002B0CD0A44B5B6824
:1069040003F00C03082B73D1A14B5B6803F4C03371
:10691400B3F5004F6CD10223C7F89431D7F8943102
:1069240093FAA3F3C7F89031D7F89031B3FA83F30D
:10693400DBB25B09DBB243F00103DBB2012B02D112
:10694400934B1B6813E00223C7F88C31D7F88C31C2
:1069540093FAA3F3C7F888310223C7F88431D7F830
:10696400843193FAA3F3C7F88031894B5B6A02221E
:10697400C7F87C21D7F87C2192FAA2F2C7F87821D3
:10698400D7F87821B2FA82F2D2B242F02002D2B21F
:1069940002F01F02012101FA02F21340002B0AD077
:1069A40007F50273A3F501731B68DB68012B02D0A2
:1069B400012300F052BE764B1B6823F0F80207F562
:1069C4000273A3F501731B681B69F821C7F87411DE
:1069D400D7F8741191FAA1F1C7F87011D7F87011B2
:1069E400B1FA81F1C9B28B40694913430B60FEE0EF
:1069F40007F50273A3F501731B68DB68002B00F035
:106A040088800123C7F86C31D7F86C3193FAA3F36B
:106A1400C7F86831D7F86831B3FA83F3DBB203F10E
:106A2400845303F584139B001A4601231360FFF774
:106A340081F9C7F800020AE0FFF77CF90246D7F8AB
:106A44000032D31A022B02D9032300F006BE02231C
:106A5400C7F86431D7F8643193FAA3F3C7F8603107
:106A6400D7F86031B3FA83F3DBB25B09DBB243F0EE
:106A74000103DBB2012B02D1454B1B6813E0022357
:106A8400C7F85C31D7F85C3193FAA3F3C7F85831EF
:106A94000223C7F85431D7F8543193FAA3F3C7F853
:106AA40050313B4B5B6A0222C7F84C21D7F84C218A
:106AB40092FAA2F2C7F84821D7F84821B2FA82F232
:106AC400D2B242F02002D2B202F01F02012101FA36
:106AD40002F21340002BAFD02D4B1B6823F0F802B9
:106AE40007F50273A3F501731B681B69F821C7F846
:106AF4004411D7F8441191FAA1F1C7F84011D7F81D
:106B04004011B1FA81F1C9B28B40214913430B60A2
:106B14006DE00123C7F83C31D7F83C3193FAA3F375
:106B2400C7F83831D7F83831B3FA83F3DBB203F15D
:106B3400845303F584139B001A4600231360FFF764
:106B4400F9F8C7F800020AE0FFF7F4F80246D7F8AC
:106B54000032D31A022B02D9032300F07EBD022394
:106B6400C7F83431D7F8343193FAA3F3C7F8303186
:106B7400D7F83031B3FA83F3DBB25B09DBB243F00D
:106B84000103DBB2012B05D1014B1B6816E000BFEA
:106B9400001002400223C7F82C31D7F82C3193FAA5
:106BA400A3F3C7F828310223C7F82431D7F82431D6
:106BB40093FAA3F3C7F82031BF4B5B6A0222C7F8EC
:106BC4001C21D7F81C2192FAA2F2C7F81821D7F891
:106BD4001821B2FA82F2D2B242F02002D2B202F00A
:106BE4001F02012101FA02F21340002BACD107F578
:106BF4000273A3F501731B681B6803F00803002BE1
:106C040000F0138107F50273A3F501731B685B6938
:106C1400002B7CD00123C7F81431D7F8143193FA30
:106C2400A3F3C7F81031D7F81031B3FA83F3DBB20A
:106C34001A46A24B13449B001A4601231360FFF724
:106C440079F8C7F800020AE0FFF774F80246D7F8AB
:106C54000032D31A022B02D9032300F0FEBC022314
:106C6400C7F80C31D7F80C3193FAA3F207F5027385
:106C7400A3F580731A6007F50273A3F582730222E9
:106C84001A6007F50273A3F582731B6893FAA3F2E3
:106C940007F50273A3F584731A6007F50273A3F56D
:106CA400867302221A6007F50273A3F586731B68C4
:106CB40093FAA3F207F50273A3F588731A607E4B67
:106CC4005A6A07F50273A3F58A730221196007F55E
:106CD4000273A3F58A731B6893FAA3F107F5027391
:106CE400A3F58C73196007F50273A3F58C731B6805
:106CF400B3FA83F3DBB243F06003DBB203F01F03A8
:106D0400012101FA03F31340002B9DD08DE007F518
:106D14000273A3F58E7301221A6007F50273A3F5BB
:106D24008E731B6893FAA3F207F50273A3F59073AD
:106D34001A6007F50273A3F590731B68B3FA83F323
:106D4400DBB21A465D4B13449B001A4600231360C2
:106D5400FEF7F0FFC7F800020AE0FEF7EBFF024679
:106D6400D7F80032D31A022B02D9032300F075BCE2
:106D740007F50273A3F5927302221A6007F50273F2
:106D8400A3F592731B6893FAA3F207F50273A3F5B4
:106D940094731A6007F50273A3F5967302221A60BE
:106DA40007F50273A3F596731B6893FAA3F207F52C
:106DB4000273A3F598731A6007F50273A3F59A7327
:106DC40002221A6007F50273A3F59A731B6893FAFB
:106DD400A3F207F50273A3F59C731A60364B5A6A43
:106DE40007F50273A3F59E730221196007F5027378
:106DF400A3F59E731B6893FAA3F107F50273A3F539
:106E0400A073196007F50273A3F5A0731B68B3FAA6
:106E140083F3DBB243F06003DBB203F01F03012111
:106E240001FA03F31340002B97D107F50273A3F57E
:106E340001731B681B6803F00403002B00F0A58199
:106E4400002387F807321C4BDB6903F08053002BC7
:106E540016D1194BDB69184A43F08053D361164BA2
:106E6400DB6903F0805207F50273A3F5FE731A6021
:106E740007F50273A3F5FE731B68012387F8073235
:106E84000F4B1B6803F48073002B21D10C4B1B6840
:106E94000B4A43F480731360FEF74CFFC7F80002FB
:106EA40010E0FEF747FF0246D7F80032D31A642BEE
:106EB40008D90323D1E300BF0010024020819010C1
:106EC400007000408D4B1B6803F48073002BE8D0E6
:106ED40007F50273A3F501731B689B68012B06D1A8
:106EE400874B1B6A864A43F00103136235E007F5BA
:106EF4000273A3F501731B689B68002B0CD1804BB4
:106F04001B6A7F4A23F0010313627D4B1B6A7C4A90
:106F140023F00403136220E007F50273A3F5017361
:106F24001B689B68052B0CD1754B1B6A744A43F094
:106F340004031362724B1B6A714A43F00103136228
:106F44000BE06F4B1B6A6E4A23F0010313626C4B18
:106F54001B6A6B4A23F00403136207F50273A3F55B
:106F640001731B689B68002B00F08180FEF7E2FE32
:106F7400C7F800020BE0FEF7DDFE0246D7F8003248
:106F8400D31A41F28832934201D9032365E307F50A
:106F94000273A3F5A27302221A6007F50273A3F524
:106FA400A2731B6893FAA3F207F50273A3F5A47303
:106FB4001A6007F50273A3F5A67302221A6007F597
:106FC4000273A3F5A6731B6893FAA3F207F5027381
:106FD400A3F5A8731A6007F50273A3F5A8731B68D9
:106FE400B3FA83F3DBB25B09DBB243F00203DBB237
:106FF400022B02D1424B1B6A13E007F50273A3F57F
:10700400AA7302221A6007F50273A3F5AA731B6818
:1070140093FAA3F207F50273A3F5AC731A60384B25
:107024005B6A07F50272A2F5AE720221116007F5E0
:107034000272A2F5AE72126892FAA2F107F5027218
:10704400A2F5B072116007F50272A2F5B07212686F
:10705400B2FA82F2D2B242F04002D2B202F01F027D
:10706400012101FA02F21340002B84D083E0FEF7E1
:1070740061FEC7F800020BE0FEF75CFE0246D7F89B
:107084000032D31A41F28832934201D90323E4E255
:1070940007F50273A3F5B27302221A6007F50273AF
:1070A400A3F5B2731B6893FAA3F207F50273A3F571
:1070B400B4731A6007F50273A3F5B67302221A605B
:1070C40007F50273A3F5B6731B6893FAA3F207F5E9
:1070D4000273A3F5B8731A6007F50273A3F5B873C6
:1070E4001B68B3FA83F3DBB25B09DBB243F0020340
:1070F400DBB2022B06D1024B1B6A17E00070004082
:107104000010024007F50273A3F5BA7302221A6055
:1071140007F50273A3F5BA731B6893FAA3F207F594
:107124000273A3F5BC731A60B34B5B6A07F5027272
:10713400A2F5BE720221116007F50272A2F5BE72B9
:10714400126892FAA2F107F50272A2F5C0721160F8
:1071540007F50272A2F5C0721268B2FA82F2D2B2D4
:1071640042F04002D2B202F01F02012101FA02F2FF
:107174001340002B80D197F80732012B05D19E4B89
:10718400DB699D4A23F08053D36107F50273A3F5AD
:1071940001731B689B69002B00F05E82964B5B6851
:1071A40003F00C03082B00F01F8207F50273A3F50C
:1071B40001731B689B69022B40F0708107F5027311
:1071C400A3F5C2734FF080721A6007F50273A3F53A
:1071D400C2731B6893FAA3F207F50273A3F5C47391
:1071E4001A6007F50273A3F5C4731B68B3FA83F33B
:1071F400DBB203F1845303F584139B001A46002386
:107204001360FEF797FDC7F8000209E0FEF792FD50
:107214000246D7F80032D31A022B01D903231CE209
:1072240007F50273A3F5C6734FF000721A6007F5F1
:107234000273A3F5C6731B6893FAA3F207F50273EE
:10724400A3F5C8731A6007F50273A3F5C8731B6826
:10725400B3FA83F3DBB25B09DBB243F00103DBB2C5
:10726400012B02D1644B1B6827E007F50273A3F5D9
:10727400CA734FF000721A6007F50273A3F5CA735C
:107284001B6893FAA3F207F50273A3F5CC731A6093
:1072940007F50273A3F5CE734FF000721A6007F579
:1072A4000273A3F5CE731B6893FAA3F207F5027376
:1072B400A3F5D0731A60504B5B6A07F50272A2F50E
:1072C400D2724FF00071116007F50272A2F5D2720A
:1072D400126892FAA2F107F50272A2F5D472116053
:1072E40007F50272A2F5D4721268B2FA82F2D2B22F
:1072F40042F02002D2B202F01F02012101FA02F28E
:107304001340002B82D13C4BDB6A23F00F0207F5BC
:107314000273A3F501731B685B6A37491343CB629D
:10732400354B5B6823F4761207F50273A3F50173FA
:107334001B68196A07F50273A3F501731B68DB69FF
:107344000B432D4913434B6007F50273A3F5D67322
:107354004FF080721A6007F50273A3F5D6731B68A9
:1073640093FAA3F207F50273A3F5D8731A6007F52D
:107374000273A3F5D8731B68B3FA83F3DBB203F18A
:10738400845303F584139B001A4601231360FEF70C
:10739400D1FCC7F8000209E0FEF7CCFC0246D7F89E
:1073A4000032D31A022B01D9032356E107F50273E5
:1073B400A3F5DA734FF000721A6007F50273A3F5B0
:1073C400DA731B6893FAA3F207F50273A3F5DC736F
:1073D4001A6007F50273A3F5DC731B68B3FA83F331
:1073E400DBB25B09DBB243F00103DBB2012B05D155
:1073F400014B1B682AE000BF0010024007F502732E
:10740400A3F5DE734FF000721A6007F50273A3F55B
:10741400DE731B6893FAA3F207F50273A3F5E07316
:107424001A6007F50273A3F5E2734FF000721A6055
:1074340007F50273A3F5E2731B6893FAA3F207F549
:107444000273A3F5E4731A60864B5B6A07F5027254
:10745400A2F5E6724FF00071116007F50272A2F511
:10746400E672126892FAA2F107F50272A2F5E872C6
:10747400116007F50272A2F5E8721268B2FA82F29C
:10748400D2B242F02002D2B202F01F02012101FA6C
:1074940002F21340002B3FF47FAFDDE007F50273E7
:1074A400A3F5EA734FF080721A6007F50273A3F52F
:1074B400EA731B6893FAA3F207F50273A3F5EC735E
:1074C4001A6007F50273A3F5EC731B68B3FA83F330
:1074D400DBB203F1845303F584139B001A460023A3
:1074E4001360FEF727FCC7F8000209E0FEF722FC50
:1074F4000246D7F80032D31A022B01D90323ACE099
:1075040007F50273A3F5EE734FF000721A6007F5E6
:107514000273A3F5EE731B6893FAA3F207F50273E3
:10752400A3F5F0731A6007F50273A3F5F0731B68F3
:10753400B3FA83F3DBB25B09DBB243F00103DBB2E2
:10754400012B02D1474B1B6827E007F50273A3F513
:10755400F2734FF000721A6007F50273A3F5F27329
:107564001B6893FAA3F207F50273A3F5F4731A6088
:1075740007F50273A3F5F6734FF000721A6007F56E
:107584000273A3F5F6731B6893FAA3F207F502736B
:10759400A3F5F8731A60334B5B6A07F50272A2F520
:1075A400FA724FF00071116007F50272A2F5FA72D7
:1075B400126892FAA2F107F50272A2F5FC72116048
:1075C40007F50272A2F5FC721268B2FA82F2D2B224
:1075D40042F02002D2B202F01F02012101FA02F2AB
:1075E4001340002B82D137E007F50273A3F5017332
:1075F4001B689B69012B01D101232EE0194B5B68A9
:10760400C7F8FC31174BDB6AC7F8F831D7F8FC31FF
:1076140003F4C03207F50273A3F501731B68DB6939
:107624009A4217D1D7F8FC3103F4701207F50273AC
:10763400A3F501731B681B6A9A420BD1D7F8F83182
:1076440003F00F0207F50273A3F501731B685B6A6D
:107654009A4201D0012300E00023184607F502777F
:10766400BD4680BD0010024080B59EB000AF78607A
:10767400396000237B677B68002B01D1012362E121
:10768400904B1B6803F007033A689A4210D98D4B5C
:107694001B6823F007028B493B6813430B60894B3B
:1076A4001B6803F007033A689A4201D001234AE1B8
:1076B4007B681B6803F00203002B08D0824B5B68D5
:1076C40023F0F0027B689B687F4913434B607B681F
:1076D4001B6803F00103002B00F0DC807B685B680F
:1076E400012B3CD14FF400333B673B6F93FAA3F378
:1076F400FB66FB6EB3FA83F3DBB25B09DBB243F0E8
:107704000103DBB2012B02D16F4B1B680FE04FF476
:107714000033BB66BB6E93FAA3F37B664FF400336E
:107724003B663B6E93FAA3F3FB65674B5B6A4FF4CE
:107734000032BA65BA6D92FAA2F27A657A6DB2FA3B
:1077440082F2D2B242F02002D2B202F01F02012130
:1077540001FA02F21340002B7BD10123F3E07B6892
:107764005B68022B3CD14FF000733B653B6D93FA91
:10777400A3F3FB64FB6CB3FA83F3DBB25B09DBB208
:1077840043F00103DBB2012B02D14F4B1B680FE026
:107794004FF00073BB64BB6C93FAA3F37B644FF0AC
:1077A40000733B643B6C93FAA3F3FB63464B5B6A45
:1077B4004FF00072BA63BA6B92FAA2F27A637A6BF0
:1077C400B2FA82F2D2B242F02002D2B202F01F0226
:1077D400012101FA02F21340002B3AD10123B2E055
:1077E40002233B633B6B93FAA3F3FB62FB6AB3FA9A
:1077F40083F3DBB25B09DBB243F00103DBB2012BA1
:1078040002D1314B1B680DE00223BB62BB6A93FAC1
:10781400A3F37B6202233B623B6A93FAA3F3FB610B
:10782400294B5B6A0222BA61BA6992FAA2F27A61BE
:107834007A69B2FA82F2D2B242F02002D2B202F0F3
:107844001F02012101FA02F21340002B01D101238E
:1078540079E01D4B5B6823F003027B685B681A497F
:1078640013434B60FEF766FA78670AE0FEF762FAA4
:1078740002467B6FD31A41F28832934201D9032323
:1078840061E0114B5B6803F00C027B685B689B0052
:107894009A42EBD10B4B1B6803F007033A689A42F8
:1078A40014D2084B1B6823F0070206493B681343B4
:1078B4000B60044B1B6803F007033A689A4205D037
:1078C400012340E000200240001002407B681B6856
:1078D40003F00403002B08D01D4B5B6823F4E06223
:1078E4007B68DB681A4913434B607B681B6803F0B1
:1078F4000803002B09D0164B5B6823F460527B68A5
:107904001B69DB00124913434B6000F029F8014660
:107914000F4B5B6803F0F003F0223A613A6992FA84
:10792400A2F2FA60FA68B2FA82F2D2B2D340094AF9
:10793400D35C21FA03F3084A1360084B1B6818460A
:10794400FEF7B4F9002318467837BD4680BD00BF62
:107954000010024084A3000810000020140000203E
:1079640080B48BB000AF0023FB610023BB61002314
:107974007B6200237B6100233B622A4B5B68FB61D3
:10798400FB6903F00C03042B02D0082B03D03FE067
:10799400254B3B623FE0FB6903F470134FF4701214
:1079A400BA60BA6892FAA2F27A607A68B2FA82F29B
:1079B400D2B2D3401D4AD35C7B611A4BDB6A03F01D
:1079C4000F030F223A613A6992FAA2F2FA60FA6856
:1079D400B2FA82F2D2B2D340154AD35CBB61FB69DE
:1079E40003F48033002B08D00F4ABB69B2FBF3F2D7
:1079F4007B6902FB03F37B6207E00B4ABB69B2FBC2
:107A0400F3F27B6902FB03F37B627B6A3B6202E075
:107A1400054B3B6200BF3B6A18462C37BD465DF8F8
:107A2400047B70470010024000127A009CA30008F7
:107A3400ACA3000880B400AF034B1B681846BD46D6
:107A44005DF8047B704700BF1000002080B582B051
:107A540000AFFFF7EFFF01460B4B5B6803F4E063F5
:107A64004FF4E0627A607A6892FAA2F23A603A6875
:107A7400B2FA82F2D2B2D340044AD35C21FA03F3BD
:107A840018460837BD4680BD0010024094A3000884
:107A940080B582B000AFFFF7CDFF01460B4B5B68AA
:107AA40003F460534FF460527A607A6892FAA2F257
:107AB4003A603A68B2FA82F2D2B2D340044AD35C52
:107AC40021FA03F318460837BD4680BD0010024072
:107AD40094A3000880B592B000AF786000233B64A3
:107AE4000023FB63002387F847307B681B6803F49B
:107AF4008033002B00F0D4804E4BDB6903F08053BD
:107B0400002B0ED14B4BDB694A4A43F08053D361BF
:107B1400484BDB6903F08053BB60BB68012387F8E3
:107B24004730454B1B6803F48073002B18D1424B3C
:107B34001B68414A43F480731360FEF7FBF8386412
:107B440008E0FEF7F7F802463B6CD31A642B01D920
:107B54000323A5E1384B1B6803F48073002BF0D09A
:107B6400344B1B6A03F44073FB63FB6B002B00F084
:107B740084807B685B6803F44073FA6B9A427CD020
:107B84002C4B1B6A23F44073FB634FF480333B6339
:107B94003B6B93FAA3F3FB62FB6AB3FA83F3DBB2A6
:107BA4001A46264B13449B001A46012313604FF4D4
:107BB4008033BB63BB6B93FAA3F37B637B6BB3FA36
:107BC40083F3DBB21A461D4B13449B001A46002371
:107BD4001360184AFB6B1362FB6B03F00103002B69
:107BE4004BD0FEF7A7F838640AE0FEF7A3F8024684
:107BF4003B6CD31A41F28832934201D903234FE1FB
:107C04000223BB62BB6A93FAA3F37B6202233B6247
:107C14003B6A93FAA3F3FB61FB69B3FA83F3DBB228
:107C24005B09DBB243F00203DBB2022B08D1014B48
:107C34001B6A0DE0001002400070004000819010AB
:107C44000223BB61BB6993FAA3F37B61964B5B6A26
:107C540002223A613A6992FAA2F2FA60FA68B2FA36
:107C640082F2D2B242F04002D2B202F01F020121EB
:107C740001FA02F21340002BB7D08B4B1B6A23F49A
:107C840040727B685B68884913430B6297F84730FE
:107C9400012B05D1844BDB69834A23F08053D361E4
:107CA4007B681B6803F00103002B08D07E4B1B6B21
:107CB40023F003027B689B687B4913430B637B6857
:107CC4001B6803F00203002B08D0774B1B6B23F4D3
:107CD40040327B68DB68744913430B637B681B6821
:107CE40003F00403002B08D06F4B1B6B23F44022DA
:107CF4007B681B696C4913430B637B681B6803F047
:107D04002003002B08D0684B1B6B23F010027B6808
:107D1400DB69654913430B637B681B6803F4003319
:107D2400002B08D0604B5B6823F480027B689B6C5B
:107D34005D4913434B607B681B6803F04003002BD1
:107D440008D0594B1B6B23F020027B681B6A5649F1
:107D540013430B637B681B6803F48023002B08D058
:107D6400514B1B6B23F040027B685B6A4E49134303
:107D74000B637B681B6803F00803002B08D04A4B95
:107D84001B6B23F440127B685B69474913430B6305
:107D94007B681B6803F01003002B08D0424B1B6B5D
:107DA40023F440027B689B693F4913430B637B6860
:107DB4001B6803F40073002B08D03B4B5B6823F46F
:107DC40000027B68DB6A384913434B607B681B689D
:107DD40003F08003002B08D0334BDB6A23F4F872E2
:107DE4007B689B6A30491343CB627B681B6803F44E
:107DF4008053002B08D02C4B1B6B23F480727B68C0
:107E04001B6B294913430B637B681B6803F48013C2
:107E1400002B08D0244B1B6B23F080727B685B6BB8
:107E2400214913430B637B681B6803F40013002B85
:107E340008D01D4B1B6B23F000727B689B6B1A49A7
:107E440013430B637B681B6803F48003002B08D087
:107E5400154B1B6B23F480627B68DB6B1249134365
:107E64000B637B681B6803F40003002B08D00E4BE4
:107E74001B6B23F400627B681B6C0B4913430B637D
:107E84007B681B6803F08073002B08D0064B1B6BC8
:107E940023F400527B685B6C034913430B63002398
:107EA40018464837BD4680BD0010024080B584B0F6
:107EB40000AF78607B68002B01D101239DE07B68D3
:107EC4005B6A002B08D17B685B68B3F5827F09D0BD
:107ED4007B680022DA6105E07B6800221A617B6816
:107EE40000225A617B6800229A627B6893F85D30B5
:107EF400DBB2002B06D17B68002283F85C20786813
:107F0400FDF744FD7B68022283F85D207B681B68D3
:107F14001A687B681B6822F040021A607B68DB6881
:107F2400B3F5E06F02D90023FB6002E04FF4805305
:107F3400FB607B68DB68B3F5706F07D07B68DB6838
:107F4400B3F5E06F02D07B6800229A627B685B68BD
:107F540003F482727B689B6803F404431A437B68CE
:107F64001B6903F002031A437B685B6903F0010396
:107F74001A437B689B6903F400731A437B68DB69CB
:107F840003F038031A437B681B6A03F0800342EA58
:107F940003017B689B6A03F400527B681B680A43F5
:107FA4001A607B689B691B0C03F004027B685B6AA4
:107FB40003F010031A437B685B6B03F008031A4356
:107FC4007B68DB6803F4706342EA0301FB6803F433
:107FD40080527B681B680A435A607B681B68DA69B5
:107FE4007B681B6822F40062DA617B6800221A66EF
:107FF4007B68012283F85D20002318461037BD46B4
:1080040080BD80B582B000AF78607B68002B01D161
:1080140001231AE07B68022283F85D207B681B68D9
:108024001A687B681B6822F040021A607868FDF7C2
:10803400F1FC7B6800221A667B68002283F85D20CD
:108044007B68002283F85C20002318460837BD466D
:1080540080BD80B588B000AFF860B9603B6013465E
:10806400FB800023FB77FB6893F85C30012B01D184
:1080740002235FE1FB68012283F85C20FDF75AFECE
:10808400B861FB88FB82FB6893F85D30DBB2012B9F
:1080940002D00223FB7748E1BB68002B02D0FB88A7
:1080A400002B02D10123FB773FE1FB68032283F815
:1080B4005D20FB6800221A66FB68BA689A63FB6855
:1080C400FA889A87FB68FA88DA87FB6800221A64C0
:1080D400FB680022A3F84420FB680022A3F8462092
:1080E400FB6800221A65FB680022DA64FB689B685F
:1080F400B3F5004F0FD1FB681B681A68FB681B6857
:1081040022F040021A60FB681B681A68FB681B684F
:1081140042F480421A60FB681B681B6803F040034A
:10812400402B07D0FB681B681A68FB681B6842F089
:1081340040021A60FB68DB68B3F5E06F4FD9FB6857
:108144005B68002B02D0FB8A012B42D1FB689B6B3E
:108154001A88FB681B68DA60FB689B6B9A1CFB68D7
:108164009A63FB68DB8F9BB2013B9AB2FB68DA87A8
:108174002FE0FB681B689B6803F00203022B12D1FB
:10818400FB689B6B1A88FB681B68DA60FB689B6B57
:108194009A1CFB689A63FB68DB8F9BB2013B9AB223
:1081A400FB68DA8715E0FDF7C5FD0246BB69D31A03
:1081B4003A689A4203D83B68B3F1FF3F02D13B6867
:1081C400002B06D10323FB77FB68012283F85D2093
:1081D400ABE0FB68DB8F9BB2002BCAD180E0FB686D
:1081E4005B68002B02D0FB8A012B74D1FB68DB8F08
:1081F4009BB2012B12D9FB689B6B1A88FB681B6826
:10820400DA60FB689B6B9A1CFB689A63FB68DB8FE4
:108214009BB2023B9AB2FB68DA875CE0FB689A6B1C
:10822400FB681B680C3312781A70FB689B6B5A1C32
:10823400FB689A63FB68DB8F9BB2013B9AB2FB68D5
:10824400DA8748E0FB681B689B6803F00203022B93
:108254002BD1FB68DB8F9BB2012B12D9FB689B6B84
:108264001A88FB681B68DA60FB689B6B9A1CFB68C6
:108274009A63FB68DB8F9BB2023B9AB2FB68DA8796
:1082840029E0FB689A6BFB681B680C3312781A7040
:10829400FB689B6B5A1CFB689A63FB68DB8F9BB281
:1082A400013B9AB2FB68DA8715E0FDF743FD02460D
:1082B400BB69D31A3A689A4203D83B68B3F1FF3FCB
:1082C40002D13B68002B06D10323FB77FB68012214
:1082D40083F85D2029E0FB68DB8F9BB2002BB1D1D2
:1082E400BA693968F86800F0F9FC0346002B02D03B
:1082F400FB6820221A66FB689B68002B0AD10023C6
:108304003B61FB681B68DB683B61FB681B689B681F
:108314003B613B69FB681B6E002B02D00123FB779A
:1083240003E0FB68012283F85D20FB68002283F8E8
:108334005C20FB7F18462037BD4680BD80B588B0E1
:1083440002AFF860B9603B601346FB800023FB7505
:10835400FB6893F85D30DBB2012B02D00223FB757E
:108364001AE1FB685B68B3F5827F12D1FB689B68F6
:10837400002B0ED1FB68042283F85D20FA883B6849
:1083840000931346BA68B968F86800F00EF903461A
:1083940007E1FB6893F85C30012B01D1022300E173
:1083A400FB68012283F85C20FDF7C4FC3861BB68DC
:1083B400002B02D0FB88002B02D10123FB75EBE0DC
:1083C400FB68042283F85D20FB6800221A66FB68C0
:1083D400BA681A64FB68FA88A3F84420FB68FA8830
:1083E400A3F84620FB6800229A63FB6800229A8760
:1083F400FB680022DA87FB680022DA64FB6800224B
:108404001A65FB68DB68B3F5E06F08D9FB681B6885
:108414005A68FB681B6822F480525A6007E0FB68C4
:108424001B685A68FB681B6842F480525A60FB68F8
:108434009B68B3F5004F0FD1FB681B681A68FB6893
:108444001B6822F040021A60FB681B681A68FB680C
:108454001B6822F480421A60FB681B681B6803F0E7
:108464004003402B07D0FB681B681A68FB681B6835
:1084740042F040021A60FB68DB68B3F5E06F6FD826
:1084840034E0FB681B689B6803F00103012B17D1E0
:10849400FB681B6803F10C02FB681B6C1278D2B2F8
:1084A4001A70FB681B6C5A1CFB681A64FB68B3F8EF
:1084B40046309BB2013B9AB2FB68A3F8462015E014
:1084C400FDF738FC02463B69D31A3A689A4203D84E
:1084D4003B68B3F1FF3F02D13B68002B06D1032375
:1084E400FB75FB68012283F85D2055E0FB68B3F857
:1084F40046309BB2002BC4D138E0FB681B689B68F4
:1085040003F00103012B15D1FB681B68DA68FB68D3
:108514001B6C92B21A80FB681B6C9A1CFB681A6471
:10852400FB68B3F846309BB2013B9AB2FB68A3F8F0
:10853400462015E0FDF7FEFB02463B69D31A3A6874
:108544009A4203D83B68B3F1FF3F02D13B68002B4A
:1085540006D10323FB75FB68012283F85D201BE031
:10856400FB68B3F846309BB2002BC6D13A69396830
:10857400F86800F05BFB0346002B02D0FB68202266
:108584001A66FB681B6E002B02D00123FB7503E007
:10859400FB68012283F85D20FB68002283F85C20DD
:1085A400FB7D18461837BD4680BD80B58AB000AF44
:1085B400F860B9607A607B8001237B62002387F8CE
:1085C4002330FB6893F85C30012B01D102230AE2CB
:1085D400FB68012283F85C20FDF7ACFBF861FB68C3
:1085E40093F85D30FB76FB685B687B617B887B82FC
:1085F4007B883B82FB7E012B0ED07B69B3F5827FA7
:1086040006D1FB689B68002B02D1FB7E042B03D0B0
:10861400022387F82330E0E1BB68002B05D07B6898
:10862400002B02D07B88002B03D1012387F8233051
:10863400D3E1FB6893F85D30DBB2042B03D0FB6815
:10864400052283F85D20FB6800221A66FB687A68BD
:108654001A64FB687A88A3F84620FB687A88A3F832
:108664004420FB68BA689A63FB687A88DA87FB68F7
:108674007A889A87FB680022DA64FB6800221A650C
:10868400FB68DB68B3F5E06F02D83B8A012B08D99D
:10869400FB681B685A68FB681B6822F480525A60A6
:1086A40007E0FB681B685A68FB681B6842F4805249
:1086B4005A60FB681B681B6803F04003402B07D01B
:1086C400FB681B681A68FB681B6842F040021A606A
:1086D400FB68DB68B3F5E06F40F28180FB685B68A0
:1086E400002B02D07B8A012B6DD1FB689B6B1A880F
:1086F400FB681B68DA60FB689B6B9A1CFB689A63D7
:10870400FB68DB8F9BB2013B9AB2FB68DA875AE0C5
:10871400FB681B689B6803F00203022B1BD1FB68F8
:10872400DB8F9BB2002B16D07B6A012B13D1FB6825
:108734009B6B1A88FB681B68DA60FB689B6B9A1C4E
:10874400FB689A63FB68DB8F9BB2013B9AB2FB68C0
:10875400DA8700237B62FB681B689B6803F00103D4
:10876400012B1CD1FB68B3F846309BB2002B16D00A
:10877400FB681B68DA68FB681B6C92B21A80FB68A2
:108784001B6C9A1CFB681A64FB68B3F846309BB2F6
:10879400013B9AB2FB68A3F8462001237B62FDF7F4
:1087A400C9FA0246FB69D31A3A6B9A420BD83B6B5F
:1087B400B3F1FF3F07D0032387F82330FB6801227E
:1087C40083F85D2009E1FB68DB8F9BB2002B9FD10E
:1087D400FB68B3F846309BB2002B99D1E3E0FB6809
:1087E4005B68002B03D07B8A012B40F0CF80FB68B1
:1087F400DB8F9BB2012B12D9FB689B6B1A88FB6839
:108804001B68DA60FB689B6B9A1CFB689A63FB68C5
:10881400DB8F9BB2023B9AB2FB68DA87B6E0FB6857
:108824009A6BFB681B680C3312781A70FB689B6B9D
:108834005A1CFB689A63FB68DB8F9BB2013B9AB2BC
:10884400FB68DA87A2E0FB681B689B6803F00203FD
:10885400022B34D1FB68DB8F9BB2002B2FD07B6AB9
:10886400012B2CD1FB68DB8F9BB2012B12D9FB6847
:108874009B6B1A88FB681B68DA60FB689B6B9A1C0D
:10888400FB689A63FB68DB8F9BB2023B9AB2FB687E
:10889400DA8712E0FB689A6BFB681B680C3312786A
:1088A4001A70FB689B6B5A1CFB689A63FB68DB8F2E
:1088B4009BB2013B9AB2FB68DA8700237B62FB68B8
:1088C4001B689B6803F00103012B48D1FB68B3F8D4
:1088D40046309BB2002B42D0FB68B3F846309BB2C3
:1088E400012B23D9FB681B68DA68FB681B6C92B206
:1088F4001A80FB681B6C9A1CFB681A64FB68B3F84B
:1089040046309BB2023B9AB2FB68A3F84620FB6850
:10891400B3F846309BB2012B1FD8FB681B685A681A
:10892400FB681B6842F480525A6016E0FB681B68BF
:1089340003F10C02FB681B6C1278D2B21A70FB684C
:108944001B6C5A1CFB681A64FB68B3F846309BB274
:10895400013B9AB2FB68A3F8462001237B62FDF732
:10896400E9F90246FB69D31A3A6B9A4203D83B6B86
:10897400B3F1FF3F02D13B6B002B07D1032387F8F0
:108984002330FB68012283F85D2026E0FB68DB8F3F
:108994009BB2002B7FF457AFFB68B3F846309BB211
:1089A400002B7FF450AFFA69396BF86800F096F940
:1089B4000346002B05D0012387F82330FB682022CF
:1089C4001A66FB681B6E002B03D0012387F8233043
:1089D40003E0FB68012283F85D20FB68002283F832
:1089E4005C2097F8233018462837BD4680BD000028
:1089F40080B588B000AFF860B9603B601346FB7186
:108A0400FDF798F90246BB6A9B1A3A681344FB6166
:108A1400FDF790F9B861394B1B685B011B0DFA69CE
:108A240002FB03F37B6154E03B68B3F1FF3F50D09A
:108A3400FDF780F90246BB69D31AFA699A4202D952
:108A4400FB69002B3DD1FB681B685A68FB681B68F7
:108A540022F0E0025A60FB685B68B3F5827F11D1B3
:108A6400FB689B68B3F5004F04D0FB689B68B3F5C3
:108A7400806F07D1FB681B681A68FB681B6822F0CB
:108A840040021A60FB689B6AB3F5005F0FD1FB6874
:108A94001B681A68FB681B6822F400521A60FB68A2
:108AA4001B681A68FB681B6842F400521A60FB6872
:108AB400012283F85D20FB68002283F85C200323F5
:108AC40017E07B69002B01D10023FB617B69013B2B
:108AD4007B61FB681B689A68BB681340BA689A425A
:108AE4000CBF01230023DBB21A46FB799A429BD1C7
:108AF400002318462037BD4680BD00BF100000206B
:108B040080B58AB000AFF860B9607A603B6000233A
:108B1400FB75FDF70FF902463B6B9B1A3A68134449
:108B24007B62FDF707F93862FB681B680C33FB6155
:108B34003D4B1A6813469B001344DA00D31A1B0DED
:108B44007A6A02FB03F3BB6160E0BB68B3F5C06FF4
:108B540007D17B68002B04D1FB691B78DBB2FB7562
:108B6400FB7D3B68B3F1FF3F50D0FDF7E3F80246CD
:108B74003B6AD31A7A6A9A4202D97B6A002B3DD1A6
:108B8400FB681B685A68FB681B6822F0E0025A60A5
:108B9400FB685B68B3F5827F11D1FB689B68B3F512
:108BA400004F04D0FB689B68B3F5806F07D1FB6866
:108BB4001B681A68FB681B6822F040021A60FB6895
:108BC4009B6AB3F5005F0FD1FB681B681A68FB68EA
:108BD4001B6822F400521A60FB681B681A68FB6861
:108BE4001B6842F400521A60FB68012283F85D207E
:108BF400FB68002283F85C20032310E0BB69002B90
:108C040001D100237B62BB69013BBB61FB681B682C
:108C14009A68BB6813407A689A4296D10023184632
:108C24002837BD4680BD00BF1000002080B586B047
:108C340002AFF860B9607A60FB685B68B3F5827F65
:108C440011D1FB689B68B3F5004F04D0FB689B68A7
:108C5400B3F5806F07D1FB681B681A68FB681B6853
:108C640022F040021A607B680093BB6800228021D6
:108C7400F868FFF7BDFE0346002B07D0FB681B6EA8
:108C840043F02002FB681A66032323E0FB685B6859
:108C9400B3F5827F1DD1FB689B68B3F5004F04D008
:108CA400FB689B68B3F5806F13D17B680093BB6846
:108CB40000224FF4C061F868FFF722FF0346002B3F
:108CC40007D0FB681B6E43F02002FB681A6603237F
:108CD40000E0002318461037BD4680BD80B586B03D
:108CE40002AFF860B9607A607B680093BB680022C9
:108CF4004FF4C051F868FFF703FF0346002B07D079
:108D0400FB681B6E43F02002FB681A66032327E00E
:108D14007B680093BB6800228021F868FFF768FE37
:108D24000346002B07D0FB681B6E43F02002FB6850
:108D34001A66032314E07B680093BB6800224FF497
:108D4400C061F868FFF7DCFE0346002B07D0FB6820
:108D54001B6E43F02002FB681A66032300E0002325
:108D640018461037BD4680BD80B582B000AF78602C
:108D74007B68002B01D1012340E07B68DB6F002B73
:108D840006D17B68002283F878207868FCF704FF1A
:108D94007B682422DA677B681B681A687B681B6817
:108DA40022F001021A60786800F0BAFB0346012B36
:108DB40001D1012322E07B685B6A002B02D0786832
:108DC40000F082FD7B681B685A687B681B6822F48C
:108DD40090425A607B681B689A687B681B6822F023
:108DE4002A029A607B681B681A687B681B6842F0D9
:108DF40001021A60786800F009FE03461846083735
:108E0400BD4680BD80B58AB002AFF860B9603B60F2
:108E14001346FB80FB68DB6F202B77D1BB68002BEC
:108E240002D0FB88002B01D1012370E0FB680022F3
:108E3400C3F88420FB682122DA67FCF77BFF7861A2
:108E4400FB68FA88A3F85020FB68FA88A3F852203C
:108E5400FB689B68B3F5805F08D1FB681B69002B36
:108E640004D10023FB61BB68BB6103E0BB68FB6109
:108E74000023BB612FE03B6800937B6900228021C3
:108E8400F86800F06BFE0346002B04D0FB68202238
:108E9400DA6703233BE0FB69002B0BD1BB691A881B
:108EA400FB681B68C2F3080292B21A85BB690233DD
:108EB400BB6107E0FB691A78FB681B681A85FB69CC
:108EC4000133FB61FB68B3F852309BB2013B9AB2A9
:108ED400FB68A3F85220FB68B3F852309BB2002B16
:108EE400C9D13B6800937B6900224021F86800F0F7
:108EF40035FE0346002B04D0FB682022DA670323E7
:108F040005E0FB682022DA67002300E0022318460C
:108F14002037BD4680BD000080B5BAB000AF786090
:108F24007B681B68DB69C7F8E4307B681B681B68D7
:108F3400C7F8E0307B681B689B68C7F8DC30D7F85B
:108F4400E42040F60F031340C7F8D830D7F8D830E0
:108F5400002B15D1D7F8E43003F02003002B0FD0F9
:108F6400D7F8E03003F02003002B09D07B689B6E18
:108F7400002B00F0AB827B689B6E78689847A5E273
:108F8400D7F8D830002B00F01781D7F8DC3003F085
:108F94000103002B06D1D7F8E020854B1340002BAA
:108FA40000F00A81D7F8E43003F00103002B11D05C
:108FB400D7F8E03003F48073002B0BD07B681B6878
:108FC40001221A627B68D3F8843043F001027B6883
:108FD400C3F88420D7F8E43003F00203002B11D047
:108FE400D7F8DC3003F00103002B0BD07B681B683F
:108FF40002221A627B68D3F8843043F004027B684F
:10900400C3F88420D7F8E43003F00403002B11D014
:10901400D7F8DC3003F00103002B0BD07B681B680E
:1090240004221A627B68D3F8843043F002027B681E
:10903400C3F88420D7F8E43003F00803002B17D0DA
:10904400D7F8E03003F02003002B05D1D7F8DC304B
:1090540003F00103002B0BD07B681B6808221A6203
:109064007B68D3F8843043F008027B68C3F884201B
:10907400D7F8E43003F40063002B12D0D7F8E030C3
:1090840003F08063002B0CD07B681B684FF40062F4
:109094001A627B68D3F8843043F020027B68C3F8FB
:1090A40084207B68D3F88430002B00F01182D7F839
:1090B400E43003F02003002B0DD0D7F8E03003F0A8
:1090C4002003002B07D07B689B6E002B03D07B68AA
:1090D4009B6E786898477B68D3F88430C7F8D4309F
:1090E4007B681B689B6803F04003402B05D0D7F8CE
:1090F400D43003F02803002B4FD0786800F05CFED6
:109104007B681B689B6803F04003402B41D17B685C
:109114001B680833C7F89C30D7F89C3053E8003FED
:10912400C7F89830D7F8983023F04003C7F8D03008
:109134007B681B680833D7F8D020C7F8A820C7F885
:10914400A430D7F8A410D7F8A82041E80023C7F822
:10915400A030D7F8A030002BD9D17B685B6F002BEF
:1091640013D07B685B6F134A5A637B685B6F184646
:10917400FCF75AFF0346002B17D07B685B6F5B6BD1
:109184007A68526F104698470FE0786800F0BEF98D
:109194000BE0786800F0BAF907E0786800F0B6F9F7
:1091A4007B680022C3F8842092E100BF90E100BFF5
:1091B40020010004859E00087B681B6E012B40F093
:1091C4004B81D7F8E43003F01003002B00F0448106
:1091D400D7F8E03003F01003002B00F03D817B68EA
:1091E4001B6810221A627B681B689B6803F04003AB
:1091F400402B40F0B5807B685B6F1B685B68A7F809
:10920400BE30B7F8BE30002B00F064817B68B3F841
:109214005830B7F8BE209A4280F05C817B68B7F87A
:10922400BE20A3F85A207B685B6F9B69202B00F05B
:1092340086807B681B68C7F88830D7F8883053E885
:10924400003FC7F88430D7F8843023F48073C7F81C
:10925400B8307B681B681A46D7F8B830C7F8943022
:10926400C7F89020D7F89010D7F8942041E800234D
:10927400C7F88C30D7F88C30002BDAD17B681B68A8
:1092840008337B677B6F53E8003F3B673B6F23F0FA
:109294000103C7F8B4307B681B680833D7F8B420DF
:1092A400C7F88020FB67F96FD7F8802041E80023D6
:1092B400BB67BB6F002BE1D17B681B6808333B663F
:1092C4003B6E53E8003FFB65FB6D23F04003C7F89A
:1092D400B0307B681B680833D7F8B020FA66BB66E9
:1092E400B96EFA6E41E800237B667B6E002BE3D1F6
:1092F4007B682022C3F880207B6800221A667B6882
:109304001B68FB64FB6C53E8003FBB64BB6C23F03D
:109314001003C7F8AC307B681B681A46D7F8AC302A
:10932400BB657A65796DBA6D41E800233B653B6D99
:10933400002BE4D17B685B6F1846FCF73CFE7B682E
:1093440002225A667B68B3F858207B68B3F85A3017
:109354009BB2D31A9BB219467868FCF73DFAB9E080
:109364007B68B3F858207B68B3F85A309BB2D31AA1
:10937400A7F8CE307B68B3F85A309BB2002B00F0CC
:10938400AB80B7F8CE30002B00F0A6807B681B685A
:10939400BB63BB6B53E8003F7B637B6B23F490732D
:1093A400C7F8C8307B681B681A46D7F8C8307B6496
:1093B4003A64396C7A6C41E80023FB63FB6B002B45
:1093C400E4D17B681B6808337B627B6A53E8003F07
:1093D4003B623B6A23F00103C7F8C4307B681B6817
:1093E4000833D7F8C4203A63FB62F96A3A6B41E860
:1093F4000023BB62BB6A002BE3D17B682022C3F845
:1094040080207B6800221A667B6800229A667B684B
:109414001B683B613B6953E8003FFB60FB6823F03A
:109424001003C7F8C0307B681B681A46D7F8C030F1
:10943400FB61BA61B969FA6941E800237B617B6920
:10944400002BE4D17B6802225A66B7F8CE30194665
:109454007868FCF7C1F93FE0D7F8E43003F48013EF
:10946400002B0ED0D7F8DC3003F48003002B08D097
:109474007B681B684FF480121A62786800F0E8FE7B
:109484002DE0D7F8E43003F08003002B0ED0D7F89A
:10949400E03003F08003002B08D07B68DB6E002BE8
:1094A4001CD07B68DB6E7868984717E0D7F8E43007
:1094B40003F04003002B12D0D7F8E03003F0400350
:1094C400002B0CD0786800F0F1FC08E000BF06E047
:1094D40000BF04E000BF02E000BF00E000BFE837C7
:1094E400BD4680BD80B483B000AF786000BF0C3748
:1094F400BD465DF8047B704780B483B000AF7860EC
:1095040000BF0C37BD465DF8047B704780B483B060
:1095140000AF786000BF0C37BD465DF8047B704730
:1095240080B588B000AF78600023BB777B689A6809
:109534007B681B691A437B685B691A437B68DB6938
:1095440013437B617B681B681A68924B13407A68EB
:10955400126879690B4313607B681B685B6823F4AA
:1095640040517B68DA687B681B680A435A607B68F1
:109574009B697B617B681B6A7A6913437B617B68A7
:109584001B689B6823F430617B681B687A690A4313
:109594009A607B681B68804A934220D17F4B1B6B87
:1095A40003F00303032B17D801A252F823F000BFE2
:1095B400C5950008D1950008D7950008CB950008FB
:1095C4000123FB77B5E00223FB77B2E00423FB77AA
:1095D400AFE00823FB77ACE01023FB77A9E07B68BE
:1095E4001B686F4A934224D16C4B1B6B03F44033CA
:1095F400B3F5403F11D0B3F5403F17D8B3F5003F62
:1096040011D0B3F5003F11D8002B03D0B3F5803F40
:1096140006D00BE00023FB778BE00223FB7788E086
:109624000423FB7785E00823FB7782E01023FB7794
:109634007FE07B681B685B4A934224D1574B1B6BCA
:1096440003F44023B3F5402F11D0B3F5402F17D8BE
:10965400B3F5002F11D0B3F5002F11D8002B03D090
:10966400B3F5802F06D00BE00023FB7761E00223E3
:10967400FB775EE00423FB775BE00823FB7758E08D
:109684001023FB7755E07B681B68474A934224D13B
:10969400424B1B6B03F44013B3F5401F11D0B3F5D9
:1096A400401F17D8B3F5001F11D0B3F5001F11D810
:1096B400002B03D0B3F5801F06D00BE00023FB770B
:1096C40037E00223FB7734E00423FB7731E00823FF
:1096D400FB772EE01023FB772BE07B681B68334A73
:1096E400934224D12D4B1B6B03F44003B3F5400F7D
:1096F40011D0B3F5400F17D8B3F5000F11D0B3F55F
:10970400000F11D8002B03D0B3F5800F06D00BE067
:109714000023FB770DE00223FB770AE00423FB77A9
:1097240007E00823FB7704E01023FB7701E0102314
:10973400FB777B68DB69B3F5004F6BD1FB7F082BAC
:1097440038D801A252F823F07197000879970008DD
:1097540081970008B997000887970008B99700080F
:10976400B9970008B99700088F970008FEF76EF9BB
:10977400B86124E0FEF78CF9B86120E00C4BBB61C2
:109784001DE0FEF7EDF8B86119E04FF40043BB614A
:1097940015E000BFF369FFEF0038014000100240FC
:1097A4000044004000480040004C0040005000408D
:1097B40000127A000023BB610123BB7700BFBB69A1
:1097C400002B73D0BB695A007B685B685B081A4442
:1097D4007B685B68B2FBF3F33B613B690F2B16D9E3
:1097E4003B69B3F5803F12D23B699BB223F00F0370
:1097F400FB813B695B089BB203F007039AB2FB89C8
:109804001343FB817B681B68FA89DA604EE001230D
:10981400BB774BE0FB7F082B27D801A252F823F03B
:109824004998000851980008599800086F98000852
:109834005F9800086F9800086F9800086F980008F8
:1098440067980008FEF702F9B86113E0FEF720F903
:10985400B8610FE01B4BBB610CE0FEF781F8B86107
:1098640008E04FF40043BB6104E00023BB61012323
:10987400BB7700BFBB69002B18D07B685B685A08B4
:10988400BB691A447B685B68B2FBF3F33B613B69D9
:109894000F2B09D93B69B3F5803F05D23B699AB2D6
:1098A4007B681B68DA6001E00123BB777B680022D8
:1098B4009A667B680022DA66BB7F18462037BD466D
:1098C40080BD00BF00127A0080B483B000AF78601E
:1098D4007B685B6A03F00103002B0AD07B681B687A
:1098E4005B6823F400317B689A6A7B681B680A43CF
:1098F4005A607B685B6A03F00203002B0AD07B6822
:109904001B685B6823F480317B68DA6A7B681B68B8
:109914000A435A607B685B6A03F00403002B0AD095
:109924007B681B685B6823F480217B681A6B7B6807
:109934001B680A435A607B685B6A03F00803002BC8
:109944000AD07B681B685B6823F400417B685A6B10
:109954007B681B680A435A607B685B6A03F01003E8
:10996400002B0AD07B681B689B6823F480517B68BA
:109974009A6B7B681B680A439A607B685B6A03F096
:109984002003002B0AD07B681B689B6823F40051DA
:109994007B68DA6B7B681B680A439A607B685B6A46
:1099A40003F04003002B1AD07B681B685B6823F428
:1099B40080117B681A6C7B681B680A435A607B6859
:1099C4001B6CB3F5801F0AD17B681B685B6823F4AA
:1099D400C0017B685A6C7B681B680A435A607B68C9
:1099E4005B6A03F08003002B0AD07B681B685B680A
:1099F40023F400217B689A6C7B681B680A435A60D5
:109A040000BF0C37BD465DF8047B704780B598B045
:109A140002AF78607B680022C3F88420FCF78AF9DF
:109A240078657B681B681B6803F00803082B2ED13C
:109A34006FF07E4300937B6D00224FF40011786831
:109A440000F08CF80346002B21D07B681B68BB63B5
:109A5400BB6B53E8003F7B637B6B23F080033B6568
:109A64007B681B681A463B6D7B643A64396C7A6C7C
:109A740041E80023FB63FB6B002BE6D17B682022CB
:109A8400DA677B68002283F87820032362E07B682E
:109A94001B681B6803F00403042B49D16FF07E4359
:109AA40000937B6D00224FF48001786800F056F833
:109AB4000346002B3CD07B681B687B627B6A53E8BF
:109AC400003F3B623B6A23F49073FB647B681B6832
:109AD4001A46FB6C3B63FA62F96A3A6B41E800236D
:109AE400BB62BB6A002BE6D17B681B6808333B6111
:109AF4003B6953E8003FFB60FB6823F00103BB6450
:109B04007B681B680833BA6CFA61BB61B969FA698E
:109B140041E800237B617B69002BE5D17B6820222F
:109B2400C3F880207B68002283F87820032311E0A7
:109B34007B682022DA677B682022C3F880207B6858
:109B440000221A667B6800225A667B68002283F82A
:109B54007820002318465837BD4680BD80B584B0B0
:109B640000AFF860B9603B601346FB7149E0BB6924
:109B7400B3F1FF3F45D0FCF7DDF802463B68D31A4A
:109B8400BA699A4202D3BB69002B01D1032348E08E
:109B9400FB681B681B6803F00403002B31D0FB68CF
:109BA4001B68DB6903F00803082B10D1FB681B68F2
:109BB40008221A62F86800F0FFF8FB680822C3F86C
:109BC4008420FB68002283F87820012329E0FB68C5
:109BD4001B68DB6903F40063B3F5006F11D1FB6804
:109BE4001B684FF400621A62F86800F0E5F8FB683D
:109BF4002022C3F88420FB68002283F87820032302
:109C04000FE0FB681B68DA69BB681340BA689A42C4
:109C14000CBF01230023DBB21A46FB799A42A6D07B
:109C2400002318461037BD4680BD000080B497B0AD
:109C340000AFF860B9601346FB80FB68BA685A65E8
:109C4400FB68FA88A3F85820FB68FA88A3F85A201E
:109C5400FB6800229A66FB689B68B3F5805F0ED1AF
:109C6400FB681B69002B05D1FB6840F2FF12A3F8C7
:109C74005C202DE0FB68FF22A3F85C2028E0FB6851
:109C84009B68002B0DD1FB681B69002B04D1FB687A
:109C9400FF22A3F85C201BE0FB687F22A3F85C2072
:109CA40016E0FB689B68B3F1805F0DD1FB681B690C
:109CB400002B04D1FB687F22A3F85C2008E0FB683A
:109CC4003F22A3F85C2003E0FB680022A3F85C2099
:109CD400FB680022C3F88420FB682222C3F880209A
:109CE400FB681B680833FB63FB6B53E8003FBB63F3
:109CF400BB6B43F001037B65FB681B6808337A6D1B
:109D0400BA647B64796CBA6C41E800233B643B6CB5
:109D1400002BE5D1FB689B68B3F5805F07D1FB6836
:109D24001B69002B03D1FB68214A9A6602E0FB6899
:109D3400204A9A66FB681B69002B19D0FB681B68D4
:109D4400BB62BB6A53E8003F7B627B6A43F4907357
:109D5400FB64FB681B681A46FB6C7B633A63396BD4
:109D64007A6B41E80023FB62FB6A002BE6D118E022
:109D7400FB681B687B617B6953E8003F3B613B697F
:109D840043F020033B65FB681B681A463B6D3B624E
:109D9400FA61F9693A6A41E80023BB61BB69002BA7
:109DA400E6D1002318465C37BD465DF8047B704756
:109DB400ADA00008059F000880B495B000AF78609E
:109DC4007B681B687B637B6B53E8003F3B633B6BA7
:109DD40023F49073FB647B681B681A46FB6C3B643A
:109DE400FA63F96B3A6C41E80023BB63BB6B002B4D
:109DF400E6D17B681B6808333B623B6A53E8003F4B
:109E0400FB61FB6923F00103BB647B681B680833B7
:109E1400BA6CFA62BB62B96AFA6A41E800237B62EF
:109E24007B6A002BE5D17B681B6E012B18D17B6804
:109E34001B68FB60FB6853E8003FBB60BB6823F012
:109E440010037B647B681B681A467B6CBB617A6178
:109E54007969BA6941E800233B613B69002BE6D18B
:109E64007B682022C3F880207B6800221A667B6806
:109E740000229A6600BF5437BD465DF8047B7047E4
:109E840080B584B000AF78607B685B6AFB60FB6878
:109E94000022A3F85A20FB680022A3F85220F86895
:109EA400FFF734FB00BF1037BD4680BD80B588B0D6
:109EB40000AF78607B681B68FB60FB6853E8003F79
:109EC400BB60BB6823F04003FB617B681B681A46D8
:109ED400FB69BB617A617969BA6941E800233B6136
:109EE4003B69002BE6D17B682022DA677B6800227D
:109EF400DA667868FFF7F6FA00BF2037BD4680BD02
:109F040080B59CB000AF78607B68B3F85C30A7F88C
:109F14006E307B68D3F88030222B40F0B9807B68A8
:109F24001B689B8CA7F86C30B7F86C30D9B2B7F8C3
:109F34006E30DAB27B685B6D0A40D2B21A707B680D
:109F44005B6D5A1C7B685A657B68B3F85A309BB2C8
:109F5400013B9AB27B68A3F85A207B68B3F85A3065
:109F64009BB2002B40F09C807B681B68FB64FB6CFD
:109F740053E8003FBB64BB6C23F49073BB667B68FF
:109F84001B681A46BB6EBB657A65796DBA6D41E88C
:109F940000233B653B6D002BE6D17B681B680833CF
:109FA400BB63BB6B53E8003F7B637B6B23F0010314
:109FB4007B667B681B6808337A6E7A643B64396C11
:109FC4007A6C41E80023FB63FB6B002BE5D17B68D3
:109FD4002022C3F880207B6800229A667B680022D6
:109FE4005A667B681B685B6803F40003002B18D077
:109FF4007B681B687B627B6A53E8003F3B623B6A79
:10A0040023F080633B667B681B681A463B6E3B63A8
:10A01400FA62F96A3A6B41E80023BB62BB6A002B1F
:10A02400E6D17B681B6E012B2ED17B6800221A6659
:10A034007B681B683B613B6953E8003FFB60FB683E
:10A0440023F01003FB657B681B681A46FB6DFB61FC
:10A05400BA61B969FA6941E800237B617B69002B25
:10A06400E6D17B681B68DB6903F01003102B03D176
:10A074007B681B6810221A627B68B3F85830194653
:10A084007868FBF7A9FB0BE07868FFF735FA07E07F
:10A094007B681B689A697B681B6842F008029A61B6
:10A0A40000BF7037BD4680BD80B59CB000AF7860FE
:10A0B4007B68B3F85C30A7F86E307B68D3F88030E7
:10A0C400222B40F0B9807B681B689B8CA7F86C300E
:10A0D4007B685B6DBB66B7F86C20B7F86E301340D5
:10A0E4009AB2BB6E1A807B685B6D9A1C7B685A655A
:10A0F4007B68B3F85A309BB2013B9AB27B68A3F8F1
:10A104005A207B68B3F85A309BB2002B40F09C80F5
:10A114007B681B68BB64BB6C53E8003F7B647B6C4F
:10A1240023F490737B667B681B681A467B6E7B65A1
:10A134003A65396D7A6D41E80023FB64FB6C002BB2
:10A14400E6D17B681B6808337B637B6B53E8003F75
:10A154003B633B6B23F001033B667B681B6808335E
:10A164003A6E3A64FB63F96B3A6C41E80023BB63D3
:10A17400BB6B002BE5D17B682022C3F880207B6871
:10A1840000229A667B6800225A667B681B685B68BB
:10A1940003F40003002B18D07B681B683B623B6A06
:10A1A40053E8003FFB61FB6923F08063FB657B6838
:10A1B4001B681A46FB6DFB62BA62B96AFA6A41E827
:10A1C40000237B627B6A002BE6D17B681B6E012B2C
:10A1D4002ED17B6800221A667B681B68FB60FB68D3
:10A1E40053E8003FBB60BB6823F01003BB657B688A
:10A1F4001B681A46BB6DBB617A617969BA6941E82B
:10A2040000233B613B69002BE6D17B681B68DB695B
:10A2140003F01003102B03D17B681B6810221A6211
:10A224007B68B3F8583019467868FBF7D5FA0BE029
:10A234007868FFF761F907E07B681B689A697B68B7
:10A244001B6842F008029A6100BF7037BD4680BDAA
:10A2540080B483B000AF786000BF0C37BD465DF8B2
:10A26400047B704780B58CB000AFF860B9601346CA
:10A27400FB80FB68D3F88030202B42D1BB68002BD5
:10A2840002D0FB88002B01D101233BE0FB680122B3
:10A294001A66FB6800225A66FB881A46B968F86891
:10A2A400FFF7C4FC034687F82F3097F82F30002BB4
:10A2B40024D1FB681B6E012B1DD1FB681B68102287
:10A2C4001A62FB681B68BB61BB6953E8003F7B6192
:10A2D4007B6943F01003BB62FB681B681A46BB6AC8
:10A2E4007B623A62396A7A6A41E80023FB61FB695E
:10A2F400002BE6D102E0012387F82F3097F82F30A6
:10A3040000E0022318463037BD4680BD02440346B0
:10A31400934200D1704703F8011BF9E770B50D4D66
:10A324000D4C641BA4100026A64209D10B4D0C4C05
:10A3340000F018F8641BA4100026A64205D170BDD5
:10A3440055F8043B98470136EEE755F8043B984727
:10A354000136F2E7BCA30008BCA30008BCA30008B4
:10A36400C0A30008F8B500BFF8BC08BC9E467047FF
:0CA37400F8B500BFF8BC08BC9E4670475E
:10A3800000000000000000000000000001020304C3
:10A390000607080900000000010203040203040587
:10A3A000060708090A0B0C0D0E0F1010010203041A
:0CA3B00005060708090A0B0C0D0E0F1023
:04A3BC00B95100088B
:04A3C00095510008AB
:10A3C400457261736520446F6E652E2E2E0A00005F
:0CA3D40000127A001000000001000000E0
:0400000508005C3162
:00000001FF
